{"abi":[{"inputs":[],"stateMutability":"nonpayable","type":"constructor"},{"inputs":[],"name":"bookIndex","outputs":[{"internalType":"uint256","name":"","type":"uint256"}],"stateMutability":"view","type":"function"},{"inputs":[{"internalType":"string","name":"_title","type":"string"},{"internalType":"uint256","name":"_duration","type":"uint256"}],"name":"borrowBook","outputs":[],"stateMutability":"payable","type":"function"},{"inputs":[{"internalType":"address","name":"","type":"address"}],"name":"borrowed","outputs":[{"internalType":"string","name":"title","type":"string"},{"internalType":"address","name":"student","type":"address"},{"internalType":"uint256","name":"returnTime","type":"uint256"},{"internalType":"bool","name":"returned","type":"bool"},{"internalType":"uint256","name":"bookIndex","type":"uint256"}],"stateMutability":"view","type":"function"},{"inputs":[{"internalType":"uint256","name":"","type":"uint256"}],"name":"borrowedBooks","outputs":[{"internalType":"string","name":"title","type":"string"},{"internalType":"address","name":"student","type":"address"},{"internalType":"uint256","name":"returnTime","type":"uint256"},{"internalType":"bool","name":"returned","type":"bool"},{"internalType":"uint256","name":"bookIndex","type":"uint256"}],"stateMutability":"view","type":"function"},{"inputs":[{"internalType":"address","name":"_address","type":"address"}],"name":"checkLateReturnsCount","outputs":[{"internalType":"uint256","name":"","type":"uint256"}],"stateMutability":"view","type":"function"},{"inputs":[],"name":"deposit","outputs":[{"internalType":"uint256","name":"","type":"uint256"}],"stateMutability":"view","type":"function"},{"inputs":[],"name":"getBorrowedBooks","outputs":[{"components":[{"internalType":"string","name":"title","type":"string"},{"internalType":"address","name":"student","type":"address"},{"internalType":"uint256","name":"returnTime","type":"uint256"},{"internalType":"bool","name":"returned","type":"bool"},{"internalType":"uint256","name":"bookIndex","type":"uint256"}],"internalType":"struct LibraryRecord.Details[]","name":"","type":"tuple[]"}],"stateMutability":"view","type":"function"},{"inputs":[{"internalType":"address","name":"","type":"address"}],"name":"holdings","outputs":[{"internalType":"uint256","name":"","type":"uint256"}],"stateMutability":"view","type":"function"},{"inputs":[{"internalType":"address","name":"","type":"address"}],"name":"registeredStudents","outputs":[{"internalType":"address","name":"student","type":"address"},{"internalType":"bool","name":"outstanding","type":"bool"},{"internalType":"uint256","name":"lateReturns","type":"uint256"},{"internalType":"bool","name":"registered","type":"bool"},{"internalType":"uint256","name":"lateFee","type":"uint256"},{"internalType":"uint256","name":"totalFees","type":"uint256"}],"stateMutability":"view","type":"function"},{"inputs":[{"internalType":"address","name":"_student","type":"address"}],"name":"returnBook","outputs":[],"stateMutability":"nonpayable","type":"function"},{"inputs":[{"internalType":"address","name":"_librarian","type":"address"},{"internalType":"bool","name":"_approve","type":"bool"},{"internalType":"address","name":"_student","type":"address"}],"name":"validateReturn","outputs":[],"stateMutability":"nonpayable","type":"function"}],"devdoc":{"kind":"dev","methods":{},"version":1},"evm":{"assembly":"    /* \"library-system.sol\":66:4592  contract LibraryRecord {... */\n  mstore(0x40, 0x80)\n    /* \"library-system.sol\":716:775  constructor() {... */\n  callvalue\n  dup1\n  iszero\n  tag_1\n  jumpi\n  0x00\n  dup1\n  revert\ntag_1:\n  pop\n    /* \"library-system.sol\":751:767  5000000000000000 */\n  0x11c37937e08000\n    /* \"library-system.sol\":741:748  deposit */\n  0x05\n    /* \"library-system.sol\":741:767  deposit = 5000000000000000 */\n  dup2\n  swap1\n  sstore\n  pop\n    /* \"library-system.sol\":66:4592  contract LibraryRecord {... */\n  dataSize(sub_0)\n  dup1\n  dataOffset(sub_0)\n  0x00\n  codecopy\n  0x00\n  return\nstop\n\nsub_0: assembly {\n        /* \"library-system.sol\":66:4592  contract LibraryRecord {... */\n      mstore(0x40, 0x80)\n      jumpi(tag_1, lt(calldatasize, 0x04))\n      shr(0xe0, calldataload(0x00))\n      dup1\n      0x8ccca18a\n      gt\n      tag_13\n      jumpi\n      dup1\n      0x8ccca18a\n      eq\n      tag_7\n      jumpi\n      dup1\n      0xa9f0e7a4\n      eq\n      tag_8\n      jumpi\n      dup1\n      0xb049de54\n      eq\n      tag_9\n      jumpi\n      dup1\n      0xb899d565\n      eq\n      tag_10\n      jumpi\n      dup1\n      0xd0e30db0\n      eq\n      tag_11\n      jumpi\n      dup1\n      0xdd3ced63\n      eq\n      tag_12\n      jumpi\n      jump(tag_1)\n    tag_13:\n      dup1\n      0x0941cb3d\n      eq\n      tag_2\n      jumpi\n      dup1\n      0x1a2a9aea\n      eq\n      tag_3\n      jumpi\n      dup1\n      0x320f5c72\n      eq\n      tag_4\n      jumpi\n      dup1\n      0x6a27a888\n      eq\n      tag_5\n      jumpi\n      dup1\n      0x6ea2f53c\n      eq\n      tag_6\n      jumpi\n    tag_1:\n      0x00\n      dup1\n      revert\n        /* \"library-system.sol\":503:546  mapping(address => Details) public borrowed */\n    tag_2:\n      callvalue\n      dup1\n      iszero\n      tag_14\n      jumpi\n      0x00\n      dup1\n      revert\n    tag_14:\n      pop\n      tag_15\n      0x04\n      dup1\n      calldatasize\n      sub\n      dup2\n      add\n      swap1\n      tag_16\n      swap2\n      swap1\n      tag_17\n      jump\t// in\n    tag_16:\n      tag_18\n      jump\t// in\n    tag_15:\n      mload(0x40)\n      tag_19\n      swap6\n      swap5\n      swap4\n      swap3\n      swap2\n      swap1\n      tag_20\n      jump\t// in\n    tag_19:\n      mload(0x40)\n      dup1\n      swap2\n      sub\n      swap1\n      return\n        /* \"library-system.sol\":2015:2491  function checkLateReturnsCount(address _address)... */\n    tag_3:\n      callvalue\n      dup1\n      iszero\n      tag_21\n      jumpi\n      0x00\n      dup1\n      revert\n    tag_21:\n      pop\n      tag_22\n      0x04\n      dup1\n      calldatasize\n      sub\n      dup2\n      add\n      swap1\n      tag_23\n      swap2\n      swap1\n      tag_17\n      jump\t// in\n    tag_23:\n      tag_24\n      jump\t// in\n    tag_22:\n      mload(0x40)\n      tag_25\n      swap2\n      swap1\n      tag_26\n      jump\t// in\n    tag_25:\n      mload(0x40)\n      dup1\n      swap2\n      sub\n      swap1\n      return\n        /* \"library-system.sol\":553:583  Details[] public borrowedBooks */\n    tag_4:\n      callvalue\n      dup1\n      iszero\n      tag_27\n      jumpi\n      0x00\n      dup1\n      revert\n    tag_27:\n      pop\n      tag_28\n      0x04\n      dup1\n      calldatasize\n      sub\n      dup2\n      add\n      swap1\n      tag_29\n      swap2\n      swap1\n      tag_30\n      jump\t// in\n    tag_29:\n      tag_31\n      jump\t// in\n    tag_28:\n      mload(0x40)\n      tag_32\n      swap6\n      swap5\n      swap4\n      swap3\n      swap2\n      swap1\n      tag_20\n      jump\t// in\n    tag_32:\n      mload(0x40)\n      dup1\n      swap2\n      sub\n      swap1\n      return\n        /* \"library-system.sol\":2499:3274  function returnBook(address _student) public {... */\n    tag_5:\n      callvalue\n      dup1\n      iszero\n      tag_33\n      jumpi\n      0x00\n      dup1\n      revert\n    tag_33:\n      pop\n      tag_34\n      0x04\n      dup1\n      calldatasize\n      sub\n      dup2\n      add\n      swap1\n      tag_35\n      swap2\n      swap1\n      tag_17\n      jump\t// in\n    tag_35:\n      tag_36\n      jump\t// in\n    tag_34:\n      stop\n        /* \"library-system.sol\":623:676  mapping(address => Student) public registeredStudents */\n    tag_6:\n      callvalue\n      dup1\n      iszero\n      tag_37\n      jumpi\n      0x00\n      dup1\n      revert\n    tag_37:\n      pop\n      tag_38\n      0x04\n      dup1\n      calldatasize\n      sub\n      dup2\n      add\n      swap1\n      tag_39\n      swap2\n      swap1\n      tag_17\n      jump\t// in\n    tag_39:\n      tag_40\n      jump\t// in\n    tag_38:\n      mload(0x40)\n      tag_41\n      swap7\n      swap6\n      swap5\n      swap4\n      swap3\n      swap2\n      swap1\n      tag_42\n      jump\t// in\n    tag_41:\n      mload(0x40)\n      dup1\n      swap2\n      sub\n      swap1\n      return\n        /* \"library-system.sol\":4483:4589  function getBorrowedBooks() public view returns (Details[] memory) {... */\n    tag_7:\n      callvalue\n      dup1\n      iszero\n      tag_43\n      jumpi\n      0x00\n      dup1\n      revert\n    tag_43:\n      pop\n      tag_44\n      tag_45\n      jump\t// in\n    tag_44:\n      mload(0x40)\n      tag_46\n      swap2\n      swap1\n      tag_47\n      jump\t// in\n    tag_46:\n      mload(0x40)\n      dup1\n      swap2\n      sub\n      swap1\n      return\n        /* \"library-system.sol\":783:2007  function borrowBook(string memory _title, uint256 _duration)... */\n    tag_8:\n      tag_48\n      0x04\n      dup1\n      calldatasize\n      sub\n      dup2\n      add\n      swap1\n      tag_49\n      swap2\n      swap1\n      tag_50\n      jump\t// in\n    tag_49:\n      tag_51\n      jump\t// in\n    tag_48:\n      stop\n        /* \"library-system.sol\":590:614  uint256 public bookIndex */\n    tag_9:\n      callvalue\n      dup1\n      iszero\n      tag_52\n      jumpi\n      0x00\n      dup1\n      revert\n    tag_52:\n      pop\n      tag_53\n      tag_54\n      jump\t// in\n    tag_53:\n      mload(0x40)\n      tag_55\n      swap2\n      swap1\n      tag_26\n      jump\t// in\n    tag_55:\n      mload(0x40)\n      dup1\n      swap2\n      sub\n      swap1\n      return\n        /* \"library-system.sol\":3282:4475  function validateReturn(... */\n    tag_10:\n      callvalue\n      dup1\n      iszero\n      tag_56\n      jumpi\n      0x00\n      dup1\n      revert\n    tag_56:\n      pop\n      tag_57\n      0x04\n      dup1\n      calldatasize\n      sub\n      dup2\n      add\n      swap1\n      tag_58\n      swap2\n      swap1\n      tag_59\n      jump\t// in\n    tag_58:\n      tag_60\n      jump\t// in\n    tag_57:\n      stop\n        /* \"library-system.sol\":685:707  uint256 public deposit */\n    tag_11:\n      callvalue\n      dup1\n      iszero\n      tag_61\n      jumpi\n      0x00\n      dup1\n      revert\n    tag_61:\n      pop\n      tag_62\n      tag_63\n      jump\t// in\n    tag_62:\n      mload(0x40)\n      tag_64\n      swap2\n      swap1\n      tag_26\n      jump\t// in\n    tag_64:\n      mload(0x40)\n      dup1\n      swap2\n      sub\n      swap1\n      return\n        /* \"library-system.sol\":451:494  mapping(address => uint256) public holdings */\n    tag_12:\n      callvalue\n      dup1\n      iszero\n      tag_65\n      jumpi\n      0x00\n      dup1\n      revert\n    tag_65:\n      pop\n      tag_66\n      0x04\n      dup1\n      calldatasize\n      sub\n      dup2\n      add\n      swap1\n      tag_67\n      swap2\n      swap1\n      tag_17\n      jump\t// in\n    tag_67:\n      tag_68\n      jump\t// in\n    tag_66:\n      mload(0x40)\n      tag_69\n      swap2\n      swap1\n      tag_26\n      jump\t// in\n    tag_69:\n      mload(0x40)\n      dup1\n      swap2\n      sub\n      swap1\n      return\n        /* \"library-system.sol\":503:546  mapping(address => Details) public borrowed */\n    tag_18:\n      mstore(0x20, 0x01)\n      dup1\n      0x00\n      mstore\n      keccak256(0x00, 0x40)\n      0x00\n      swap2\n      pop\n      swap1\n      pop\n      dup1\n      0x00\n      add\n      dup1\n      sload\n      tag_70\n      swap1\n      tag_71\n      jump\t// in\n    tag_70:\n      dup1\n      0x1f\n      add\n      0x20\n      dup1\n      swap2\n      div\n      mul\n      0x20\n      add\n      mload(0x40)\n      swap1\n      dup2\n      add\n      0x40\n      mstore\n      dup1\n      swap3\n      swap2\n      swap1\n      dup2\n      dup2\n      mstore\n      0x20\n      add\n      dup3\n      dup1\n      sload\n      tag_72\n      swap1\n      tag_71\n      jump\t// in\n    tag_72:\n      dup1\n      iszero\n      tag_73\n      jumpi\n      dup1\n      0x1f\n      lt\n      tag_74\n      jumpi\n      0x0100\n      dup1\n      dup4\n      sload\n      div\n      mul\n      dup4\n      mstore\n      swap2\n      0x20\n      add\n      swap2\n      jump(tag_73)\n    tag_74:\n      dup3\n      add\n      swap2\n      swap1\n      0x00\n      mstore\n      keccak256(0x00, 0x20)\n      swap1\n    tag_75:\n      dup2\n      sload\n      dup2\n      mstore\n      swap1\n      0x01\n      add\n      swap1\n      0x20\n      add\n      dup1\n      dup4\n      gt\n      tag_75\n      jumpi\n      dup3\n      swap1\n      sub\n      0x1f\n      and\n      dup3\n      add\n      swap2\n    tag_73:\n      pop\n      pop\n      pop\n      pop\n      pop\n      swap1\n      dup1\n      0x01\n      add\n      0x00\n      swap1\n      sload\n      swap1\n      0x0100\n      exp\n      swap1\n      div\n      0xffffffffffffffffffffffffffffffffffffffff\n      and\n      swap1\n      dup1\n      0x02\n      add\n      sload\n      swap1\n      dup1\n      0x03\n      add\n      0x00\n      swap1\n      sload\n      swap1\n      0x0100\n      exp\n      swap1\n      div\n      0xff\n      and\n      swap1\n      dup1\n      0x04\n      add\n      sload\n      swap1\n      pop\n      dup6\n      jump\t// out\n        /* \"library-system.sol\":2015:2491  function checkLateReturnsCount(address _address)... */\n    tag_24:\n        /* \"library-system.sol\":2112:2119  uint256 */\n      0x00\n        /* \"library-system.sol\":2137:2156  uint256 lateReturns */\n      dup1\n        /* \"library-system.sol\":2159:2177  registeredStudents */\n      0x04\n        /* \"library-system.sol\":2159:2187  registeredStudents[_address] */\n      0x00\n        /* \"library-system.sol\":2178:2186  _address */\n      dup5\n        /* \"library-system.sol\":2159:2187  registeredStudents[_address] */\n      0xffffffffffffffffffffffffffffffffffffffff\n      and\n      0xffffffffffffffffffffffffffffffffffffffff\n      and\n      dup2\n      mstore\n      0x20\n      add\n      swap1\n      dup2\n      mstore\n      0x20\n      add\n      0x00\n      keccak256\n        /* \"library-system.sol\":2159:2199  registeredStudents[_address].lateReturns */\n      0x01\n      add\n      sload\n        /* \"library-system.sol\":2137:2199  uint256 lateReturns = registeredStudents[_address].lateReturns */\n      swap1\n      pop\n        /* \"library-system.sol\":2231:2232  2 */\n      0x02\n        /* \"library-system.sol\":2216:2227  lateReturns */\n      dup2\n        /* \"library-system.sol\":2216:2232  lateReturns <= 2 */\n      gt\n        /* \"library-system.sol\":2212:2484  if (lateReturns <= 2) {... */\n      tag_77\n      jumpi\n        /* \"library-system.sol\":2256:2257  0 */\n      0x00\n        /* \"library-system.sol\":2249:2257  return 0 */\n      swap2\n      pop\n      pop\n      jump(tag_76)\n        /* \"library-system.sol\":2212:2484  if (lateReturns <= 2) {... */\n    tag_77:\n        /* \"library-system.sol\":2294:2295  5 */\n      0x05\n        /* \"library-system.sol\":2279:2290  lateReturns */\n      dup2\n        /* \"library-system.sol\":2279:2295  lateReturns <= 5 */\n      gt\n        /* \"library-system.sol\":2275:2484  if (lateReturns <= 5) {... */\n      tag_79\n      jumpi\n        /* \"library-system.sol\":2319:2335  1000000000000000 */\n      0x038d7ea4c68000\n        /* \"library-system.sol\":2312:2335  return 1000000000000000 */\n      swap2\n      pop\n      pop\n      jump(tag_76)\n        /* \"library-system.sol\":2275:2484  if (lateReturns <= 5) {... */\n    tag_79:\n        /* \"library-system.sol\":2372:2373  7 */\n      0x07\n        /* \"library-system.sol\":2357:2368  lateReturns */\n      dup2\n        /* \"library-system.sol\":2357:2373  lateReturns <= 7 */\n      gt\n        /* \"library-system.sol\":2353:2484  if (lateReturns <= 7) {... */\n      tag_81\n      jumpi\n        /* \"library-system.sol\":2397:2414  10000000000000000 */\n      0x2386f26fc10000\n        /* \"library-system.sol\":2390:2414  return 10000000000000000 */\n      swap2\n      pop\n      pop\n      jump(tag_76)\n        /* \"library-system.sol\":2353:2484  if (lateReturns <= 7) {... */\n    tag_81:\n        /* \"library-system.sol\":2454:2472  100000000000000000 */\n      0x016345785d8a0000\n        /* \"library-system.sol\":2447:2472  return 100000000000000000 */\n      swap2\n      pop\n      pop\n        /* \"library-system.sol\":2015:2491  function checkLateReturnsCount(address _address)... */\n    tag_76:\n      swap2\n      swap1\n      pop\n      jump\t// out\n        /* \"library-system.sol\":553:583  Details[] public borrowedBooks */\n    tag_31:\n      0x02\n      dup2\n      dup2\n      sload\n      dup2\n      lt\n      tag_83\n      jumpi\n      0x00\n      dup1\n      revert\n    tag_83:\n      swap1\n      0x00\n      mstore\n      keccak256(0x00, 0x20)\n      swap1\n      0x05\n      mul\n      add\n      0x00\n      swap2\n      pop\n      swap1\n      pop\n      dup1\n      0x00\n      add\n      dup1\n      sload\n      tag_85\n      swap1\n      tag_71\n      jump\t// in\n    tag_85:\n      dup1\n      0x1f\n      add\n      0x20\n      dup1\n      swap2\n      div\n      mul\n      0x20\n      add\n      mload(0x40)\n      swap1\n      dup2\n      add\n      0x40\n      mstore\n      dup1\n      swap3\n      swap2\n      swap1\n      dup2\n      dup2\n      mstore\n      0x20\n      add\n      dup3\n      dup1\n      sload\n      tag_86\n      swap1\n      tag_71\n      jump\t// in\n    tag_86:\n      dup1\n      iszero\n      tag_87\n      jumpi\n      dup1\n      0x1f\n      lt\n      tag_88\n      jumpi\n      0x0100\n      dup1\n      dup4\n      sload\n      div\n      mul\n      dup4\n      mstore\n      swap2\n      0x20\n      add\n      swap2\n      jump(tag_87)\n    tag_88:\n      dup3\n      add\n      swap2\n      swap1\n      0x00\n      mstore\n      keccak256(0x00, 0x20)\n      swap1\n    tag_89:\n      dup2\n      sload\n      dup2\n      mstore\n      swap1\n      0x01\n      add\n      swap1\n      0x20\n      add\n      dup1\n      dup4\n      gt\n      tag_89\n      jumpi\n      dup3\n      swap1\n      sub\n      0x1f\n      and\n      dup3\n      add\n      swap2\n    tag_87:\n      pop\n      pop\n      pop\n      pop\n      pop\n      swap1\n      dup1\n      0x01\n      add\n      0x00\n      swap1\n      sload\n      swap1\n      0x0100\n      exp\n      swap1\n      div\n      0xffffffffffffffffffffffffffffffffffffffff\n      and\n      swap1\n      dup1\n      0x02\n      add\n      sload\n      swap1\n      dup1\n      0x03\n      add\n      0x00\n      swap1\n      sload\n      swap1\n      0x0100\n      exp\n      swap1\n      div\n      0xff\n      and\n      swap1\n      dup1\n      0x04\n      add\n      sload\n      swap1\n      pop\n      dup6\n      jump\t// out\n        /* \"library-system.sol\":2499:3274  function returnBook(address _student) public {... */\n    tag_36:\n        /* \"library-system.sol\":2555:2583  Details storage returnedBook */\n      0x00\n        /* \"library-system.sol\":2586:2594  borrowed */\n      0x01\n        /* \"library-system.sol\":2586:2606  borrowed[msg.sender] */\n      0x00\n        /* \"library-system.sol\":2595:2605  msg.sender */\n      caller\n        /* \"library-system.sol\":2586:2606  borrowed[msg.sender] */\n      0xffffffffffffffffffffffffffffffffffffffff\n      and\n      0xffffffffffffffffffffffffffffffffffffffff\n      and\n      dup2\n      mstore\n      0x20\n      add\n      swap1\n      dup2\n      mstore\n      0x20\n      add\n      0x00\n      keccak256\n        /* \"library-system.sol\":2555:2606  Details storage returnedBook = borrowed[msg.sender] */\n      swap1\n      pop\n        /* \"library-system.sol\":2663:2673  msg.sender */\n      caller\n        /* \"library-system.sol\":2639:2673  returnedBook.student == msg.sender */\n      0xffffffffffffffffffffffffffffffffffffffff\n      and\n        /* \"library-system.sol\":2639:2651  returnedBook */\n      dup2\n        /* \"library-system.sol\":2639:2659  returnedBook.student */\n      0x01\n      add\n      0x00\n      swap1\n      sload\n      swap1\n      0x0100\n      exp\n      swap1\n      div\n      0xffffffffffffffffffffffffffffffffffffffff\n      and\n        /* \"library-system.sol\":2639:2673  returnedBook.student == msg.sender */\n      0xffffffffffffffffffffffffffffffffffffffff\n      and\n      eq\n        /* \"library-system.sol\":2617:2729  require(... */\n      tag_91\n      jumpi\n      mload(0x40)\n      0x08c379a000000000000000000000000000000000000000000000000000000000\n      dup2\n      mstore\n      0x04\n      add\n      tag_92\n      swap1\n      tag_93\n      jump\t// in\n    tag_92:\n      mload(0x40)\n      dup1\n      swap2\n      sub\n      swap1\n      revert\n    tag_91:\n        /* \"library-system.sol\":2762:2770  _student */\n      dup2\n        /* \"library-system.sol\":2748:2770  msg.sender == _student */\n      0xffffffffffffffffffffffffffffffffffffffff\n      and\n        /* \"library-system.sol\":2748:2758  msg.sender */\n      caller\n        /* \"library-system.sol\":2748:2770  msg.sender == _student */\n      0xffffffffffffffffffffffffffffffffffffffff\n      and\n      eq\n        /* \"library-system.sol\":2740:2794  require(msg.sender == _student, \"Unauthorized access\") */\n      tag_94\n      jumpi\n      mload(0x40)\n      0x08c379a000000000000000000000000000000000000000000000000000000000\n      dup2\n      mstore\n      0x04\n      add\n      tag_95\n      swap1\n      tag_96\n      jump\t// in\n    tag_95:\n      mload(0x40)\n      dup1\n      swap2\n      sub\n      swap1\n      revert\n    tag_94:\n        /* \"library-system.sol\":2814:2826  returnedBook */\n      dup1\n        /* \"library-system.sol\":2814:2835  returnedBook.returned */\n      0x03\n      add\n      0x00\n      swap1\n      sload\n      swap1\n      0x0100\n      exp\n      swap1\n      div\n      0xff\n      and\n        /* \"library-system.sol\":2813:2835  !returnedBook.returned */\n      iszero\n        /* \"library-system.sol\":2805:2853  require(!returnedBook.returned, \"Book returned\") */\n      tag_97\n      jumpi\n      mload(0x40)\n      0x08c379a000000000000000000000000000000000000000000000000000000000\n      dup2\n      mstore\n      0x04\n      add\n      tag_98\n      swap1\n      tag_99\n      jump\t// in\n    tag_98:\n      mload(0x40)\n      dup1\n      swap2\n      sub\n      swap1\n      revert\n    tag_97:\n        /* \"library-system.sol\":2888:2892  true */\n      0x01\n        /* \"library-system.sol\":2864:2876  returnedBook */\n      dup2\n        /* \"library-system.sol\":2864:2885  returnedBook.returned */\n      0x03\n      add\n      0x00\n        /* \"library-system.sol\":2864:2892  returnedBook.returned = true */\n      0x0100\n      exp\n      dup2\n      sload\n      dup2\n      0xff\n      mul\n      not\n      and\n      swap1\n      dup4\n      iszero\n      iszero\n      mul\n      or\n      swap1\n      sstore\n      pop\n        /* \"library-system.sol\":2952:2956  true */\n      0x01\n        /* \"library-system.sol\":2903:2916  borrowedBooks */\n      0x02\n        /* \"library-system.sol\":2917:2929  returnedBook */\n      dup3\n        /* \"library-system.sol\":2917:2939  returnedBook.bookIndex */\n      0x04\n      add\n      sload\n        /* \"library-system.sol\":2903:2940  borrowedBooks[returnedBook.bookIndex] */\n      dup2\n      sload\n      dup2\n      lt\n      tag_100\n      jumpi\n      tag_101\n      tag_102\n      jump\t// in\n    tag_101:\n    tag_100:\n      swap1\n      0x00\n      mstore\n      keccak256(0x00, 0x20)\n      swap1\n      0x05\n      mul\n      add\n        /* \"library-system.sol\":2903:2949  borrowedBooks[returnedBook.bookIndex].returned */\n      0x03\n      add\n      0x00\n        /* \"library-system.sol\":2903:2956  borrowedBooks[returnedBook.bookIndex].returned = true */\n      0x0100\n      exp\n      dup2\n      sload\n      dup2\n      0xff\n      mul\n      not\n      and\n      swap1\n      dup4\n      iszero\n      iszero\n      mul\n      or\n      swap1\n      sstore\n      pop\n        /* \"library-system.sol\":2969:2993  Student storage borrower */\n      0x00\n        /* \"library-system.sol\":2996:3014  registeredStudents */\n      0x04\n        /* \"library-system.sol\":2996:3026  registeredStudents[msg.sender] */\n      0x00\n        /* \"library-system.sol\":3015:3025  msg.sender */\n      caller\n        /* \"library-system.sol\":2996:3026  registeredStudents[msg.sender] */\n      0xffffffffffffffffffffffffffffffffffffffff\n      and\n      0xffffffffffffffffffffffffffffffffffffffff\n      and\n      dup2\n      mstore\n      0x20\n      add\n      swap1\n      dup2\n      mstore\n      0x20\n      add\n      0x00\n      keccak256\n        /* \"library-system.sol\":2969:3026  Student storage borrower = registeredStudents[msg.sender] */\n      swap1\n      pop\n        /* \"library-system.sol\":3056:3057  0 */\n      0x00\n        /* \"library-system.sol\":3037:3045  borrower */\n      dup2\n        /* \"library-system.sol\":3037:3053  borrower.lateFee */\n      0x03\n      add\n        /* \"library-system.sol\":3037:3057  borrower.lateFee = 0 */\n      dup2\n      swap1\n      sstore\n      pop\n        /* \"library-system.sol\":3092:3104  returnedBook */\n      dup2\n        /* \"library-system.sol\":3092:3115  returnedBook.returnTime */\n      0x02\n      add\n      sload\n        /* \"library-system.sol\":3074:3089  block.timestamp */\n      timestamp\n        /* \"library-system.sol\":3074:3115  block.timestamp > returnedBook.returnTime */\n      gt\n        /* \"library-system.sol\":3070:3267  if (block.timestamp > returnedBook.returnTime) {... */\n      iszero\n      tag_104\n      jumpi\n        /* \"library-system.sol\":3254:3255  1 */\n      0x01\n        /* \"library-system.sol\":3231:3239  borrower */\n      dup2\n        /* \"library-system.sol\":3231:3251  borrower.lateReturns */\n      0x01\n      add\n      sload\n        /* \"library-system.sol\":3231:3255  borrower.lateReturns + 1 */\n      tag_105\n      swap2\n      swap1\n      tag_106\n      jump\t// in\n    tag_105:\n        /* \"library-system.sol\":3208:3216  borrower */\n      dup2\n        /* \"library-system.sol\":3208:3228  borrower.lateReturns */\n      0x01\n      add\n        /* \"library-system.sol\":3208:3255  borrower.lateReturns = borrower.lateReturns + 1 */\n      dup2\n      swap1\n      sstore\n      pop\n        /* \"library-system.sol\":3070:3267  if (block.timestamp > returnedBook.returnTime) {... */\n    tag_104:\n        /* \"library-system.sol\":2544:3274  {... */\n      pop\n      pop\n        /* \"library-system.sol\":2499:3274  function returnBook(address _student) public {... */\n      pop\n      jump\t// out\n        /* \"library-system.sol\":623:676  mapping(address => Student) public registeredStudents */\n    tag_40:\n      mstore(0x20, 0x04)\n      dup1\n      0x00\n      mstore\n      keccak256(0x00, 0x40)\n      0x00\n      swap2\n      pop\n      swap1\n      pop\n      dup1\n      0x00\n      add\n      0x00\n      swap1\n      sload\n      swap1\n      0x0100\n      exp\n      swap1\n      div\n      0xffffffffffffffffffffffffffffffffffffffff\n      and\n      swap1\n      dup1\n      0x00\n      add\n      0x14\n      swap1\n      sload\n      swap1\n      0x0100\n      exp\n      swap1\n      div\n      0xff\n      and\n      swap1\n      dup1\n      0x01\n      add\n      sload\n      swap1\n      dup1\n      0x02\n      add\n      0x00\n      swap1\n      sload\n      swap1\n      0x0100\n      exp\n      swap1\n      div\n      0xff\n      and\n      swap1\n      dup1\n      0x03\n      add\n      sload\n      swap1\n      dup1\n      0x04\n      add\n      sload\n      swap1\n      pop\n      dup7\n      jump\t// out\n        /* \"library-system.sol\":4483:4589  function getBorrowedBooks() public view returns (Details[] memory) {... */\n    tag_45:\n        /* \"library-system.sol\":4532:4548  Details[] memory */\n      0x60\n        /* \"library-system.sol\":4568:4581  borrowedBooks */\n      0x02\n        /* \"library-system.sol\":4561:4581  return borrowedBooks */\n      dup1\n      sload\n      dup1\n      0x20\n      mul\n      0x20\n      add\n      mload(0x40)\n      swap1\n      dup2\n      add\n      0x40\n      mstore\n      dup1\n      swap3\n      swap2\n      swap1\n      dup2\n      dup2\n      mstore\n      0x20\n      add\n      0x00\n      swap1\n    tag_108:\n      dup3\n      dup3\n      lt\n      iszero\n      tag_109\n      jumpi\n      dup4\n      dup3\n      swap1\n      0x00\n      mstore\n      keccak256(0x00, 0x20)\n      swap1\n      0x05\n      mul\n      add\n      mload(0x40)\n      dup1\n      0xa0\n      add\n      0x40\n      mstore\n      swap1\n      dup2\n      0x00\n      dup3\n      add\n      dup1\n      sload\n      tag_111\n      swap1\n      tag_71\n      jump\t// in\n    tag_111:\n      dup1\n      0x1f\n      add\n      0x20\n      dup1\n      swap2\n      div\n      mul\n      0x20\n      add\n      mload(0x40)\n      swap1\n      dup2\n      add\n      0x40\n      mstore\n      dup1\n      swap3\n      swap2\n      swap1\n      dup2\n      dup2\n      mstore\n      0x20\n      add\n      dup3\n      dup1\n      sload\n      tag_112\n      swap1\n      tag_71\n      jump\t// in\n    tag_112:\n      dup1\n      iszero\n      tag_113\n      jumpi\n      dup1\n      0x1f\n      lt\n      tag_114\n      jumpi\n      0x0100\n      dup1\n      dup4\n      sload\n      div\n      mul\n      dup4\n      mstore\n      swap2\n      0x20\n      add\n      swap2\n      jump(tag_113)\n    tag_114:\n      dup3\n      add\n      swap2\n      swap1\n      0x00\n      mstore\n      keccak256(0x00, 0x20)\n      swap1\n    tag_115:\n      dup2\n      sload\n      dup2\n      mstore\n      swap1\n      0x01\n      add\n      swap1\n      0x20\n      add\n      dup1\n      dup4\n      gt\n      tag_115\n      jumpi\n      dup3\n      swap1\n      sub\n      0x1f\n      and\n      dup3\n      add\n      swap2\n    tag_113:\n      pop\n      pop\n      pop\n      pop\n      pop\n      dup2\n      mstore\n      0x20\n      add\n      0x01\n      dup3\n      add\n      0x00\n      swap1\n      sload\n      swap1\n      0x0100\n      exp\n      swap1\n      div\n      0xffffffffffffffffffffffffffffffffffffffff\n      and\n      0xffffffffffffffffffffffffffffffffffffffff\n      and\n      0xffffffffffffffffffffffffffffffffffffffff\n      and\n      dup2\n      mstore\n      0x20\n      add\n      0x02\n      dup3\n      add\n      sload\n      dup2\n      mstore\n      0x20\n      add\n      0x03\n      dup3\n      add\n      0x00\n      swap1\n      sload\n      swap1\n      0x0100\n      exp\n      swap1\n      div\n      0xff\n      and\n      iszero\n      iszero\n      iszero\n      iszero\n      dup2\n      mstore\n      0x20\n      add\n      0x04\n      dup3\n      add\n      sload\n      dup2\n      mstore\n      pop\n      pop\n      dup2\n      mstore\n      0x20\n      add\n      swap1\n      0x01\n      add\n      swap1\n      jump(tag_108)\n    tag_109:\n      pop\n      pop\n      pop\n      pop\n      swap1\n      pop\n        /* \"library-system.sol\":4483:4589  function getBorrowedBooks() public view returns (Details[] memory) {... */\n      swap1\n      jump\t// out\n        /* \"library-system.sol\":783:2007  function borrowBook(string memory _title, uint256 _duration)... */\n    tag_51:\n        /* \"library-system.sol\":893:916  Student storage student */\n      0x00\n        /* \"library-system.sol\":919:937  registeredStudents */\n      0x04\n        /* \"library-system.sol\":919:949  registeredStudents[msg.sender] */\n      0x00\n        /* \"library-system.sol\":938:948  msg.sender */\n      caller\n        /* \"library-system.sol\":919:949  registeredStudents[msg.sender] */\n      0xffffffffffffffffffffffffffffffffffffffff\n      and\n      0xffffffffffffffffffffffffffffffffffffffff\n      and\n      dup2\n      mstore\n      0x20\n      add\n      swap1\n      dup2\n      mstore\n      0x20\n      add\n      0x00\n      keccak256\n        /* \"library-system.sol\":893:949  Student storage student = registeredStudents[msg.sender] */\n      swap1\n      pop\n        /* \"library-system.sol\":1013:1020  student */\n      dup1\n        /* \"library-system.sol\":1013:1032  student.outstanding */\n      0x00\n      add\n      0x14\n      swap1\n      sload\n      swap1\n      0x0100\n      exp\n      swap1\n      div\n      0xff\n      and\n        /* \"library-system.sol\":1012:1032  !student.outstanding */\n      iszero\n        /* \"library-system.sol\":1004:1072  require(!student.outstanding, \"Student has outstanding submissions\") */\n      tag_117\n      jumpi\n      mload(0x40)\n      0x08c379a000000000000000000000000000000000000000000000000000000000\n      dup2\n      mstore\n      0x04\n      add\n      tag_118\n      swap1\n      tag_119\n      jump\t// in\n    tag_118:\n      mload(0x40)\n      dup1\n      swap2\n      sub\n      swap1\n      revert\n    tag_117:\n        /* \"library-system.sol\":1103:1136  checkLateReturnsCount(msg.sender) */\n      tag_120\n        /* \"library-system.sol\":1125:1135  msg.sender */\n      caller\n        /* \"library-system.sol\":1103:1124  checkLateReturnsCount */\n      tag_24\n        /* \"library-system.sol\":1103:1136  checkLateReturnsCount(msg.sender) */\n      jump\t// in\n    tag_120:\n        /* \"library-system.sol\":1085:1092  student */\n      dup2\n        /* \"library-system.sol\":1085:1100  student.lateFee */\n      0x03\n      add\n        /* \"library-system.sol\":1085:1136  student.lateFee = checkLateReturnsCount(msg.sender) */\n      dup2\n      swap1\n      sstore\n      pop\n        /* \"library-system.sol\":1177:1184  student */\n      dup1\n        /* \"library-system.sol\":1177:1192  student.lateFee */\n      0x03\n      add\n      sload\n        /* \"library-system.sol\":1167:1174  deposit */\n      sload(0x05)\n        /* \"library-system.sol\":1167:1192  deposit + student.lateFee */\n      tag_121\n      swap2\n      swap1\n      tag_106\n      jump\t// in\n    tag_121:\n        /* \"library-system.sol\":1147:1154  student */\n      dup2\n        /* \"library-system.sol\":1147:1164  student.totalFees */\n      0x04\n      add\n        /* \"library-system.sol\":1147:1192  student.totalFees = deposit + student.lateFee */\n      dup2\n      swap1\n      sstore\n      pop\n        /* \"library-system.sol\":1246:1253  student */\n      dup1\n        /* \"library-system.sol\":1246:1263  student.totalFees */\n      0x04\n      add\n      sload\n        /* \"library-system.sol\":1225:1235  msg.sender */\n      caller\n        /* \"library-system.sol\":1225:1243  msg.sender.balance */\n      0xffffffffffffffffffffffffffffffffffffffff\n      and\n      balance\n        /* \"library-system.sol\":1225:1263  msg.sender.balance > student.totalFees */\n      gt\n        /* \"library-system.sol\":1203:1316  require(... */\n      tag_122\n      jumpi\n      mload(0x40)\n      0x08c379a000000000000000000000000000000000000000000000000000000000\n      dup2\n      mstore\n      0x04\n      add\n      tag_123\n      swap1\n      tag_124\n      jump\t// in\n    tag_123:\n      mload(0x40)\n      dup1\n      swap2\n      sub\n      swap1\n      revert\n    tag_122:\n        /* \"library-system.sol\":1329:1352  Details storage details */\n      0x00\n        /* \"library-system.sol\":1355:1363  borrowed */\n      0x01\n        /* \"library-system.sol\":1355:1375  borrowed[msg.sender] */\n      0x00\n        /* \"library-system.sol\":1364:1374  msg.sender */\n      caller\n        /* \"library-system.sol\":1355:1375  borrowed[msg.sender] */\n      0xffffffffffffffffffffffffffffffffffffffff\n      and\n      0xffffffffffffffffffffffffffffffffffffffff\n      and\n      dup2\n      mstore\n      0x20\n      add\n      swap1\n      dup2\n      mstore\n      0x20\n      add\n      0x00\n      keccak256\n        /* \"library-system.sol\":1329:1375  Details storage details = borrowed[msg.sender] */\n      swap1\n      pop\n        /* \"library-system.sol\":1402:1408  _title */\n      dup4\n        /* \"library-system.sol\":1386:1393  details */\n      dup2\n        /* \"library-system.sol\":1386:1399  details.title */\n      0x00\n      add\n        /* \"library-system.sol\":1386:1408  details.title = _title */\n      swap1\n      dup1\n      mload\n      swap1\n      0x20\n      add\n      swap1\n      tag_125\n      swap3\n      swap2\n      swap1\n      tag_126\n      jump\t// in\n    tag_125:\n      pop\n        /* \"library-system.sol\":1437:1447  msg.sender */\n      caller\n        /* \"library-system.sol\":1419:1426  details */\n      dup2\n        /* \"library-system.sol\":1419:1434  details.student */\n      0x01\n      add\n      0x00\n        /* \"library-system.sol\":1419:1447  details.student = msg.sender */\n      0x0100\n      exp\n      dup2\n      sload\n      dup2\n      0xffffffffffffffffffffffffffffffffffffffff\n      mul\n      not\n      and\n      swap1\n      dup4\n      0xffffffffffffffffffffffffffffffffffffffff\n      and\n      mul\n      or\n      swap1\n      sstore\n      pop\n        /* \"library-system.sol\":1491:1506  block.timestamp */\n      timestamp\n        /* \"library-system.sol\":1479:1488  _duration */\n      dup4\n        /* \"library-system.sol\":1479:1506  _duration + block.timestamp */\n      tag_127\n      swap2\n      swap1\n      tag_106\n      jump\t// in\n    tag_127:\n        /* \"library-system.sol\":1458:1465  details */\n      dup2\n        /* \"library-system.sol\":1458:1476  details.returnTime */\n      0x02\n      add\n        /* \"library-system.sol\":1458:1506  details.returnTime = _duration + block.timestamp */\n      dup2\n      swap1\n      sstore\n      pop\n        /* \"library-system.sol\":1536:1541  false */\n      0x00\n        /* \"library-system.sol\":1517:1524  details */\n      dup2\n        /* \"library-system.sol\":1517:1533  details.returned */\n      0x03\n      add\n      0x00\n        /* \"library-system.sol\":1517:1541  details.returned = false */\n      0x0100\n      exp\n      dup2\n      sload\n      dup2\n      0xff\n      mul\n      not\n      and\n      swap1\n      dup4\n      iszero\n      iszero\n      mul\n      or\n      swap1\n      sstore\n      pop\n        /* \"library-system.sol\":1572:1581  bookIndex */\n      sload(0x03)\n        /* \"library-system.sol\":1552:1559  details */\n      dup2\n        /* \"library-system.sol\":1552:1569  details.bookIndex */\n      0x04\n      add\n        /* \"library-system.sol\":1552:1581  details.bookIndex = bookIndex */\n      dup2\n      swap1\n      sstore\n      pop\n        /* \"library-system.sol\":1592:1605  borrowedBooks */\n      0x02\n        /* \"library-system.sol\":1611:1618  details */\n      dup2\n        /* \"library-system.sol\":1592:1619  borrowedBooks.push(details) */\n      swap1\n      dup1\n      0x01\n      dup2\n      sload\n      add\n      dup1\n      dup3\n      sstore\n      dup1\n      swap2\n      pop\n      pop\n      0x01\n      swap1\n      sub\n      swap1\n      0x00\n      mstore\n      keccak256(0x00, 0x20)\n      swap1\n      0x05\n      mul\n      add\n      0x00\n      swap1\n      swap2\n      swap1\n      swap2\n      swap1\n      swap2\n      pop\n      0x00\n      dup3\n      add\n      dup2\n      0x00\n      add\n      swap1\n      dup1\n      sload\n      tag_129\n      swap1\n      tag_71\n      jump\t// in\n    tag_129:\n      tag_130\n      swap3\n      swap2\n      swap1\n      tag_131\n      jump\t// in\n    tag_130:\n      pop\n      0x01\n      dup3\n      add\n      0x00\n      swap1\n      sload\n      swap1\n      0x0100\n      exp\n      swap1\n      div\n      0xffffffffffffffffffffffffffffffffffffffff\n      and\n      dup2\n      0x01\n      add\n      exp(0x0100, 0x00)\n      dup2\n      sload\n      dup2\n      0xffffffffffffffffffffffffffffffffffffffff\n      mul\n      not\n      and\n      swap1\n      dup4\n      0xffffffffffffffffffffffffffffffffffffffff\n      and\n      mul\n      or\n      swap1\n      sstore\n      pop\n      0x02\n      dup3\n      add\n      sload\n      dup2\n      0x02\n      add\n      sstore\n      0x03\n      dup3\n      add\n      0x00\n      swap1\n      sload\n      swap1\n      0x0100\n      exp\n      swap1\n      div\n      0xff\n      and\n      dup2\n      0x03\n      add\n      exp(0x0100, 0x00)\n      dup2\n      sload\n      dup2\n      0xff\n      mul\n      not\n      and\n      swap1\n      dup4\n      iszero\n      iszero\n      mul\n      or\n      swap1\n      sstore\n      pop\n      0x04\n      dup3\n      add\n      sload\n      dup2\n      0x04\n      add\n      sstore\n      pop\n      pop\n        /* \"library-system.sol\":1637:1644  student */\n      dup2\n        /* \"library-system.sol\":1637:1655  student.registered */\n      0x02\n      add\n      0x00\n      swap1\n      sload\n      swap1\n      0x0100\n      exp\n      swap1\n      div\n      0xff\n      and\n        /* \"library-system.sol\":1632:1780  if (!student.registered) {... */\n      tag_132\n      jumpi\n        /* \"library-system.sol\":1721:1725  true */\n      0x01\n        /* \"library-system.sol\":1700:1707  student */\n      dup3\n        /* \"library-system.sol\":1700:1718  student.registered */\n      0x02\n      add\n      0x00\n        /* \"library-system.sol\":1700:1725  student.registered = true */\n      0x0100\n      exp\n      dup2\n      sload\n      dup2\n      0xff\n      mul\n      not\n      and\n      swap1\n      dup4\n      iszero\n      iszero\n      mul\n      or\n      swap1\n      sstore\n      pop\n        /* \"library-system.sol\":1758:1768  msg.sender */\n      caller\n        /* \"library-system.sol\":1740:1747  student */\n      dup3\n        /* \"library-system.sol\":1740:1755  student.student */\n      0x00\n      add\n      0x00\n        /* \"library-system.sol\":1740:1768  student.student = msg.sender */\n      0x0100\n      exp\n      dup2\n      sload\n      dup2\n      0xffffffffffffffffffffffffffffffffffffffff\n      mul\n      not\n      and\n      swap1\n      dup4\n      0xffffffffffffffffffffffffffffffffffffffff\n      and\n      mul\n      or\n      swap1\n      sstore\n      pop\n        /* \"library-system.sol\":1632:1780  if (!student.registered) {... */\n    tag_132:\n        /* \"library-system.sol\":1895:1899  true */\n      0x01\n        /* \"library-system.sol\":1850:1868  registeredStudents */\n      0x04\n        /* \"library-system.sol\":1850:1880  registeredStudents[msg.sender] */\n      0x00\n        /* \"library-system.sol\":1869:1879  msg.sender */\n      caller\n        /* \"library-system.sol\":1850:1880  registeredStudents[msg.sender] */\n      0xffffffffffffffffffffffffffffffffffffffff\n      and\n      0xffffffffffffffffffffffffffffffffffffffff\n      and\n      dup2\n      mstore\n      0x20\n      add\n      swap1\n      dup2\n      mstore\n      0x20\n      add\n      0x00\n      keccak256\n        /* \"library-system.sol\":1850:1892  registeredStudents[msg.sender].outstanding */\n      0x00\n      add\n      0x14\n        /* \"library-system.sol\":1850:1899  registeredStudents[msg.sender].outstanding = true */\n      0x0100\n      exp\n      dup2\n      sload\n      dup2\n      0xff\n      mul\n      not\n      and\n      swap1\n      dup4\n      iszero\n      iszero\n      mul\n      or\n      swap1\n      sstore\n      pop\n        /* \"library-system.sol\":1958:1965  student */\n      dup2\n        /* \"library-system.sol\":1958:1975  student.totalFees */\n      0x04\n      add\n      sload\n        /* \"library-system.sol\":1935:1943  holdings */\n      0x00\n        /* \"library-system.sol\":1935:1955  holdings[msg.sender] */\n      dup1\n        /* \"library-system.sol\":1944:1954  msg.sender */\n      caller\n        /* \"library-system.sol\":1935:1955  holdings[msg.sender] */\n      0xffffffffffffffffffffffffffffffffffffffff\n      and\n      0xffffffffffffffffffffffffffffffffffffffff\n      and\n      dup2\n      mstore\n      0x20\n      add\n      swap1\n      dup2\n      mstore\n      0x20\n      add\n      0x00\n      keccak256\n      sload\n        /* \"library-system.sol\":1935:1975  holdings[msg.sender] + student.totalFees */\n      tag_133\n      swap2\n      swap1\n      tag_106\n      jump\t// in\n    tag_133:\n        /* \"library-system.sol\":1912:1920  holdings */\n      0x00\n        /* \"library-system.sol\":1912:1932  holdings[msg.sender] */\n      dup1\n        /* \"library-system.sol\":1921:1931  msg.sender */\n      caller\n        /* \"library-system.sol\":1912:1932  holdings[msg.sender] */\n      0xffffffffffffffffffffffffffffffffffffffff\n      and\n      0xffffffffffffffffffffffffffffffffffffffff\n      and\n      dup2\n      mstore\n      0x20\n      add\n      swap1\n      dup2\n      mstore\n      0x20\n      add\n      0x00\n      keccak256\n        /* \"library-system.sol\":1912:1975  holdings[msg.sender] = holdings[msg.sender] + student.totalFees */\n      dup2\n      swap1\n      sstore\n      pop\n        /* \"library-system.sol\":1988:1997  bookIndex */\n      0x03\n      0x00\n        /* \"library-system.sol\":1988:1999  bookIndex++ */\n      dup2\n      sload\n      dup1\n      swap3\n      swap2\n      swap1\n      tag_134\n      swap1\n      tag_135\n      jump\t// in\n    tag_134:\n      swap2\n      swap1\n      pop\n      sstore\n      pop\n        /* \"library-system.sol\":882:2007  {... */\n      pop\n      pop\n        /* \"library-system.sol\":783:2007  function borrowBook(string memory _title, uint256 _duration)... */\n      pop\n      pop\n      jump\t// out\n        /* \"library-system.sol\":590:614  uint256 public bookIndex */\n    tag_54:\n      sload(0x03)\n      dup2\n      jump\t// out\n        /* \"library-system.sol\":3282:4475  function validateReturn(... */\n    tag_60:\n        /* \"library-system.sol\":3460:3488  Details storage returnedBook */\n      0x00\n        /* \"library-system.sol\":3491:3499  borrowed */\n      0x01\n        /* \"library-system.sol\":3491:3509  borrowed[_student] */\n      0x00\n        /* \"library-system.sol\":3500:3508  _student */\n      dup4\n        /* \"library-system.sol\":3491:3509  borrowed[_student] */\n      0xffffffffffffffffffffffffffffffffffffffff\n      and\n      0xffffffffffffffffffffffffffffffffffffffff\n      and\n      dup2\n      mstore\n      0x20\n      add\n      swap1\n      dup2\n      mstore\n      0x20\n      add\n      0x00\n      keccak256\n        /* \"library-system.sol\":3460:3509  Details storage returnedBook = borrowed[_student] */\n      swap1\n      pop\n        /* \"library-system.sol\":3544:3554  _librarian */\n      dup4\n        /* \"library-system.sol\":3530:3554  msg.sender == _librarian */\n      0xffffffffffffffffffffffffffffffffffffffff\n      and\n        /* \"library-system.sol\":3530:3540  msg.sender */\n      caller\n        /* \"library-system.sol\":3530:3554  msg.sender == _librarian */\n      0xffffffffffffffffffffffffffffffffffffffff\n      and\n      eq\n        /* \"library-system.sol\":3522:3585  require(msg.sender == _librarian, \"librarian priviledges only\") */\n      tag_137\n      jumpi\n      mload(0x40)\n      0x08c379a000000000000000000000000000000000000000000000000000000000\n      dup2\n      mstore\n      0x04\n      add\n      tag_138\n      swap1\n      tag_139\n      jump\t// in\n    tag_138:\n      mload(0x40)\n      dup1\n      swap2\n      sub\n      swap1\n      revert\n    tag_137:\n        /* \"library-system.sol\":3604:3616  returnedBook */\n      dup1\n        /* \"library-system.sol\":3604:3625  returnedBook.returned */\n      0x03\n      add\n      0x00\n      swap1\n      sload\n      swap1\n      0x0100\n      exp\n      swap1\n      div\n      0xff\n      and\n        /* \"library-system.sol\":3596:3647  require(returnedBook.returned, \"Book not returned\") */\n      tag_140\n      jumpi\n      mload(0x40)\n      0x08c379a000000000000000000000000000000000000000000000000000000000\n      dup2\n      mstore\n      0x04\n      add\n      tag_141\n      swap1\n      tag_142\n      jump\t// in\n    tag_141:\n      mload(0x40)\n      dup1\n      swap2\n      sub\n      swap1\n      revert\n    tag_140:\n        /* \"library-system.sol\":3658:3682  Student storage borrower */\n      0x00\n        /* \"library-system.sol\":3685:3703  registeredStudents */\n      0x04\n        /* \"library-system.sol\":3685:3713  registeredStudents[_student] */\n      0x00\n        /* \"library-system.sol\":3704:3712  _student */\n      dup5\n        /* \"library-system.sol\":3685:3713  registeredStudents[_student] */\n      0xffffffffffffffffffffffffffffffffffffffff\n      and\n      0xffffffffffffffffffffffffffffffffffffffff\n      and\n      dup2\n      mstore\n      0x20\n      add\n      swap1\n      dup2\n      mstore\n      0x20\n      add\n      0x00\n      keccak256\n        /* \"library-system.sol\":3658:3713  Student storage borrower = registeredStudents[_student] */\n      swap1\n      pop\n        /* \"library-system.sol\":3730:3738  _approve */\n      dup4\n        /* \"library-system.sol\":3726:4468  if (_approve) {... */\n      iszero\n      tag_143\n      jumpi\n        /* \"library-system.sol\":3778:3783  false */\n      0x00\n        /* \"library-system.sol\":3755:3763  borrower */\n      dup2\n        /* \"library-system.sol\":3755:3775  borrower.outstanding */\n      0x00\n      add\n      0x14\n        /* \"library-system.sol\":3755:3783  borrower.outstanding = false */\n      0x0100\n      exp\n      dup2\n      sload\n      dup2\n      0xff\n      mul\n      not\n      and\n      swap1\n      dup4\n      iszero\n      iszero\n      mul\n      or\n      swap1\n      sstore\n      pop\n        /* \"library-system.sol\":3897:3905  _student */\n      dup3\n        /* \"library-system.sol\":3889:3915  payable(_student).transfer */\n      0xffffffffffffffffffffffffffffffffffffffff\n      and\n        /* \"library-system.sol\":3889:3935  payable(_student).transfer(holdings[_student]) */\n      0x08fc\n        /* \"library-system.sol\":3916:3924  holdings */\n      0x00\n        /* \"library-system.sol\":3916:3934  holdings[_student] */\n      dup1\n        /* \"library-system.sol\":3925:3933  _student */\n      dup7\n        /* \"library-system.sol\":3916:3934  holdings[_student] */\n      0xffffffffffffffffffffffffffffffffffffffff\n      and\n      0xffffffffffffffffffffffffffffffffffffffff\n      and\n      dup2\n      mstore\n      0x20\n      add\n      swap1\n      dup2\n      mstore\n      0x20\n      add\n      0x00\n      keccak256\n      sload\n        /* \"library-system.sol\":3889:3935  payable(_student).transfer(holdings[_student]) */\n      swap1\n      dup2\n      iszero\n      mul\n      swap1\n      mload(0x40)\n      0x00\n      mload(0x40)\n      dup1\n      dup4\n      sub\n      dup2\n      dup6\n      dup9\n      dup9\n      call\n      swap4\n      pop\n      pop\n      pop\n      pop\n      iszero\n      dup1\n      iszero\n      tag_145\n      jumpi\n      returndatasize\n      0x00\n      dup1\n      returndatacopy\n      revert(0x00, returndatasize)\n    tag_145:\n      pop\n        /* \"library-system.sol\":4031:4044  borrowedBooks */\n      0x02\n        /* \"library-system.sol\":4086:4087  1 */\n      0x01\n        /* \"library-system.sol\":4063:4076  borrowedBooks */\n      0x02\n        /* \"library-system.sol\":4063:4083  borrowedBooks.length */\n      dup1\n      sload\n      swap1\n      pop\n        /* \"library-system.sol\":4063:4087  borrowedBooks.length - 1 */\n      tag_146\n      swap2\n      swap1\n      tag_147\n      jump\t// in\n    tag_146:\n        /* \"library-system.sol\":4031:4102  borrowedBooks[... */\n      dup2\n      sload\n      dup2\n      lt\n      tag_148\n      jumpi\n      tag_149\n      tag_102\n      jump\t// in\n    tag_149:\n    tag_148:\n      swap1\n      0x00\n      mstore\n      keccak256(0x00, 0x20)\n      swap1\n      0x05\n      mul\n      add\n        /* \"library-system.sol\":3991:4004  borrowedBooks */\n      0x02\n        /* \"library-system.sol\":4005:4017  returnedBook */\n      dup4\n        /* \"library-system.sol\":4005:4027  returnedBook.bookIndex */\n      0x04\n      add\n      sload\n        /* \"library-system.sol\":3991:4028  borrowedBooks[returnedBook.bookIndex] */\n      dup2\n      sload\n      dup2\n      lt\n      tag_151\n      jumpi\n      tag_152\n      tag_102\n      jump\t// in\n    tag_152:\n    tag_151:\n      swap1\n      0x00\n      mstore\n      keccak256(0x00, 0x20)\n      swap1\n      0x05\n      mul\n      add\n        /* \"library-system.sol\":3991:4102  borrowedBooks[returnedBook.bookIndex] = borrowedBooks[... */\n      0x00\n      dup3\n      add\n      dup2\n      0x00\n      add\n      swap1\n      dup1\n      sload\n      tag_154\n      swap1\n      tag_71\n      jump\t// in\n    tag_154:\n      tag_155\n      swap3\n      swap2\n      swap1\n      tag_131\n      jump\t// in\n    tag_155:\n      pop\n      0x01\n      dup3\n      add\n      0x00\n      swap1\n      sload\n      swap1\n      0x0100\n      exp\n      swap1\n      div\n      0xffffffffffffffffffffffffffffffffffffffff\n      and\n      dup2\n      0x01\n      add\n      exp(0x0100, 0x00)\n      dup2\n      sload\n      dup2\n      0xffffffffffffffffffffffffffffffffffffffff\n      mul\n      not\n      and\n      swap1\n      dup4\n      0xffffffffffffffffffffffffffffffffffffffff\n      and\n      mul\n      or\n      swap1\n      sstore\n      pop\n      0x02\n      dup3\n      add\n      sload\n      dup2\n      0x02\n      add\n      sstore\n      0x03\n      dup3\n      add\n      0x00\n      swap1\n      sload\n      swap1\n      0x0100\n      exp\n      swap1\n      div\n      0xff\n      and\n      dup2\n      0x03\n      add\n      exp(0x0100, 0x00)\n      dup2\n      sload\n      dup2\n      0xff\n      mul\n      not\n      and\n      swap1\n      dup4\n      iszero\n      iszero\n      mul\n      or\n      swap1\n      sstore\n      pop\n      0x04\n      dup3\n      add\n      sload\n      dup2\n      0x04\n      add\n      sstore\n      swap1\n      pop\n      pop\n        /* \"library-system.sol\":4157:4170  borrowedBooks */\n      0x02\n        /* \"library-system.sol\":4157:4176  borrowedBooks.pop() */\n      dup1\n      sload\n      dup1\n      tag_156\n      jumpi\n      tag_157\n      tag_158\n      jump\t// in\n    tag_157:\n    tag_156:\n      0x01\n      swap1\n      sub\n      dup2\n      dup2\n      swap1\n      0x00\n      mstore\n      keccak256(0x00, 0x20)\n      swap1\n      0x05\n      mul\n      add\n      0x00\n      dup1\n      dup3\n      add\n      0x00\n      tag_160\n      swap2\n      swap1\n      tag_161\n      jump\t// in\n    tag_160:\n      0x01\n      dup3\n      add\n      exp(0x0100, 0x00)\n      dup2\n      sload\n      swap1\n      0xffffffffffffffffffffffffffffffffffffffff\n      mul\n      not\n      and\n      swap1\n      sstore\n      0x02\n      dup3\n      add\n      0x00\n      swap1\n      sstore\n      0x03\n      dup3\n      add\n      exp(0x0100, 0x00)\n      dup2\n      sload\n      swap1\n      0xff\n      mul\n      not\n      and\n      swap1\n      sstore\n      0x04\n      dup3\n      add\n      0x00\n      swap1\n      sstore\n      pop\n      pop\n      swap1\n      sstore\n        /* \"library-system.sol\":3726:4468  if (_approve) {... */\n      jump(tag_162)\n    tag_143:\n        /* \"library-system.sol\":4233:4238  false */\n      0x00\n        /* \"library-system.sol\":4209:4221  returnedBook */\n      dup3\n        /* \"library-system.sol\":4209:4230  returnedBook.returned */\n      0x03\n      add\n      0x00\n        /* \"library-system.sol\":4209:4238  returnedBook.returned = false */\n      0x0100\n      exp\n      dup2\n      sload\n      dup2\n      0xff\n      mul\n      not\n      and\n      swap1\n      dup4\n      iszero\n      iszero\n      mul\n      or\n      swap1\n      sstore\n      pop\n        /* \"library-system.sol\":4302:4307  false */\n      0x00\n        /* \"library-system.sol\":4253:4266  borrowedBooks */\n      0x02\n        /* \"library-system.sol\":4267:4279  returnedBook */\n      dup4\n        /* \"library-system.sol\":4267:4289  returnedBook.bookIndex */\n      0x04\n      add\n      sload\n        /* \"library-system.sol\":4253:4290  borrowedBooks[returnedBook.bookIndex] */\n      dup2\n      sload\n      dup2\n      lt\n      tag_163\n      jumpi\n      tag_164\n      tag_102\n      jump\t// in\n    tag_164:\n    tag_163:\n      swap1\n      0x00\n      mstore\n      keccak256(0x00, 0x20)\n      swap1\n      0x05\n      mul\n      add\n        /* \"library-system.sol\":4253:4299  borrowedBooks[returnedBook.bookIndex].returned */\n      0x03\n      add\n      0x00\n        /* \"library-system.sol\":4253:4307  borrowedBooks[returnedBook.bookIndex].returned = false */\n      0x0100\n      exp\n      dup2\n      sload\n      dup2\n      0xff\n      mul\n      not\n      and\n      swap1\n      dup4\n      iszero\n      iszero\n      mul\n      or\n      swap1\n      sstore\n      pop\n        /* \"library-system.sol\":4413:4414  1 */\n      0x01\n        /* \"library-system.sol\":4390:4398  borrower */\n      dup2\n        /* \"library-system.sol\":4390:4410  borrower.lateReturns */\n      0x01\n      add\n      sload\n        /* \"library-system.sol\":4390:4414  borrower.lateReturns + 1 */\n      tag_166\n      swap2\n      swap1\n      tag_106\n      jump\t// in\n    tag_166:\n        /* \"library-system.sol\":4367:4375  borrower */\n      dup2\n        /* \"library-system.sol\":4367:4387  borrower.lateReturns */\n      0x01\n      add\n        /* \"library-system.sol\":4367:4414  borrower.lateReturns = borrower.lateReturns + 1 */\n      dup2\n      swap1\n      sstore\n      pop\n        /* \"library-system.sol\":4452:4456  true */\n      0x01\n        /* \"library-system.sol\":4429:4437  borrower */\n      dup2\n        /* \"library-system.sol\":4429:4449  borrower.outstanding */\n      0x00\n      add\n      0x14\n        /* \"library-system.sol\":4429:4456  borrower.outstanding = true */\n      0x0100\n      exp\n      dup2\n      sload\n      dup2\n      0xff\n      mul\n      not\n      and\n      swap1\n      dup4\n      iszero\n      iszero\n      mul\n      or\n      swap1\n      sstore\n      pop\n        /* \"library-system.sol\":3726:4468  if (_approve) {... */\n    tag_162:\n        /* \"library-system.sol\":3400:4475  {... */\n      pop\n      pop\n        /* \"library-system.sol\":3282:4475  function validateReturn(... */\n      pop\n      pop\n      pop\n      jump\t// out\n        /* \"library-system.sol\":685:707  uint256 public deposit */\n    tag_63:\n      sload(0x05)\n      dup2\n      jump\t// out\n        /* \"library-system.sol\":451:494  mapping(address => uint256) public holdings */\n    tag_68:\n      mstore(0x20, 0x00)\n      dup1\n      0x00\n      mstore\n      keccak256(0x00, 0x40)\n      0x00\n      swap2\n      pop\n      swap1\n      pop\n      sload\n      dup2\n      jump\t// out\n    tag_126:\n      dup3\n      dup1\n      sload\n      tag_167\n      swap1\n      tag_71\n      jump\t// in\n    tag_167:\n      swap1\n      0x00\n      mstore\n      keccak256(0x00, 0x20)\n      swap1\n      0x1f\n      add\n      0x20\n      swap1\n      div\n      dup2\n      add\n      swap3\n      dup3\n      tag_169\n      jumpi\n      0x00\n      dup6\n      sstore\n      jump(tag_168)\n    tag_169:\n      dup3\n      0x1f\n      lt\n      tag_170\n      jumpi\n      dup1\n      mload\n      not(0xff)\n      and\n      dup4\n      dup1\n      add\n      or\n      dup6\n      sstore\n      jump(tag_168)\n    tag_170:\n      dup3\n      dup1\n      add\n      0x01\n      add\n      dup6\n      sstore\n      dup3\n      iszero\n      tag_168\n      jumpi\n      swap2\n      dup3\n      add\n    tag_171:\n      dup3\n      dup2\n      gt\n      iszero\n      tag_172\n      jumpi\n      dup3\n      mload\n      dup3\n      sstore\n      swap2\n      0x20\n      add\n      swap2\n      swap1\n      0x01\n      add\n      swap1\n      jump(tag_171)\n    tag_172:\n    tag_168:\n      pop\n      swap1\n      pop\n      tag_173\n      swap2\n      swap1\n      tag_174\n      jump\t// in\n    tag_173:\n      pop\n      swap1\n      jump\t// out\n    tag_131:\n      dup3\n      dup1\n      sload\n      tag_175\n      swap1\n      tag_71\n      jump\t// in\n    tag_175:\n      swap1\n      0x00\n      mstore\n      keccak256(0x00, 0x20)\n      swap1\n      0x1f\n      add\n      0x20\n      swap1\n      div\n      dup2\n      add\n      swap3\n      dup3\n      tag_177\n      jumpi\n      0x00\n      dup6\n      sstore\n      jump(tag_176)\n    tag_177:\n      dup3\n      0x1f\n      lt\n      tag_178\n      jumpi\n      dup1\n      sload\n      dup6\n      sstore\n      jump(tag_176)\n    tag_178:\n      dup3\n      dup1\n      add\n      0x01\n      add\n      dup6\n      sstore\n      dup3\n      iszero\n      tag_176\n      jumpi\n      0x00\n      mstore\n      keccak256(0x00, 0x20)\n      swap2\n      0x1f\n      add\n      0x20\n      swap1\n      div\n      dup3\n      add\n    tag_179:\n      dup3\n      dup2\n      gt\n      iszero\n      tag_180\n      jumpi\n      dup3\n      sload\n      dup3\n      sstore\n      swap2\n      0x01\n      add\n      swap2\n      swap1\n      0x01\n      add\n      swap1\n      jump(tag_179)\n    tag_180:\n    tag_176:\n      pop\n      swap1\n      pop\n      tag_181\n      swap2\n      swap1\n      tag_174\n      jump\t// in\n    tag_181:\n      pop\n      swap1\n      jump\t// out\n    tag_161:\n      pop\n      dup1\n      sload\n      tag_182\n      swap1\n      tag_71\n      jump\t// in\n    tag_182:\n      0x00\n      dup3\n      sstore\n      dup1\n      0x1f\n      lt\n      tag_184\n      jumpi\n      pop\n      jump(tag_183)\n    tag_184:\n      0x1f\n      add\n      0x20\n      swap1\n      div\n      swap1\n      0x00\n      mstore\n      keccak256(0x00, 0x20)\n      swap1\n      dup2\n      add\n      swap1\n      tag_185\n      swap2\n      swap1\n      tag_174\n      jump\t// in\n    tag_185:\n    tag_183:\n      pop\n      jump\t// out\n    tag_174:\n    tag_186:\n      dup1\n      dup3\n      gt\n      iszero\n      tag_187\n      jumpi\n      0x00\n      dup2\n      0x00\n      swap1\n      sstore\n      pop\n      0x01\n      add\n      jump(tag_186)\n    tag_187:\n      pop\n      swap1\n      jump\t// out\n        /* \"#utility.yul\":7:82   */\n    tag_188:\n        /* \"#utility.yul\":40:46   */\n      0x00\n        /* \"#utility.yul\":73:75   */\n      0x40\n        /* \"#utility.yul\":67:76   */\n      mload\n        /* \"#utility.yul\":57:76   */\n      swap1\n      pop\n        /* \"#utility.yul\":7:82   */\n      swap1\n      jump\t// out\n        /* \"#utility.yul\":88:205   */\n    tag_189:\n        /* \"#utility.yul\":197:198   */\n      0x00\n        /* \"#utility.yul\":194:195   */\n      dup1\n        /* \"#utility.yul\":187:199   */\n      revert\n        /* \"#utility.yul\":211:328   */\n    tag_190:\n        /* \"#utility.yul\":320:321   */\n      0x00\n        /* \"#utility.yul\":317:318   */\n      dup1\n        /* \"#utility.yul\":310:322   */\n      revert\n        /* \"#utility.yul\":334:460   */\n    tag_191:\n        /* \"#utility.yul\":371:378   */\n      0x00\n        /* \"#utility.yul\":411:453   */\n      0xffffffffffffffffffffffffffffffffffffffff\n        /* \"#utility.yul\":404:409   */\n      dup3\n        /* \"#utility.yul\":400:454   */\n      and\n        /* \"#utility.yul\":389:454   */\n      swap1\n      pop\n        /* \"#utility.yul\":334:460   */\n      swap2\n      swap1\n      pop\n      jump\t// out\n        /* \"#utility.yul\":466:562   */\n    tag_192:\n        /* \"#utility.yul\":503:510   */\n      0x00\n        /* \"#utility.yul\":532:556   */\n      tag_252\n        /* \"#utility.yul\":550:555   */\n      dup3\n        /* \"#utility.yul\":532:556   */\n      tag_191\n      jump\t// in\n    tag_252:\n        /* \"#utility.yul\":521:556   */\n      swap1\n      pop\n        /* \"#utility.yul\":466:562   */\n      swap2\n      swap1\n      pop\n      jump\t// out\n        /* \"#utility.yul\":568:690   */\n    tag_193:\n        /* \"#utility.yul\":641:665   */\n      tag_254\n        /* \"#utility.yul\":659:664   */\n      dup2\n        /* \"#utility.yul\":641:665   */\n      tag_192\n      jump\t// in\n    tag_254:\n        /* \"#utility.yul\":634:639   */\n      dup2\n        /* \"#utility.yul\":631:666   */\n      eq\n        /* \"#utility.yul\":621:684   */\n      tag_255\n      jumpi\n        /* \"#utility.yul\":680:681   */\n      0x00\n        /* \"#utility.yul\":677:678   */\n      dup1\n        /* \"#utility.yul\":670:682   */\n      revert\n        /* \"#utility.yul\":621:684   */\n    tag_255:\n        /* \"#utility.yul\":568:690   */\n      pop\n      jump\t// out\n        /* \"#utility.yul\":696:835   */\n    tag_194:\n        /* \"#utility.yul\":742:747   */\n      0x00\n        /* \"#utility.yul\":780:786   */\n      dup2\n        /* \"#utility.yul\":767:787   */\n      calldataload\n        /* \"#utility.yul\":758:787   */\n      swap1\n      pop\n        /* \"#utility.yul\":796:829   */\n      tag_257\n        /* \"#utility.yul\":823:828   */\n      dup2\n        /* \"#utility.yul\":796:829   */\n      tag_193\n      jump\t// in\n    tag_257:\n        /* \"#utility.yul\":696:835   */\n      swap3\n      swap2\n      pop\n      pop\n      jump\t// out\n        /* \"#utility.yul\":841:1170   */\n    tag_17:\n        /* \"#utility.yul\":900:906   */\n      0x00\n        /* \"#utility.yul\":949:951   */\n      0x20\n        /* \"#utility.yul\":937:946   */\n      dup3\n        /* \"#utility.yul\":928:935   */\n      dup5\n        /* \"#utility.yul\":924:947   */\n      sub\n        /* \"#utility.yul\":920:952   */\n      slt\n        /* \"#utility.yul\":917:1036   */\n      iszero\n      tag_259\n      jumpi\n        /* \"#utility.yul\":955:1034   */\n      tag_260\n      tag_189\n      jump\t// in\n    tag_260:\n        /* \"#utility.yul\":917:1036   */\n    tag_259:\n        /* \"#utility.yul\":1075:1076   */\n      0x00\n        /* \"#utility.yul\":1100:1153   */\n      tag_261\n        /* \"#utility.yul\":1145:1152   */\n      dup5\n        /* \"#utility.yul\":1136:1142   */\n      dup3\n        /* \"#utility.yul\":1125:1134   */\n      dup6\n        /* \"#utility.yul\":1121:1143   */\n      add\n        /* \"#utility.yul\":1100:1153   */\n      tag_194\n      jump\t// in\n    tag_261:\n        /* \"#utility.yul\":1090:1153   */\n      swap2\n      pop\n        /* \"#utility.yul\":1046:1163   */\n      pop\n        /* \"#utility.yul\":841:1170   */\n      swap3\n      swap2\n      pop\n      pop\n      jump\t// out\n        /* \"#utility.yul\":1176:1275   */\n    tag_195:\n        /* \"#utility.yul\":1228:1234   */\n      0x00\n        /* \"#utility.yul\":1262:1267   */\n      dup2\n        /* \"#utility.yul\":1256:1268   */\n      mload\n        /* \"#utility.yul\":1246:1268   */\n      swap1\n      pop\n        /* \"#utility.yul\":1176:1275   */\n      swap2\n      swap1\n      pop\n      jump\t// out\n        /* \"#utility.yul\":1281:1450   */\n    tag_196:\n        /* \"#utility.yul\":1365:1376   */\n      0x00\n        /* \"#utility.yul\":1399:1405   */\n      dup3\n        /* \"#utility.yul\":1394:1397   */\n      dup3\n        /* \"#utility.yul\":1387:1406   */\n      mstore\n        /* \"#utility.yul\":1439:1443   */\n      0x20\n        /* \"#utility.yul\":1434:1437   */\n      dup3\n        /* \"#utility.yul\":1430:1444   */\n      add\n        /* \"#utility.yul\":1415:1444   */\n      swap1\n      pop\n        /* \"#utility.yul\":1281:1450   */\n      swap3\n      swap2\n      pop\n      pop\n      jump\t// out\n        /* \"#utility.yul\":1456:1763   */\n    tag_197:\n        /* \"#utility.yul\":1524:1525   */\n      0x00\n        /* \"#utility.yul\":1534:1647   */\n    tag_265:\n        /* \"#utility.yul\":1548:1554   */\n      dup4\n        /* \"#utility.yul\":1545:1546   */\n      dup2\n        /* \"#utility.yul\":1542:1555   */\n      lt\n        /* \"#utility.yul\":1534:1647   */\n      iszero\n      tag_267\n      jumpi\n        /* \"#utility.yul\":1633:1634   */\n      dup1\n        /* \"#utility.yul\":1628:1631   */\n      dup3\n        /* \"#utility.yul\":1624:1635   */\n      add\n        /* \"#utility.yul\":1618:1636   */\n      mload\n        /* \"#utility.yul\":1614:1615   */\n      dup2\n        /* \"#utility.yul\":1609:1612   */\n      dup5\n        /* \"#utility.yul\":1605:1616   */\n      add\n        /* \"#utility.yul\":1598:1637   */\n      mstore\n        /* \"#utility.yul\":1570:1572   */\n      0x20\n        /* \"#utility.yul\":1567:1568   */\n      dup2\n        /* \"#utility.yul\":1563:1573   */\n      add\n        /* \"#utility.yul\":1558:1573   */\n      swap1\n      pop\n        /* \"#utility.yul\":1534:1647   */\n      jump(tag_265)\n    tag_267:\n        /* \"#utility.yul\":1665:1671   */\n      dup4\n        /* \"#utility.yul\":1662:1663   */\n      dup2\n        /* \"#utility.yul\":1659:1672   */\n      gt\n        /* \"#utility.yul\":1656:1757   */\n      iszero\n      tag_268\n      jumpi\n        /* \"#utility.yul\":1745:1746   */\n      0x00\n        /* \"#utility.yul\":1736:1742   */\n      dup5\n        /* \"#utility.yul\":1731:1734   */\n      dup5\n        /* \"#utility.yul\":1727:1743   */\n      add\n        /* \"#utility.yul\":1720:1747   */\n      mstore\n        /* \"#utility.yul\":1656:1757   */\n    tag_268:\n        /* \"#utility.yul\":1505:1763   */\n      pop\n        /* \"#utility.yul\":1456:1763   */\n      pop\n      pop\n      pop\n      jump\t// out\n        /* \"#utility.yul\":1769:1871   */\n    tag_198:\n        /* \"#utility.yul\":1810:1816   */\n      0x00\n        /* \"#utility.yul\":1861:1863   */\n      0x1f\n        /* \"#utility.yul\":1857:1864   */\n      not\n        /* \"#utility.yul\":1852:1854   */\n      0x1f\n        /* \"#utility.yul\":1845:1850   */\n      dup4\n        /* \"#utility.yul\":1841:1855   */\n      add\n        /* \"#utility.yul\":1837:1865   */\n      and\n        /* \"#utility.yul\":1827:1865   */\n      swap1\n      pop\n        /* \"#utility.yul\":1769:1871   */\n      swap2\n      swap1\n      pop\n      jump\t// out\n        /* \"#utility.yul\":1877:2241   */\n    tag_199:\n        /* \"#utility.yul\":1965:1968   */\n      0x00\n        /* \"#utility.yul\":1993:2032   */\n      tag_271\n        /* \"#utility.yul\":2026:2031   */\n      dup3\n        /* \"#utility.yul\":1993:2032   */\n      tag_195\n      jump\t// in\n    tag_271:\n        /* \"#utility.yul\":2048:2119   */\n      tag_272\n        /* \"#utility.yul\":2112:2118   */\n      dup2\n        /* \"#utility.yul\":2107:2110   */\n      dup6\n        /* \"#utility.yul\":2048:2119   */\n      tag_196\n      jump\t// in\n    tag_272:\n        /* \"#utility.yul\":2041:2119   */\n      swap4\n      pop\n        /* \"#utility.yul\":2128:2180   */\n      tag_273\n        /* \"#utility.yul\":2173:2179   */\n      dup2\n        /* \"#utility.yul\":2168:2171   */\n      dup6\n        /* \"#utility.yul\":2161:2165   */\n      0x20\n        /* \"#utility.yul\":2154:2159   */\n      dup7\n        /* \"#utility.yul\":2150:2166   */\n      add\n        /* \"#utility.yul\":2128:2180   */\n      tag_197\n      jump\t// in\n    tag_273:\n        /* \"#utility.yul\":2205:2234   */\n      tag_274\n        /* \"#utility.yul\":2227:2233   */\n      dup2\n        /* \"#utility.yul\":2205:2234   */\n      tag_198\n      jump\t// in\n    tag_274:\n        /* \"#utility.yul\":2200:2203   */\n      dup5\n        /* \"#utility.yul\":2196:2235   */\n      add\n        /* \"#utility.yul\":2189:2235   */\n      swap2\n      pop\n        /* \"#utility.yul\":1969:2241   */\n      pop\n        /* \"#utility.yul\":1877:2241   */\n      swap3\n      swap2\n      pop\n      pop\n      jump\t// out\n        /* \"#utility.yul\":2247:2365   */\n    tag_200:\n        /* \"#utility.yul\":2334:2358   */\n      tag_276\n        /* \"#utility.yul\":2352:2357   */\n      dup2\n        /* \"#utility.yul\":2334:2358   */\n      tag_192\n      jump\t// in\n    tag_276:\n        /* \"#utility.yul\":2329:2332   */\n      dup3\n        /* \"#utility.yul\":2322:2359   */\n      mstore\n        /* \"#utility.yul\":2247:2365   */\n      pop\n      pop\n      jump\t// out\n        /* \"#utility.yul\":2371:2448   */\n    tag_201:\n        /* \"#utility.yul\":2408:2415   */\n      0x00\n        /* \"#utility.yul\":2437:2442   */\n      dup2\n        /* \"#utility.yul\":2426:2442   */\n      swap1\n      pop\n        /* \"#utility.yul\":2371:2448   */\n      swap2\n      swap1\n      pop\n      jump\t// out\n        /* \"#utility.yul\":2454:2572   */\n    tag_202:\n        /* \"#utility.yul\":2541:2565   */\n      tag_279\n        /* \"#utility.yul\":2559:2564   */\n      dup2\n        /* \"#utility.yul\":2541:2565   */\n      tag_201\n      jump\t// in\n    tag_279:\n        /* \"#utility.yul\":2536:2539   */\n      dup3\n        /* \"#utility.yul\":2529:2566   */\n      mstore\n        /* \"#utility.yul\":2454:2572   */\n      pop\n      pop\n      jump\t// out\n        /* \"#utility.yul\":2578:2668   */\n    tag_203:\n        /* \"#utility.yul\":2612:2619   */\n      0x00\n        /* \"#utility.yul\":2655:2660   */\n      dup2\n        /* \"#utility.yul\":2648:2661   */\n      iszero\n        /* \"#utility.yul\":2641:2662   */\n      iszero\n        /* \"#utility.yul\":2630:2662   */\n      swap1\n      pop\n        /* \"#utility.yul\":2578:2668   */\n      swap2\n      swap1\n      pop\n      jump\t// out\n        /* \"#utility.yul\":2674:2783   */\n    tag_204:\n        /* \"#utility.yul\":2755:2776   */\n      tag_282\n        /* \"#utility.yul\":2770:2775   */\n      dup2\n        /* \"#utility.yul\":2755:2776   */\n      tag_203\n      jump\t// in\n    tag_282:\n        /* \"#utility.yul\":2750:2753   */\n      dup3\n        /* \"#utility.yul\":2743:2777   */\n      mstore\n        /* \"#utility.yul\":2674:2783   */\n      pop\n      pop\n      jump\t// out\n        /* \"#utility.yul\":2789:3532   */\n    tag_20:\n        /* \"#utility.yul\":3008:3012   */\n      0x00\n        /* \"#utility.yul\":3046:3049   */\n      0xa0\n        /* \"#utility.yul\":3035:3044   */\n      dup3\n        /* \"#utility.yul\":3031:3050   */\n      add\n        /* \"#utility.yul\":3023:3050   */\n      swap1\n      pop\n        /* \"#utility.yul\":3096:3105   */\n      dup2\n        /* \"#utility.yul\":3090:3094   */\n      dup2\n        /* \"#utility.yul\":3086:3106   */\n      sub\n        /* \"#utility.yul\":3082:3083   */\n      0x00\n        /* \"#utility.yul\":3071:3080   */\n      dup4\n        /* \"#utility.yul\":3067:3084   */\n      add\n        /* \"#utility.yul\":3060:3107   */\n      mstore\n        /* \"#utility.yul\":3124:3202   */\n      tag_284\n        /* \"#utility.yul\":3197:3201   */\n      dup2\n        /* \"#utility.yul\":3188:3194   */\n      dup9\n        /* \"#utility.yul\":3124:3202   */\n      tag_199\n      jump\t// in\n    tag_284:\n        /* \"#utility.yul\":3116:3202   */\n      swap1\n      pop\n        /* \"#utility.yul\":3212:3284   */\n      tag_285\n        /* \"#utility.yul\":3280:3282   */\n      0x20\n        /* \"#utility.yul\":3269:3278   */\n      dup4\n        /* \"#utility.yul\":3265:3283   */\n      add\n        /* \"#utility.yul\":3256:3262   */\n      dup8\n        /* \"#utility.yul\":3212:3284   */\n      tag_200\n      jump\t// in\n    tag_285:\n        /* \"#utility.yul\":3294:3366   */\n      tag_286\n        /* \"#utility.yul\":3362:3364   */\n      0x40\n        /* \"#utility.yul\":3351:3360   */\n      dup4\n        /* \"#utility.yul\":3347:3365   */\n      add\n        /* \"#utility.yul\":3338:3344   */\n      dup7\n        /* \"#utility.yul\":3294:3366   */\n      tag_202\n      jump\t// in\n    tag_286:\n        /* \"#utility.yul\":3376:3442   */\n      tag_287\n        /* \"#utility.yul\":3438:3440   */\n      0x60\n        /* \"#utility.yul\":3427:3436   */\n      dup4\n        /* \"#utility.yul\":3423:3441   */\n      add\n        /* \"#utility.yul\":3414:3420   */\n      dup6\n        /* \"#utility.yul\":3376:3442   */\n      tag_204\n      jump\t// in\n    tag_287:\n        /* \"#utility.yul\":3452:3525   */\n      tag_288\n        /* \"#utility.yul\":3520:3523   */\n      0x80\n        /* \"#utility.yul\":3509:3518   */\n      dup4\n        /* \"#utility.yul\":3505:3524   */\n      add\n        /* \"#utility.yul\":3496:3502   */\n      dup5\n        /* \"#utility.yul\":3452:3525   */\n      tag_202\n      jump\t// in\n    tag_288:\n        /* \"#utility.yul\":2789:3532   */\n      swap7\n      swap6\n      pop\n      pop\n      pop\n      pop\n      pop\n      pop\n      jump\t// out\n        /* \"#utility.yul\":3538:3760   */\n    tag_26:\n        /* \"#utility.yul\":3631:3635   */\n      0x00\n        /* \"#utility.yul\":3669:3671   */\n      0x20\n        /* \"#utility.yul\":3658:3667   */\n      dup3\n        /* \"#utility.yul\":3654:3672   */\n      add\n        /* \"#utility.yul\":3646:3672   */\n      swap1\n      pop\n        /* \"#utility.yul\":3682:3753   */\n      tag_290\n        /* \"#utility.yul\":3750:3751   */\n      0x00\n        /* \"#utility.yul\":3739:3748   */\n      dup4\n        /* \"#utility.yul\":3735:3752   */\n      add\n        /* \"#utility.yul\":3726:3732   */\n      dup5\n        /* \"#utility.yul\":3682:3753   */\n      tag_202\n      jump\t// in\n    tag_290:\n        /* \"#utility.yul\":3538:3760   */\n      swap3\n      swap2\n      pop\n      pop\n      jump\t// out\n        /* \"#utility.yul\":3766:3888   */\n    tag_205:\n        /* \"#utility.yul\":3839:3863   */\n      tag_292\n        /* \"#utility.yul\":3857:3862   */\n      dup2\n        /* \"#utility.yul\":3839:3863   */\n      tag_201\n      jump\t// in\n    tag_292:\n        /* \"#utility.yul\":3832:3837   */\n      dup2\n        /* \"#utility.yul\":3829:3864   */\n      eq\n        /* \"#utility.yul\":3819:3882   */\n      tag_293\n      jumpi\n        /* \"#utility.yul\":3878:3879   */\n      0x00\n        /* \"#utility.yul\":3875:3876   */\n      dup1\n        /* \"#utility.yul\":3868:3880   */\n      revert\n        /* \"#utility.yul\":3819:3882   */\n    tag_293:\n        /* \"#utility.yul\":3766:3888   */\n      pop\n      jump\t// out\n        /* \"#utility.yul\":3894:4033   */\n    tag_206:\n        /* \"#utility.yul\":3940:3945   */\n      0x00\n        /* \"#utility.yul\":3978:3984   */\n      dup2\n        /* \"#utility.yul\":3965:3985   */\n      calldataload\n        /* \"#utility.yul\":3956:3985   */\n      swap1\n      pop\n        /* \"#utility.yul\":3994:4027   */\n      tag_295\n        /* \"#utility.yul\":4021:4026   */\n      dup2\n        /* \"#utility.yul\":3994:4027   */\n      tag_205\n      jump\t// in\n    tag_295:\n        /* \"#utility.yul\":3894:4033   */\n      swap3\n      swap2\n      pop\n      pop\n      jump\t// out\n        /* \"#utility.yul\":4039:4368   */\n    tag_30:\n        /* \"#utility.yul\":4098:4104   */\n      0x00\n        /* \"#utility.yul\":4147:4149   */\n      0x20\n        /* \"#utility.yul\":4135:4144   */\n      dup3\n        /* \"#utility.yul\":4126:4133   */\n      dup5\n        /* \"#utility.yul\":4122:4145   */\n      sub\n        /* \"#utility.yul\":4118:4150   */\n      slt\n        /* \"#utility.yul\":4115:4234   */\n      iszero\n      tag_297\n      jumpi\n        /* \"#utility.yul\":4153:4232   */\n      tag_298\n      tag_189\n      jump\t// in\n    tag_298:\n        /* \"#utility.yul\":4115:4234   */\n    tag_297:\n        /* \"#utility.yul\":4273:4274   */\n      0x00\n        /* \"#utility.yul\":4298:4351   */\n      tag_299\n        /* \"#utility.yul\":4343:4350   */\n      dup5\n        /* \"#utility.yul\":4334:4340   */\n      dup3\n        /* \"#utility.yul\":4323:4332   */\n      dup6\n        /* \"#utility.yul\":4319:4341   */\n      add\n        /* \"#utility.yul\":4298:4351   */\n      tag_206\n      jump\t// in\n    tag_299:\n        /* \"#utility.yul\":4288:4351   */\n      swap2\n      pop\n        /* \"#utility.yul\":4244:4361   */\n      pop\n        /* \"#utility.yul\":4039:4368   */\n      swap3\n      swap2\n      pop\n      pop\n      jump\t// out\n        /* \"#utility.yul\":4374:5125   */\n    tag_42:\n        /* \"#utility.yul\":4595:4599   */\n      0x00\n        /* \"#utility.yul\":4633:4636   */\n      0xc0\n        /* \"#utility.yul\":4622:4631   */\n      dup3\n        /* \"#utility.yul\":4618:4637   */\n      add\n        /* \"#utility.yul\":4610:4637   */\n      swap1\n      pop\n        /* \"#utility.yul\":4647:4718   */\n      tag_301\n        /* \"#utility.yul\":4715:4716   */\n      0x00\n        /* \"#utility.yul\":4704:4713   */\n      dup4\n        /* \"#utility.yul\":4700:4717   */\n      add\n        /* \"#utility.yul\":4691:4697   */\n      dup10\n        /* \"#utility.yul\":4647:4718   */\n      tag_200\n      jump\t// in\n    tag_301:\n        /* \"#utility.yul\":4728:4794   */\n      tag_302\n        /* \"#utility.yul\":4790:4792   */\n      0x20\n        /* \"#utility.yul\":4779:4788   */\n      dup4\n        /* \"#utility.yul\":4775:4793   */\n      add\n        /* \"#utility.yul\":4766:4772   */\n      dup9\n        /* \"#utility.yul\":4728:4794   */\n      tag_204\n      jump\t// in\n    tag_302:\n        /* \"#utility.yul\":4804:4876   */\n      tag_303\n        /* \"#utility.yul\":4872:4874   */\n      0x40\n        /* \"#utility.yul\":4861:4870   */\n      dup4\n        /* \"#utility.yul\":4857:4875   */\n      add\n        /* \"#utility.yul\":4848:4854   */\n      dup8\n        /* \"#utility.yul\":4804:4876   */\n      tag_202\n      jump\t// in\n    tag_303:\n        /* \"#utility.yul\":4886:4952   */\n      tag_304\n        /* \"#utility.yul\":4948:4950   */\n      0x60\n        /* \"#utility.yul\":4937:4946   */\n      dup4\n        /* \"#utility.yul\":4933:4951   */\n      add\n        /* \"#utility.yul\":4924:4930   */\n      dup7\n        /* \"#utility.yul\":4886:4952   */\n      tag_204\n      jump\t// in\n    tag_304:\n        /* \"#utility.yul\":4962:5035   */\n      tag_305\n        /* \"#utility.yul\":5030:5033   */\n      0x80\n        /* \"#utility.yul\":5019:5028   */\n      dup4\n        /* \"#utility.yul\":5015:5034   */\n      add\n        /* \"#utility.yul\":5006:5012   */\n      dup6\n        /* \"#utility.yul\":4962:5035   */\n      tag_202\n      jump\t// in\n    tag_305:\n        /* \"#utility.yul\":5045:5118   */\n      tag_306\n        /* \"#utility.yul\":5113:5116   */\n      0xa0\n        /* \"#utility.yul\":5102:5111   */\n      dup4\n        /* \"#utility.yul\":5098:5117   */\n      add\n        /* \"#utility.yul\":5089:5095   */\n      dup5\n        /* \"#utility.yul\":5045:5118   */\n      tag_202\n      jump\t// in\n    tag_306:\n        /* \"#utility.yul\":4374:5125   */\n      swap8\n      swap7\n      pop\n      pop\n      pop\n      pop\n      pop\n      pop\n      pop\n      jump\t// out\n        /* \"#utility.yul\":5131:5268   */\n    tag_207:\n        /* \"#utility.yul\":5221:5227   */\n      0x00\n        /* \"#utility.yul\":5255:5260   */\n      dup2\n        /* \"#utility.yul\":5249:5261   */\n      mload\n        /* \"#utility.yul\":5239:5261   */\n      swap1\n      pop\n        /* \"#utility.yul\":5131:5268   */\n      swap2\n      swap1\n      pop\n      jump\t// out\n        /* \"#utility.yul\":5274:5481   */\n    tag_208:\n        /* \"#utility.yul\":5396:5407   */\n      0x00\n        /* \"#utility.yul\":5430:5436   */\n      dup3\n        /* \"#utility.yul\":5425:5428   */\n      dup3\n        /* \"#utility.yul\":5418:5437   */\n      mstore\n        /* \"#utility.yul\":5470:5474   */\n      0x20\n        /* \"#utility.yul\":5465:5468   */\n      dup3\n        /* \"#utility.yul\":5461:5475   */\n      add\n        /* \"#utility.yul\":5446:5475   */\n      swap1\n      pop\n        /* \"#utility.yul\":5274:5481   */\n      swap3\n      swap2\n      pop\n      pop\n      jump\t// out\n        /* \"#utility.yul\":5487:5642   */\n    tag_209:\n        /* \"#utility.yul\":5577:5581   */\n      0x00\n        /* \"#utility.yul\":5600:5603   */\n      dup2\n        /* \"#utility.yul\":5592:5603   */\n      swap1\n      pop\n        /* \"#utility.yul\":5630:5634   */\n      0x20\n        /* \"#utility.yul\":5625:5628   */\n      dup3\n        /* \"#utility.yul\":5621:5635   */\n      add\n        /* \"#utility.yul\":5613:5635   */\n      swap1\n      pop\n        /* \"#utility.yul\":5487:5642   */\n      swap2\n      swap1\n      pop\n      jump\t// out\n        /* \"#utility.yul\":5648:5807   */\n    tag_210:\n        /* \"#utility.yul\":5722:5733   */\n      0x00\n        /* \"#utility.yul\":5756:5762   */\n      dup3\n        /* \"#utility.yul\":5751:5754   */\n      dup3\n        /* \"#utility.yul\":5744:5763   */\n      mstore\n        /* \"#utility.yul\":5796:5800   */\n      0x20\n        /* \"#utility.yul\":5791:5794   */\n      dup3\n        /* \"#utility.yul\":5787:5801   */\n      add\n        /* \"#utility.yul\":5772:5801   */\n      swap1\n      pop\n        /* \"#utility.yul\":5648:5807   */\n      swap3\n      swap2\n      pop\n      pop\n      jump\t// out\n        /* \"#utility.yul\":5813:6157   */\n    tag_211:\n        /* \"#utility.yul\":5891:5894   */\n      0x00\n        /* \"#utility.yul\":5919:5958   */\n      tag_312\n        /* \"#utility.yul\":5952:5957   */\n      dup3\n        /* \"#utility.yul\":5919:5958   */\n      tag_195\n      jump\t// in\n    tag_312:\n        /* \"#utility.yul\":5974:6035   */\n      tag_313\n        /* \"#utility.yul\":6028:6034   */\n      dup2\n        /* \"#utility.yul\":6023:6026   */\n      dup6\n        /* \"#utility.yul\":5974:6035   */\n      tag_210\n      jump\t// in\n    tag_313:\n        /* \"#utility.yul\":5967:6035   */\n      swap4\n      pop\n        /* \"#utility.yul\":6044:6096   */\n      tag_314\n        /* \"#utility.yul\":6089:6095   */\n      dup2\n        /* \"#utility.yul\":6084:6087   */\n      dup6\n        /* \"#utility.yul\":6077:6081   */\n      0x20\n        /* \"#utility.yul\":6070:6075   */\n      dup7\n        /* \"#utility.yul\":6066:6082   */\n      add\n        /* \"#utility.yul\":6044:6096   */\n      tag_197\n      jump\t// in\n    tag_314:\n        /* \"#utility.yul\":6121:6150   */\n      tag_315\n        /* \"#utility.yul\":6143:6149   */\n      dup2\n        /* \"#utility.yul\":6121:6150   */\n      tag_198\n      jump\t// in\n    tag_315:\n        /* \"#utility.yul\":6116:6119   */\n      dup5\n        /* \"#utility.yul\":6112:6151   */\n      add\n        /* \"#utility.yul\":6105:6151   */\n      swap2\n      pop\n        /* \"#utility.yul\":5895:6157   */\n      pop\n        /* \"#utility.yul\":5813:6157   */\n      swap3\n      swap2\n      pop\n      pop\n      jump\t// out\n        /* \"#utility.yul\":6163:6271   */\n    tag_212:\n        /* \"#utility.yul\":6240:6264   */\n      tag_317\n        /* \"#utility.yul\":6258:6263   */\n      dup2\n        /* \"#utility.yul\":6240:6264   */\n      tag_192\n      jump\t// in\n    tag_317:\n        /* \"#utility.yul\":6235:6238   */\n      dup3\n        /* \"#utility.yul\":6228:6265   */\n      mstore\n        /* \"#utility.yul\":6163:6271   */\n      pop\n      pop\n      jump\t// out\n        /* \"#utility.yul\":6277:6385   */\n    tag_213:\n        /* \"#utility.yul\":6354:6378   */\n      tag_319\n        /* \"#utility.yul\":6372:6377   */\n      dup2\n        /* \"#utility.yul\":6354:6378   */\n      tag_201\n      jump\t// in\n    tag_319:\n        /* \"#utility.yul\":6349:6352   */\n      dup3\n        /* \"#utility.yul\":6342:6379   */\n      mstore\n        /* \"#utility.yul\":6277:6385   */\n      pop\n      pop\n      jump\t// out\n        /* \"#utility.yul\":6391:6490   */\n    tag_214:\n        /* \"#utility.yul\":6462:6483   */\n      tag_321\n        /* \"#utility.yul\":6477:6482   */\n      dup2\n        /* \"#utility.yul\":6462:6483   */\n      tag_203\n      jump\t// in\n    tag_321:\n        /* \"#utility.yul\":6457:6460   */\n      dup3\n        /* \"#utility.yul\":6450:6484   */\n      mstore\n        /* \"#utility.yul\":6391:6490   */\n      pop\n      pop\n      jump\t// out\n        /* \"#utility.yul\":6564:7691   */\n    tag_215:\n        /* \"#utility.yul\":6669:6672   */\n      0x00\n        /* \"#utility.yul\":6705:6709   */\n      0xa0\n        /* \"#utility.yul\":6700:6703   */\n      dup4\n        /* \"#utility.yul\":6696:6710   */\n      add\n        /* \"#utility.yul\":6793:6797   */\n      0x00\n        /* \"#utility.yul\":6786:6791   */\n      dup4\n        /* \"#utility.yul\":6782:6798   */\n      add\n        /* \"#utility.yul\":6776:6799   */\n      mload\n        /* \"#utility.yul\":6846:6849   */\n      dup5\n        /* \"#utility.yul\":6840:6844   */\n      dup3\n        /* \"#utility.yul\":6836:6850   */\n      sub\n        /* \"#utility.yul\":6829:6833   */\n      0x00\n        /* \"#utility.yul\":6824:6827   */\n      dup7\n        /* \"#utility.yul\":6820:6834   */\n      add\n        /* \"#utility.yul\":6813:6851   */\n      mstore\n        /* \"#utility.yul\":6872:6945   */\n      tag_323\n        /* \"#utility.yul\":6940:6944   */\n      dup3\n        /* \"#utility.yul\":6926:6938   */\n      dup3\n        /* \"#utility.yul\":6872:6945   */\n      tag_211\n      jump\t// in\n    tag_323:\n        /* \"#utility.yul\":6864:6945   */\n      swap2\n      pop\n        /* \"#utility.yul\":6720:6956   */\n      pop\n        /* \"#utility.yul\":7041:7045   */\n      0x20\n        /* \"#utility.yul\":7034:7039   */\n      dup4\n        /* \"#utility.yul\":7030:7046   */\n      add\n        /* \"#utility.yul\":7024:7047   */\n      mload\n        /* \"#utility.yul\":7060:7123   */\n      tag_324\n        /* \"#utility.yul\":7117:7121   */\n      0x20\n        /* \"#utility.yul\":7112:7115   */\n      dup7\n        /* \"#utility.yul\":7108:7122   */\n      add\n        /* \"#utility.yul\":7094:7106   */\n      dup3\n        /* \"#utility.yul\":7060:7123   */\n      tag_212\n      jump\t// in\n    tag_324:\n        /* \"#utility.yul\":6966:7133   */\n      pop\n        /* \"#utility.yul\":7221:7225   */\n      0x40\n        /* \"#utility.yul\":7214:7219   */\n      dup4\n        /* \"#utility.yul\":7210:7226   */\n      add\n        /* \"#utility.yul\":7204:7227   */\n      mload\n        /* \"#utility.yul\":7240:7303   */\n      tag_325\n        /* \"#utility.yul\":7297:7301   */\n      0x40\n        /* \"#utility.yul\":7292:7295   */\n      dup7\n        /* \"#utility.yul\":7288:7302   */\n      add\n        /* \"#utility.yul\":7274:7286   */\n      dup3\n        /* \"#utility.yul\":7240:7303   */\n      tag_213\n      jump\t// in\n    tag_325:\n        /* \"#utility.yul\":7143:7313   */\n      pop\n        /* \"#utility.yul\":7399:7403   */\n      0x60\n        /* \"#utility.yul\":7392:7397   */\n      dup4\n        /* \"#utility.yul\":7388:7404   */\n      add\n        /* \"#utility.yul\":7382:7405   */\n      mload\n        /* \"#utility.yul\":7418:7475   */\n      tag_326\n        /* \"#utility.yul\":7469:7473   */\n      0x60\n        /* \"#utility.yul\":7464:7467   */\n      dup7\n        /* \"#utility.yul\":7460:7474   */\n      add\n        /* \"#utility.yul\":7446:7458   */\n      dup3\n        /* \"#utility.yul\":7418:7475   */\n      tag_214\n      jump\t// in\n    tag_326:\n        /* \"#utility.yul\":7323:7485   */\n      pop\n        /* \"#utility.yul\":7572:7576   */\n      0x80\n        /* \"#utility.yul\":7565:7570   */\n      dup4\n        /* \"#utility.yul\":7561:7577   */\n      add\n        /* \"#utility.yul\":7555:7578   */\n      mload\n        /* \"#utility.yul\":7591:7654   */\n      tag_327\n        /* \"#utility.yul\":7648:7652   */\n      0x80\n        /* \"#utility.yul\":7643:7646   */\n      dup7\n        /* \"#utility.yul\":7639:7653   */\n      add\n        /* \"#utility.yul\":7625:7637   */\n      dup3\n        /* \"#utility.yul\":7591:7654   */\n      tag_213\n      jump\t// in\n    tag_327:\n        /* \"#utility.yul\":7495:7664   */\n      pop\n        /* \"#utility.yul\":7681:7685   */\n      dup1\n        /* \"#utility.yul\":7674:7685   */\n      swap2\n      pop\n        /* \"#utility.yul\":6674:7691   */\n      pop\n        /* \"#utility.yul\":6564:7691   */\n      swap3\n      swap2\n      pop\n      pop\n      jump\t// out\n        /* \"#utility.yul\":7697:7945   */\n    tag_216:\n        /* \"#utility.yul\":7812:7822   */\n      0x00\n        /* \"#utility.yul\":7847:7939   */\n      tag_329\n        /* \"#utility.yul\":7935:7938   */\n      dup4\n        /* \"#utility.yul\":7927:7933   */\n      dup4\n        /* \"#utility.yul\":7847:7939   */\n      tag_215\n      jump\t// in\n    tag_329:\n        /* \"#utility.yul\":7833:7939   */\n      swap1\n      pop\n        /* \"#utility.yul\":7697:7945   */\n      swap3\n      swap2\n      pop\n      pop\n      jump\t// out\n        /* \"#utility.yul\":7951:8087   */\n    tag_217:\n        /* \"#utility.yul\":8044:8048   */\n      0x00\n        /* \"#utility.yul\":8076:8080   */\n      0x20\n        /* \"#utility.yul\":8071:8074   */\n      dup3\n        /* \"#utility.yul\":8067:8081   */\n      add\n        /* \"#utility.yul\":8059:8081   */\n      swap1\n      pop\n        /* \"#utility.yul\":7951:8087   */\n      swap2\n      swap1\n      pop\n      jump\t// out\n        /* \"#utility.yul\":8165:9260   */\n    tag_218:\n        /* \"#utility.yul\":8330:8333   */\n      0x00\n        /* \"#utility.yul\":8359:8436   */\n      tag_332\n        /* \"#utility.yul\":8430:8435   */\n      dup3\n        /* \"#utility.yul\":8359:8436   */\n      tag_207\n      jump\t// in\n    tag_332:\n        /* \"#utility.yul\":8452:8561   */\n      tag_333\n        /* \"#utility.yul\":8554:8560   */\n      dup2\n        /* \"#utility.yul\":8549:8552   */\n      dup6\n        /* \"#utility.yul\":8452:8561   */\n      tag_208\n      jump\t// in\n    tag_333:\n        /* \"#utility.yul\":8445:8561   */\n      swap4\n      pop\n        /* \"#utility.yul\":8587:8590   */\n      dup4\n        /* \"#utility.yul\":8632:8636   */\n      0x20\n        /* \"#utility.yul\":8624:8630   */\n      dup3\n        /* \"#utility.yul\":8620:8637   */\n      mul\n        /* \"#utility.yul\":8615:8618   */\n      dup6\n        /* \"#utility.yul\":8611:8638   */\n      add\n        /* \"#utility.yul\":8662:8741   */\n      tag_334\n        /* \"#utility.yul\":8735:8740   */\n      dup6\n        /* \"#utility.yul\":8662:8741   */\n      tag_209\n      jump\t// in\n    tag_334:\n        /* \"#utility.yul\":8764:8771   */\n      dup1\n        /* \"#utility.yul\":8795:8796   */\n      0x00\n        /* \"#utility.yul\":8780:9215   */\n    tag_335:\n        /* \"#utility.yul\":8805:8811   */\n      dup6\n        /* \"#utility.yul\":8802:8803   */\n      dup2\n        /* \"#utility.yul\":8799:8812   */\n      lt\n        /* \"#utility.yul\":8780:9215   */\n      iszero\n      tag_337\n      jumpi\n        /* \"#utility.yul\":8876:8885   */\n      dup5\n        /* \"#utility.yul\":8870:8874   */\n      dup5\n        /* \"#utility.yul\":8866:8886   */\n      sub\n        /* \"#utility.yul\":8861:8864   */\n      dup10\n        /* \"#utility.yul\":8854:8887   */\n      mstore\n        /* \"#utility.yul\":8927:8933   */\n      dup2\n        /* \"#utility.yul\":8921:8934   */\n      mload\n        /* \"#utility.yul\":8955:9065   */\n      tag_338\n        /* \"#utility.yul\":9060:9064   */\n      dup6\n        /* \"#utility.yul\":9045:9058   */\n      dup3\n        /* \"#utility.yul\":8955:9065   */\n      tag_216\n      jump\t// in\n    tag_338:\n        /* \"#utility.yul\":8947:9065   */\n      swap5\n      pop\n        /* \"#utility.yul\":9088:9171   */\n      tag_339\n        /* \"#utility.yul\":9164:9170   */\n      dup4\n        /* \"#utility.yul\":9088:9171   */\n      tag_217\n      jump\t// in\n    tag_339:\n        /* \"#utility.yul\":9078:9171   */\n      swap3\n      pop\n        /* \"#utility.yul\":9200:9204   */\n      0x20\n        /* \"#utility.yul\":9195:9198   */\n      dup11\n        /* \"#utility.yul\":9191:9205   */\n      add\n        /* \"#utility.yul\":9184:9205   */\n      swap10\n      pop\n        /* \"#utility.yul\":8840:9215   */\n      pop\n        /* \"#utility.yul\":8827:8828   */\n      0x01\n        /* \"#utility.yul\":8824:8825   */\n      dup2\n        /* \"#utility.yul\":8820:8829   */\n      add\n        /* \"#utility.yul\":8815:8829   */\n      swap1\n      pop\n        /* \"#utility.yul\":8780:9215   */\n      jump(tag_335)\n    tag_337:\n        /* \"#utility.yul\":8784:8798   */\n      pop\n        /* \"#utility.yul\":9231:9235   */\n      dup3\n        /* \"#utility.yul\":9224:9235   */\n      swap8\n      pop\n        /* \"#utility.yul\":9251:9254   */\n      dup8\n        /* \"#utility.yul\":9244:9254   */\n      swap6\n      pop\n        /* \"#utility.yul\":8335:9260   */\n      pop\n      pop\n      pop\n      pop\n      pop\n        /* \"#utility.yul\":8165:9260   */\n      swap3\n      swap2\n      pop\n      pop\n      jump\t// out\n        /* \"#utility.yul\":9266:9731   */\n    tag_47:\n        /* \"#utility.yul\":9455:9459   */\n      0x00\n        /* \"#utility.yul\":9493:9495   */\n      0x20\n        /* \"#utility.yul\":9482:9491   */\n      dup3\n        /* \"#utility.yul\":9478:9496   */\n      add\n        /* \"#utility.yul\":9470:9496   */\n      swap1\n      pop\n        /* \"#utility.yul\":9542:9551   */\n      dup2\n        /* \"#utility.yul\":9536:9540   */\n      dup2\n        /* \"#utility.yul\":9532:9552   */\n      sub\n        /* \"#utility.yul\":9528:9529   */\n      0x00\n        /* \"#utility.yul\":9517:9526   */\n      dup4\n        /* \"#utility.yul\":9513:9530   */\n      add\n        /* \"#utility.yul\":9506:9553   */\n      mstore\n        /* \"#utility.yul\":9570:9724   */\n      tag_341\n        /* \"#utility.yul\":9719:9723   */\n      dup2\n        /* \"#utility.yul\":9710:9716   */\n      dup5\n        /* \"#utility.yul\":9570:9724   */\n      tag_218\n      jump\t// in\n    tag_341:\n        /* \"#utility.yul\":9562:9724   */\n      swap1\n      pop\n        /* \"#utility.yul\":9266:9731   */\n      swap3\n      swap2\n      pop\n      pop\n      jump\t// out\n        /* \"#utility.yul\":9737:9854   */\n    tag_219:\n        /* \"#utility.yul\":9846:9847   */\n      0x00\n        /* \"#utility.yul\":9843:9844   */\n      dup1\n        /* \"#utility.yul\":9836:9848   */\n      revert\n        /* \"#utility.yul\":9860:9977   */\n    tag_220:\n        /* \"#utility.yul\":9969:9970   */\n      0x00\n        /* \"#utility.yul\":9966:9967   */\n      dup1\n        /* \"#utility.yul\":9959:9971   */\n      revert\n        /* \"#utility.yul\":9983:10163   */\n    tag_221:\n        /* \"#utility.yul\":10031:10108   */\n      0x4e487b7100000000000000000000000000000000000000000000000000000000\n        /* \"#utility.yul\":10028:10029   */\n      0x00\n        /* \"#utility.yul\":10021:10109   */\n      mstore\n        /* \"#utility.yul\":10128:10132   */\n      0x41\n        /* \"#utility.yul\":10125:10126   */\n      0x04\n        /* \"#utility.yul\":10118:10133   */\n      mstore\n        /* \"#utility.yul\":10152:10156   */\n      0x24\n        /* \"#utility.yul\":10149:10150   */\n      0x00\n        /* \"#utility.yul\":10142:10157   */\n      revert\n        /* \"#utility.yul\":10169:10450   */\n    tag_222:\n        /* \"#utility.yul\":10252:10279   */\n      tag_346\n        /* \"#utility.yul\":10274:10278   */\n      dup3\n        /* \"#utility.yul\":10252:10279   */\n      tag_198\n      jump\t// in\n    tag_346:\n        /* \"#utility.yul\":10244:10250   */\n      dup2\n        /* \"#utility.yul\":10240:10280   */\n      add\n        /* \"#utility.yul\":10382:10388   */\n      dup2\n        /* \"#utility.yul\":10370:10380   */\n      dup2\n        /* \"#utility.yul\":10367:10389   */\n      lt\n        /* \"#utility.yul\":10346:10364   */\n      0xffffffffffffffff\n        /* \"#utility.yul\":10334:10344   */\n      dup3\n        /* \"#utility.yul\":10331:10365   */\n      gt\n        /* \"#utility.yul\":10328:10390   */\n      or\n        /* \"#utility.yul\":10325:10413   */\n      iszero\n      tag_347\n      jumpi\n        /* \"#utility.yul\":10393:10411   */\n      tag_348\n      tag_221\n      jump\t// in\n    tag_348:\n        /* \"#utility.yul\":10325:10413   */\n    tag_347:\n        /* \"#utility.yul\":10433:10443   */\n      dup1\n        /* \"#utility.yul\":10429:10431   */\n      0x40\n        /* \"#utility.yul\":10422:10444   */\n      mstore\n        /* \"#utility.yul\":10212:10450   */\n      pop\n        /* \"#utility.yul\":10169:10450   */\n      pop\n      pop\n      jump\t// out\n        /* \"#utility.yul\":10456:10585   */\n    tag_223:\n        /* \"#utility.yul\":10490:10496   */\n      0x00\n        /* \"#utility.yul\":10517:10537   */\n      tag_350\n      tag_188\n      jump\t// in\n    tag_350:\n        /* \"#utility.yul\":10507:10537   */\n      swap1\n      pop\n        /* \"#utility.yul\":10546:10579   */\n      tag_351\n        /* \"#utility.yul\":10574:10578   */\n      dup3\n        /* \"#utility.yul\":10566:10572   */\n      dup3\n        /* \"#utility.yul\":10546:10579   */\n      tag_222\n      jump\t// in\n    tag_351:\n        /* \"#utility.yul\":10456:10585   */\n      swap2\n      swap1\n      pop\n      jump\t// out\n        /* \"#utility.yul\":10591:10899   */\n    tag_224:\n        /* \"#utility.yul\":10653:10657   */\n      0x00\n        /* \"#utility.yul\":10743:10761   */\n      0xffffffffffffffff\n        /* \"#utility.yul\":10735:10741   */\n      dup3\n        /* \"#utility.yul\":10732:10762   */\n      gt\n        /* \"#utility.yul\":10729:10785   */\n      iszero\n      tag_353\n      jumpi\n        /* \"#utility.yul\":10765:10783   */\n      tag_354\n      tag_221\n      jump\t// in\n    tag_354:\n        /* \"#utility.yul\":10729:10785   */\n    tag_353:\n        /* \"#utility.yul\":10803:10832   */\n      tag_355\n        /* \"#utility.yul\":10825:10831   */\n      dup3\n        /* \"#utility.yul\":10803:10832   */\n      tag_198\n      jump\t// in\n    tag_355:\n        /* \"#utility.yul\":10795:10832   */\n      swap1\n      pop\n        /* \"#utility.yul\":10887:10891   */\n      0x20\n        /* \"#utility.yul\":10881:10885   */\n      dup2\n        /* \"#utility.yul\":10877:10892   */\n      add\n        /* \"#utility.yul\":10869:10892   */\n      swap1\n      pop\n        /* \"#utility.yul\":10591:10899   */\n      swap2\n      swap1\n      pop\n      jump\t// out\n        /* \"#utility.yul\":10905:11059   */\n    tag_225:\n        /* \"#utility.yul\":10989:10995   */\n      dup3\n        /* \"#utility.yul\":10984:10987   */\n      dup2\n        /* \"#utility.yul\":10979:10982   */\n      dup4\n        /* \"#utility.yul\":10966:10996   */\n      calldatacopy\n        /* \"#utility.yul\":11051:11052   */\n      0x00\n        /* \"#utility.yul\":11042:11048   */\n      dup4\n        /* \"#utility.yul\":11037:11040   */\n      dup4\n        /* \"#utility.yul\":11033:11049   */\n      add\n        /* \"#utility.yul\":11026:11053   */\n      mstore\n        /* \"#utility.yul\":10905:11059   */\n      pop\n      pop\n      pop\n      jump\t// out\n        /* \"#utility.yul\":11065:11477   */\n    tag_226:\n        /* \"#utility.yul\":11143:11148   */\n      0x00\n        /* \"#utility.yul\":11168:11234   */\n      tag_358\n        /* \"#utility.yul\":11184:11233   */\n      tag_359\n        /* \"#utility.yul\":11226:11232   */\n      dup5\n        /* \"#utility.yul\":11184:11233   */\n      tag_224\n      jump\t// in\n    tag_359:\n        /* \"#utility.yul\":11168:11234   */\n      tag_223\n      jump\t// in\n    tag_358:\n        /* \"#utility.yul\":11159:11234   */\n      swap1\n      pop\n        /* \"#utility.yul\":11257:11263   */\n      dup3\n        /* \"#utility.yul\":11250:11255   */\n      dup2\n        /* \"#utility.yul\":11243:11264   */\n      mstore\n        /* \"#utility.yul\":11295:11299   */\n      0x20\n        /* \"#utility.yul\":11288:11293   */\n      dup2\n        /* \"#utility.yul\":11284:11300   */\n      add\n        /* \"#utility.yul\":11333:11336   */\n      dup5\n        /* \"#utility.yul\":11324:11330   */\n      dup5\n        /* \"#utility.yul\":11319:11322   */\n      dup5\n        /* \"#utility.yul\":11315:11331   */\n      add\n        /* \"#utility.yul\":11312:11337   */\n      gt\n        /* \"#utility.yul\":11309:11421   */\n      iszero\n      tag_360\n      jumpi\n        /* \"#utility.yul\":11340:11419   */\n      tag_361\n      tag_220\n      jump\t// in\n    tag_361:\n        /* \"#utility.yul\":11309:11421   */\n    tag_360:\n        /* \"#utility.yul\":11430:11471   */\n      tag_362\n        /* \"#utility.yul\":11464:11470   */\n      dup5\n        /* \"#utility.yul\":11459:11462   */\n      dup3\n        /* \"#utility.yul\":11454:11457   */\n      dup6\n        /* \"#utility.yul\":11430:11471   */\n      tag_225\n      jump\t// in\n    tag_362:\n        /* \"#utility.yul\":11149:11477   */\n      pop\n        /* \"#utility.yul\":11065:11477   */\n      swap4\n      swap3\n      pop\n      pop\n      pop\n      jump\t// out\n        /* \"#utility.yul\":11497:11837   */\n    tag_227:\n        /* \"#utility.yul\":11553:11558   */\n      0x00\n        /* \"#utility.yul\":11602:11605   */\n      dup3\n        /* \"#utility.yul\":11595:11599   */\n      0x1f\n        /* \"#utility.yul\":11587:11593   */\n      dup4\n        /* \"#utility.yul\":11583:11600   */\n      add\n        /* \"#utility.yul\":11579:11606   */\n      slt\n        /* \"#utility.yul\":11569:11691   */\n      tag_364\n      jumpi\n        /* \"#utility.yul\":11610:11689   */\n      tag_365\n      tag_219\n      jump\t// in\n    tag_365:\n        /* \"#utility.yul\":11569:11691   */\n    tag_364:\n        /* \"#utility.yul\":11727:11733   */\n      dup2\n        /* \"#utility.yul\":11714:11734   */\n      calldataload\n        /* \"#utility.yul\":11752:11831   */\n      tag_366\n        /* \"#utility.yul\":11827:11830   */\n      dup5\n        /* \"#utility.yul\":11819:11825   */\n      dup3\n        /* \"#utility.yul\":11812:11816   */\n      0x20\n        /* \"#utility.yul\":11804:11810   */\n      dup7\n        /* \"#utility.yul\":11800:11817   */\n      add\n        /* \"#utility.yul\":11752:11831   */\n      tag_226\n      jump\t// in\n    tag_366:\n        /* \"#utility.yul\":11743:11831   */\n      swap2\n      pop\n        /* \"#utility.yul\":11559:11837   */\n      pop\n        /* \"#utility.yul\":11497:11837   */\n      swap3\n      swap2\n      pop\n      pop\n      jump\t// out\n        /* \"#utility.yul\":11843:12497   */\n    tag_50:\n        /* \"#utility.yul\":11921:11927   */\n      0x00\n        /* \"#utility.yul\":11929:11935   */\n      dup1\n        /* \"#utility.yul\":11978:11980   */\n      0x40\n        /* \"#utility.yul\":11966:11975   */\n      dup4\n        /* \"#utility.yul\":11957:11964   */\n      dup6\n        /* \"#utility.yul\":11953:11976   */\n      sub\n        /* \"#utility.yul\":11949:11981   */\n      slt\n        /* \"#utility.yul\":11946:12065   */\n      iszero\n      tag_368\n      jumpi\n        /* \"#utility.yul\":11984:12063   */\n      tag_369\n      tag_189\n      jump\t// in\n    tag_369:\n        /* \"#utility.yul\":11946:12065   */\n    tag_368:\n        /* \"#utility.yul\":12132:12133   */\n      0x00\n        /* \"#utility.yul\":12121:12130   */\n      dup4\n        /* \"#utility.yul\":12117:12134   */\n      add\n        /* \"#utility.yul\":12104:12135   */\n      calldataload\n        /* \"#utility.yul\":12162:12180   */\n      0xffffffffffffffff\n        /* \"#utility.yul\":12154:12160   */\n      dup2\n        /* \"#utility.yul\":12151:12181   */\n      gt\n        /* \"#utility.yul\":12148:12265   */\n      iszero\n      tag_370\n      jumpi\n        /* \"#utility.yul\":12184:12263   */\n      tag_371\n      tag_190\n      jump\t// in\n    tag_371:\n        /* \"#utility.yul\":12148:12265   */\n    tag_370:\n        /* \"#utility.yul\":12289:12352   */\n      tag_372\n        /* \"#utility.yul\":12344:12351   */\n      dup6\n        /* \"#utility.yul\":12335:12341   */\n      dup3\n        /* \"#utility.yul\":12324:12333   */\n      dup7\n        /* \"#utility.yul\":12320:12342   */\n      add\n        /* \"#utility.yul\":12289:12352   */\n      tag_227\n      jump\t// in\n    tag_372:\n        /* \"#utility.yul\":12279:12352   */\n      swap3\n      pop\n        /* \"#utility.yul\":12075:12362   */\n      pop\n        /* \"#utility.yul\":12401:12403   */\n      0x20\n        /* \"#utility.yul\":12427:12480   */\n      tag_373\n        /* \"#utility.yul\":12472:12479   */\n      dup6\n        /* \"#utility.yul\":12463:12469   */\n      dup3\n        /* \"#utility.yul\":12452:12461   */\n      dup7\n        /* \"#utility.yul\":12448:12470   */\n      add\n        /* \"#utility.yul\":12427:12480   */\n      tag_206\n      jump\t// in\n    tag_373:\n        /* \"#utility.yul\":12417:12480   */\n      swap2\n      pop\n        /* \"#utility.yul\":12372:12490   */\n      pop\n        /* \"#utility.yul\":11843:12497   */\n      swap3\n      pop\n      swap3\n      swap1\n      pop\n      jump\t// out\n        /* \"#utility.yul\":12503:12619   */\n    tag_228:\n        /* \"#utility.yul\":12573:12594   */\n      tag_375\n        /* \"#utility.yul\":12588:12593   */\n      dup2\n        /* \"#utility.yul\":12573:12594   */\n      tag_203\n      jump\t// in\n    tag_375:\n        /* \"#utility.yul\":12566:12571   */\n      dup2\n        /* \"#utility.yul\":12563:12595   */\n      eq\n        /* \"#utility.yul\":12553:12613   */\n      tag_376\n      jumpi\n        /* \"#utility.yul\":12609:12610   */\n      0x00\n        /* \"#utility.yul\":12606:12607   */\n      dup1\n        /* \"#utility.yul\":12599:12611   */\n      revert\n        /* \"#utility.yul\":12553:12613   */\n    tag_376:\n        /* \"#utility.yul\":12503:12619   */\n      pop\n      jump\t// out\n        /* \"#utility.yul\":12625:12758   */\n    tag_229:\n        /* \"#utility.yul\":12668:12673   */\n      0x00\n        /* \"#utility.yul\":12706:12712   */\n      dup2\n        /* \"#utility.yul\":12693:12713   */\n      calldataload\n        /* \"#utility.yul\":12684:12713   */\n      swap1\n      pop\n        /* \"#utility.yul\":12722:12752   */\n      tag_378\n        /* \"#utility.yul\":12746:12751   */\n      dup2\n        /* \"#utility.yul\":12722:12752   */\n      tag_228\n      jump\t// in\n    tag_378:\n        /* \"#utility.yul\":12625:12758   */\n      swap3\n      swap2\n      pop\n      pop\n      jump\t// out\n        /* \"#utility.yul\":12764:13377   */\n    tag_59:\n        /* \"#utility.yul\":12838:12844   */\n      0x00\n        /* \"#utility.yul\":12846:12852   */\n      dup1\n        /* \"#utility.yul\":12854:12860   */\n      0x00\n        /* \"#utility.yul\":12903:12905   */\n      0x60\n        /* \"#utility.yul\":12891:12900   */\n      dup5\n        /* \"#utility.yul\":12882:12889   */\n      dup7\n        /* \"#utility.yul\":12878:12901   */\n      sub\n        /* \"#utility.yul\":12874:12906   */\n      slt\n        /* \"#utility.yul\":12871:12990   */\n      iszero\n      tag_380\n      jumpi\n        /* \"#utility.yul\":12909:12988   */\n      tag_381\n      tag_189\n      jump\t// in\n    tag_381:\n        /* \"#utility.yul\":12871:12990   */\n    tag_380:\n        /* \"#utility.yul\":13029:13030   */\n      0x00\n        /* \"#utility.yul\":13054:13107   */\n      tag_382\n        /* \"#utility.yul\":13099:13106   */\n      dup7\n        /* \"#utility.yul\":13090:13096   */\n      dup3\n        /* \"#utility.yul\":13079:13088   */\n      dup8\n        /* \"#utility.yul\":13075:13097   */\n      add\n        /* \"#utility.yul\":13054:13107   */\n      tag_194\n      jump\t// in\n    tag_382:\n        /* \"#utility.yul\":13044:13107   */\n      swap4\n      pop\n        /* \"#utility.yul\":13000:13117   */\n      pop\n        /* \"#utility.yul\":13156:13158   */\n      0x20\n        /* \"#utility.yul\":13182:13232   */\n      tag_383\n        /* \"#utility.yul\":13224:13231   */\n      dup7\n        /* \"#utility.yul\":13215:13221   */\n      dup3\n        /* \"#utility.yul\":13204:13213   */\n      dup8\n        /* \"#utility.yul\":13200:13222   */\n      add\n        /* \"#utility.yul\":13182:13232   */\n      tag_229\n      jump\t// in\n    tag_383:\n        /* \"#utility.yul\":13172:13232   */\n      swap3\n      pop\n        /* \"#utility.yul\":13127:13242   */\n      pop\n        /* \"#utility.yul\":13281:13283   */\n      0x40\n        /* \"#utility.yul\":13307:13360   */\n      tag_384\n        /* \"#utility.yul\":13352:13359   */\n      dup7\n        /* \"#utility.yul\":13343:13349   */\n      dup3\n        /* \"#utility.yul\":13332:13341   */\n      dup8\n        /* \"#utility.yul\":13328:13350   */\n      add\n        /* \"#utility.yul\":13307:13360   */\n      tag_194\n      jump\t// in\n    tag_384:\n        /* \"#utility.yul\":13297:13360   */\n      swap2\n      pop\n        /* \"#utility.yul\":13252:13370   */\n      pop\n        /* \"#utility.yul\":12764:13377   */\n      swap3\n      pop\n      swap3\n      pop\n      swap3\n      jump\t// out\n        /* \"#utility.yul\":13383:13563   */\n    tag_230:\n        /* \"#utility.yul\":13431:13508   */\n      0x4e487b7100000000000000000000000000000000000000000000000000000000\n        /* \"#utility.yul\":13428:13429   */\n      0x00\n        /* \"#utility.yul\":13421:13509   */\n      mstore\n        /* \"#utility.yul\":13528:13532   */\n      0x22\n        /* \"#utility.yul\":13525:13526   */\n      0x04\n        /* \"#utility.yul\":13518:13533   */\n      mstore\n        /* \"#utility.yul\":13552:13556   */\n      0x24\n        /* \"#utility.yul\":13549:13550   */\n      0x00\n        /* \"#utility.yul\":13542:13557   */\n      revert\n        /* \"#utility.yul\":13569:13889   */\n    tag_71:\n        /* \"#utility.yul\":13613:13619   */\n      0x00\n        /* \"#utility.yul\":13650:13651   */\n      0x02\n        /* \"#utility.yul\":13644:13648   */\n      dup3\n        /* \"#utility.yul\":13640:13652   */\n      div\n        /* \"#utility.yul\":13630:13652   */\n      swap1\n      pop\n        /* \"#utility.yul\":13697:13698   */\n      0x01\n        /* \"#utility.yul\":13691:13695   */\n      dup3\n        /* \"#utility.yul\":13687:13699   */\n      and\n        /* \"#utility.yul\":13718:13736   */\n      dup1\n        /* \"#utility.yul\":13708:13789   */\n      tag_387\n      jumpi\n        /* \"#utility.yul\":13774:13778   */\n      0x7f\n        /* \"#utility.yul\":13766:13772   */\n      dup3\n        /* \"#utility.yul\":13762:13779   */\n      and\n        /* \"#utility.yul\":13752:13779   */\n      swap2\n      pop\n        /* \"#utility.yul\":13708:13789   */\n    tag_387:\n        /* \"#utility.yul\":13836:13838   */\n      0x20\n        /* \"#utility.yul\":13828:13834   */\n      dup3\n        /* \"#utility.yul\":13825:13839   */\n      lt\n        /* \"#utility.yul\":13805:13823   */\n      dup2\n        /* \"#utility.yul\":13802:13840   */\n      eq\n        /* \"#utility.yul\":13799:13883   */\n      iszero\n      tag_388\n      jumpi\n        /* \"#utility.yul\":13855:13873   */\n      tag_389\n      tag_230\n      jump\t// in\n    tag_389:\n        /* \"#utility.yul\":13799:13883   */\n    tag_388:\n        /* \"#utility.yul\":13620:13889   */\n      pop\n        /* \"#utility.yul\":13569:13889   */\n      swap2\n      swap1\n      pop\n      jump\t// out\n        /* \"#utility.yul\":13895:14073   */\n    tag_231:\n        /* \"#utility.yul\":14035:14065   */\n      0x596f7520646964206e6f7420626f72726f77207468697320626f6f6b00000000\n        /* \"#utility.yul\":14031:14032   */\n      0x00\n        /* \"#utility.yul\":14023:14029   */\n      dup3\n        /* \"#utility.yul\":14019:14033   */\n      add\n        /* \"#utility.yul\":14012:14066   */\n      mstore\n        /* \"#utility.yul\":13895:14073   */\n      pop\n      jump\t// out\n        /* \"#utility.yul\":14079:14445   */\n    tag_232:\n        /* \"#utility.yul\":14221:14224   */\n      0x00\n        /* \"#utility.yul\":14242:14309   */\n      tag_392\n        /* \"#utility.yul\":14306:14308   */\n      0x1c\n        /* \"#utility.yul\":14301:14304   */\n      dup4\n        /* \"#utility.yul\":14242:14309   */\n      tag_196\n      jump\t// in\n    tag_392:\n        /* \"#utility.yul\":14235:14309   */\n      swap2\n      pop\n        /* \"#utility.yul\":14318:14411   */\n      tag_393\n        /* \"#utility.yul\":14407:14410   */\n      dup3\n        /* \"#utility.yul\":14318:14411   */\n      tag_231\n      jump\t// in\n    tag_393:\n        /* \"#utility.yul\":14436:14438   */\n      0x20\n        /* \"#utility.yul\":14431:14434   */\n      dup3\n        /* \"#utility.yul\":14427:14439   */\n      add\n        /* \"#utility.yul\":14420:14439   */\n      swap1\n      pop\n        /* \"#utility.yul\":14079:14445   */\n      swap2\n      swap1\n      pop\n      jump\t// out\n        /* \"#utility.yul\":14451:14870   */\n    tag_93:\n        /* \"#utility.yul\":14617:14621   */\n      0x00\n        /* \"#utility.yul\":14655:14657   */\n      0x20\n        /* \"#utility.yul\":14644:14653   */\n      dup3\n        /* \"#utility.yul\":14640:14658   */\n      add\n        /* \"#utility.yul\":14632:14658   */\n      swap1\n      pop\n        /* \"#utility.yul\":14704:14713   */\n      dup2\n        /* \"#utility.yul\":14698:14702   */\n      dup2\n        /* \"#utility.yul\":14694:14714   */\n      sub\n        /* \"#utility.yul\":14690:14691   */\n      0x00\n        /* \"#utility.yul\":14679:14688   */\n      dup4\n        /* \"#utility.yul\":14675:14692   */\n      add\n        /* \"#utility.yul\":14668:14715   */\n      mstore\n        /* \"#utility.yul\":14732:14863   */\n      tag_395\n        /* \"#utility.yul\":14858:14862   */\n      dup2\n        /* \"#utility.yul\":14732:14863   */\n      tag_232\n      jump\t// in\n    tag_395:\n        /* \"#utility.yul\":14724:14863   */\n      swap1\n      pop\n        /* \"#utility.yul\":14451:14870   */\n      swap2\n      swap1\n      pop\n      jump\t// out\n        /* \"#utility.yul\":14876:15045   */\n    tag_233:\n        /* \"#utility.yul\":15016:15037   */\n      0x556e617574686f72697a65642061636365737300000000000000000000000000\n        /* \"#utility.yul\":15012:15013   */\n      0x00\n        /* \"#utility.yul\":15004:15010   */\n      dup3\n        /* \"#utility.yul\":15000:15014   */\n      add\n        /* \"#utility.yul\":14993:15038   */\n      mstore\n        /* \"#utility.yul\":14876:15045   */\n      pop\n      jump\t// out\n        /* \"#utility.yul\":15051:15417   */\n    tag_234:\n        /* \"#utility.yul\":15193:15196   */\n      0x00\n        /* \"#utility.yul\":15214:15281   */\n      tag_398\n        /* \"#utility.yul\":15278:15280   */\n      0x13\n        /* \"#utility.yul\":15273:15276   */\n      dup4\n        /* \"#utility.yul\":15214:15281   */\n      tag_196\n      jump\t// in\n    tag_398:\n        /* \"#utility.yul\":15207:15281   */\n      swap2\n      pop\n        /* \"#utility.yul\":15290:15383   */\n      tag_399\n        /* \"#utility.yul\":15379:15382   */\n      dup3\n        /* \"#utility.yul\":15290:15383   */\n      tag_233\n      jump\t// in\n    tag_399:\n        /* \"#utility.yul\":15408:15410   */\n      0x20\n        /* \"#utility.yul\":15403:15406   */\n      dup3\n        /* \"#utility.yul\":15399:15411   */\n      add\n        /* \"#utility.yul\":15392:15411   */\n      swap1\n      pop\n        /* \"#utility.yul\":15051:15417   */\n      swap2\n      swap1\n      pop\n      jump\t// out\n        /* \"#utility.yul\":15423:15842   */\n    tag_96:\n        /* \"#utility.yul\":15589:15593   */\n      0x00\n        /* \"#utility.yul\":15627:15629   */\n      0x20\n        /* \"#utility.yul\":15616:15625   */\n      dup3\n        /* \"#utility.yul\":15612:15630   */\n      add\n        /* \"#utility.yul\":15604:15630   */\n      swap1\n      pop\n        /* \"#utility.yul\":15676:15685   */\n      dup2\n        /* \"#utility.yul\":15670:15674   */\n      dup2\n        /* \"#utility.yul\":15666:15686   */\n      sub\n        /* \"#utility.yul\":15662:15663   */\n      0x00\n        /* \"#utility.yul\":15651:15660   */\n      dup4\n        /* \"#utility.yul\":15647:15664   */\n      add\n        /* \"#utility.yul\":15640:15687   */\n      mstore\n        /* \"#utility.yul\":15704:15835   */\n      tag_401\n        /* \"#utility.yul\":15830:15834   */\n      dup2\n        /* \"#utility.yul\":15704:15835   */\n      tag_234\n      jump\t// in\n    tag_401:\n        /* \"#utility.yul\":15696:15835   */\n      swap1\n      pop\n        /* \"#utility.yul\":15423:15842   */\n      swap2\n      swap1\n      pop\n      jump\t// out\n        /* \"#utility.yul\":15848:16011   */\n    tag_235:\n        /* \"#utility.yul\":15988:16003   */\n      0x426f6f6b2072657475726e656400000000000000000000000000000000000000\n        /* \"#utility.yul\":15984:15985   */\n      0x00\n        /* \"#utility.yul\":15976:15982   */\n      dup3\n        /* \"#utility.yul\":15972:15986   */\n      add\n        /* \"#utility.yul\":15965:16004   */\n      mstore\n        /* \"#utility.yul\":15848:16011   */\n      pop\n      jump\t// out\n        /* \"#utility.yul\":16017:16383   */\n    tag_236:\n        /* \"#utility.yul\":16159:16162   */\n      0x00\n        /* \"#utility.yul\":16180:16247   */\n      tag_404\n        /* \"#utility.yul\":16244:16246   */\n      0x0d\n        /* \"#utility.yul\":16239:16242   */\n      dup4\n        /* \"#utility.yul\":16180:16247   */\n      tag_196\n      jump\t// in\n    tag_404:\n        /* \"#utility.yul\":16173:16247   */\n      swap2\n      pop\n        /* \"#utility.yul\":16256:16349   */\n      tag_405\n        /* \"#utility.yul\":16345:16348   */\n      dup3\n        /* \"#utility.yul\":16256:16349   */\n      tag_235\n      jump\t// in\n    tag_405:\n        /* \"#utility.yul\":16374:16376   */\n      0x20\n        /* \"#utility.yul\":16369:16372   */\n      dup3\n        /* \"#utility.yul\":16365:16377   */\n      add\n        /* \"#utility.yul\":16358:16377   */\n      swap1\n      pop\n        /* \"#utility.yul\":16017:16383   */\n      swap2\n      swap1\n      pop\n      jump\t// out\n        /* \"#utility.yul\":16389:16808   */\n    tag_99:\n        /* \"#utility.yul\":16555:16559   */\n      0x00\n        /* \"#utility.yul\":16593:16595   */\n      0x20\n        /* \"#utility.yul\":16582:16591   */\n      dup3\n        /* \"#utility.yul\":16578:16596   */\n      add\n        /* \"#utility.yul\":16570:16596   */\n      swap1\n      pop\n        /* \"#utility.yul\":16642:16651   */\n      dup2\n        /* \"#utility.yul\":16636:16640   */\n      dup2\n        /* \"#utility.yul\":16632:16652   */\n      sub\n        /* \"#utility.yul\":16628:16629   */\n      0x00\n        /* \"#utility.yul\":16617:16626   */\n      dup4\n        /* \"#utility.yul\":16613:16630   */\n      add\n        /* \"#utility.yul\":16606:16653   */\n      mstore\n        /* \"#utility.yul\":16670:16801   */\n      tag_407\n        /* \"#utility.yul\":16796:16800   */\n      dup2\n        /* \"#utility.yul\":16670:16801   */\n      tag_236\n      jump\t// in\n    tag_407:\n        /* \"#utility.yul\":16662:16801   */\n      swap1\n      pop\n        /* \"#utility.yul\":16389:16808   */\n      swap2\n      swap1\n      pop\n      jump\t// out\n        /* \"#utility.yul\":16814:16994   */\n    tag_102:\n        /* \"#utility.yul\":16862:16939   */\n      0x4e487b7100000000000000000000000000000000000000000000000000000000\n        /* \"#utility.yul\":16859:16860   */\n      0x00\n        /* \"#utility.yul\":16852:16940   */\n      mstore\n        /* \"#utility.yul\":16959:16963   */\n      0x32\n        /* \"#utility.yul\":16956:16957   */\n      0x04\n        /* \"#utility.yul\":16949:16964   */\n      mstore\n        /* \"#utility.yul\":16983:16987   */\n      0x24\n        /* \"#utility.yul\":16980:16981   */\n      0x00\n        /* \"#utility.yul\":16973:16988   */\n      revert\n        /* \"#utility.yul\":17000:17180   */\n    tag_237:\n        /* \"#utility.yul\":17048:17125   */\n      0x4e487b7100000000000000000000000000000000000000000000000000000000\n        /* \"#utility.yul\":17045:17046   */\n      0x00\n        /* \"#utility.yul\":17038:17126   */\n      mstore\n        /* \"#utility.yul\":17145:17149   */\n      0x11\n        /* \"#utility.yul\":17142:17143   */\n      0x04\n        /* \"#utility.yul\":17135:17150   */\n      mstore\n        /* \"#utility.yul\":17169:17173   */\n      0x24\n        /* \"#utility.yul\":17166:17167   */\n      0x00\n        /* \"#utility.yul\":17159:17174   */\n      revert\n        /* \"#utility.yul\":17186:17491   */\n    tag_106:\n        /* \"#utility.yul\":17226:17229   */\n      0x00\n        /* \"#utility.yul\":17245:17265   */\n      tag_411\n        /* \"#utility.yul\":17263:17264   */\n      dup3\n        /* \"#utility.yul\":17245:17265   */\n      tag_201\n      jump\t// in\n    tag_411:\n        /* \"#utility.yul\":17240:17265   */\n      swap2\n      pop\n        /* \"#utility.yul\":17279:17299   */\n      tag_412\n        /* \"#utility.yul\":17297:17298   */\n      dup4\n        /* \"#utility.yul\":17279:17299   */\n      tag_201\n      jump\t// in\n    tag_412:\n        /* \"#utility.yul\":17274:17299   */\n      swap3\n      pop\n        /* \"#utility.yul\":17433:17434   */\n      dup3\n        /* \"#utility.yul\":17365:17431   */\n      0xffffffffffffffffffffffffffffffffffffffffffffffffffffffffffffffff\n        /* \"#utility.yul\":17361:17435   */\n      sub\n        /* \"#utility.yul\":17358:17359   */\n      dup3\n        /* \"#utility.yul\":17355:17436   */\n      gt\n        /* \"#utility.yul\":17352:17459   */\n      iszero\n      tag_413\n      jumpi\n        /* \"#utility.yul\":17439:17457   */\n      tag_414\n      tag_237\n      jump\t// in\n    tag_414:\n        /* \"#utility.yul\":17352:17459   */\n    tag_413:\n        /* \"#utility.yul\":17483:17484   */\n      dup3\n        /* \"#utility.yul\":17480:17481   */\n      dup3\n        /* \"#utility.yul\":17476:17485   */\n      add\n        /* \"#utility.yul\":17469:17485   */\n      swap1\n      pop\n        /* \"#utility.yul\":17186:17491   */\n      swap3\n      swap2\n      pop\n      pop\n      jump\t// out\n        /* \"#utility.yul\":17497:17719   */\n    tag_238:\n        /* \"#utility.yul\":17637:17671   */\n      0x53747564656e7420686173206f75747374616e64696e67207375626d69737369\n        /* \"#utility.yul\":17633:17634   */\n      0x00\n        /* \"#utility.yul\":17625:17631   */\n      dup3\n        /* \"#utility.yul\":17621:17635   */\n      add\n        /* \"#utility.yul\":17614:17672   */\n      mstore\n        /* \"#utility.yul\":17706:17711   */\n      0x6f6e730000000000000000000000000000000000000000000000000000000000\n        /* \"#utility.yul\":17701:17703   */\n      0x20\n        /* \"#utility.yul\":17693:17699   */\n      dup3\n        /* \"#utility.yul\":17689:17704   */\n      add\n        /* \"#utility.yul\":17682:17712   */\n      mstore\n        /* \"#utility.yul\":17497:17719   */\n      pop\n      jump\t// out\n        /* \"#utility.yul\":17725:18091   */\n    tag_239:\n        /* \"#utility.yul\":17867:17870   */\n      0x00\n        /* \"#utility.yul\":17888:17955   */\n      tag_417\n        /* \"#utility.yul\":17952:17954   */\n      0x23\n        /* \"#utility.yul\":17947:17950   */\n      dup4\n        /* \"#utility.yul\":17888:17955   */\n      tag_196\n      jump\t// in\n    tag_417:\n        /* \"#utility.yul\":17881:17955   */\n      swap2\n      pop\n        /* \"#utility.yul\":17964:18057   */\n      tag_418\n        /* \"#utility.yul\":18053:18056   */\n      dup3\n        /* \"#utility.yul\":17964:18057   */\n      tag_238\n      jump\t// in\n    tag_418:\n        /* \"#utility.yul\":18082:18084   */\n      0x40\n        /* \"#utility.yul\":18077:18080   */\n      dup3\n        /* \"#utility.yul\":18073:18085   */\n      add\n        /* \"#utility.yul\":18066:18085   */\n      swap1\n      pop\n        /* \"#utility.yul\":17725:18091   */\n      swap2\n      swap1\n      pop\n      jump\t// out\n        /* \"#utility.yul\":18097:18516   */\n    tag_119:\n        /* \"#utility.yul\":18263:18267   */\n      0x00\n        /* \"#utility.yul\":18301:18303   */\n      0x20\n        /* \"#utility.yul\":18290:18299   */\n      dup3\n        /* \"#utility.yul\":18286:18304   */\n      add\n        /* \"#utility.yul\":18278:18304   */\n      swap1\n      pop\n        /* \"#utility.yul\":18350:18359   */\n      dup2\n        /* \"#utility.yul\":18344:18348   */\n      dup2\n        /* \"#utility.yul\":18340:18360   */\n      sub\n        /* \"#utility.yul\":18336:18337   */\n      0x00\n        /* \"#utility.yul\":18325:18334   */\n      dup4\n        /* \"#utility.yul\":18321:18338   */\n      add\n        /* \"#utility.yul\":18314:18361   */\n      mstore\n        /* \"#utility.yul\":18378:18509   */\n      tag_420\n        /* \"#utility.yul\":18504:18508   */\n      dup2\n        /* \"#utility.yul\":18378:18509   */\n      tag_239\n      jump\t// in\n    tag_420:\n        /* \"#utility.yul\":18370:18509   */\n      swap1\n      pop\n        /* \"#utility.yul\":18097:18516   */\n      swap2\n      swap1\n      pop\n      jump\t// out\n        /* \"#utility.yul\":18522:18697   */\n    tag_240:\n        /* \"#utility.yul\":18662:18689   */\n      0x536f7272792c20496e73756666696369656e742046756e647300000000000000\n        /* \"#utility.yul\":18658:18659   */\n      0x00\n        /* \"#utility.yul\":18650:18656   */\n      dup3\n        /* \"#utility.yul\":18646:18660   */\n      add\n        /* \"#utility.yul\":18639:18690   */\n      mstore\n        /* \"#utility.yul\":18522:18697   */\n      pop\n      jump\t// out\n        /* \"#utility.yul\":18703:19069   */\n    tag_241:\n        /* \"#utility.yul\":18845:18848   */\n      0x00\n        /* \"#utility.yul\":18866:18933   */\n      tag_423\n        /* \"#utility.yul\":18930:18932   */\n      0x19\n        /* \"#utility.yul\":18925:18928   */\n      dup4\n        /* \"#utility.yul\":18866:18933   */\n      tag_196\n      jump\t// in\n    tag_423:\n        /* \"#utility.yul\":18859:18933   */\n      swap2\n      pop\n        /* \"#utility.yul\":18942:19035   */\n      tag_424\n        /* \"#utility.yul\":19031:19034   */\n      dup3\n        /* \"#utility.yul\":18942:19035   */\n      tag_240\n      jump\t// in\n    tag_424:\n        /* \"#utility.yul\":19060:19062   */\n      0x20\n        /* \"#utility.yul\":19055:19058   */\n      dup3\n        /* \"#utility.yul\":19051:19063   */\n      add\n        /* \"#utility.yul\":19044:19063   */\n      swap1\n      pop\n        /* \"#utility.yul\":18703:19069   */\n      swap2\n      swap1\n      pop\n      jump\t// out\n        /* \"#utility.yul\":19075:19494   */\n    tag_124:\n        /* \"#utility.yul\":19241:19245   */\n      0x00\n        /* \"#utility.yul\":19279:19281   */\n      0x20\n        /* \"#utility.yul\":19268:19277   */\n      dup3\n        /* \"#utility.yul\":19264:19282   */\n      add\n        /* \"#utility.yul\":19256:19282   */\n      swap1\n      pop\n        /* \"#utility.yul\":19328:19337   */\n      dup2\n        /* \"#utility.yul\":19322:19326   */\n      dup2\n        /* \"#utility.yul\":19318:19338   */\n      sub\n        /* \"#utility.yul\":19314:19315   */\n      0x00\n        /* \"#utility.yul\":19303:19312   */\n      dup4\n        /* \"#utility.yul\":19299:19316   */\n      add\n        /* \"#utility.yul\":19292:19339   */\n      mstore\n        /* \"#utility.yul\":19356:19487   */\n      tag_426\n        /* \"#utility.yul\":19482:19486   */\n      dup2\n        /* \"#utility.yul\":19356:19487   */\n      tag_241\n      jump\t// in\n    tag_426:\n        /* \"#utility.yul\":19348:19487   */\n      swap1\n      pop\n        /* \"#utility.yul\":19075:19494   */\n      swap2\n      swap1\n      pop\n      jump\t// out\n        /* \"#utility.yul\":19500:19733   */\n    tag_135:\n        /* \"#utility.yul\":19539:19542   */\n      0x00\n        /* \"#utility.yul\":19562:19586   */\n      tag_428\n        /* \"#utility.yul\":19580:19585   */\n      dup3\n        /* \"#utility.yul\":19562:19586   */\n      tag_201\n      jump\t// in\n    tag_428:\n        /* \"#utility.yul\":19553:19586   */\n      swap2\n      pop\n        /* \"#utility.yul\":19608:19674   */\n      0xffffffffffffffffffffffffffffffffffffffffffffffffffffffffffffffff\n        /* \"#utility.yul\":19601:19606   */\n      dup3\n        /* \"#utility.yul\":19598:19675   */\n      eq\n        /* \"#utility.yul\":19595:19698   */\n      iszero\n      tag_429\n      jumpi\n        /* \"#utility.yul\":19678:19696   */\n      tag_430\n      tag_237\n      jump\t// in\n    tag_430:\n        /* \"#utility.yul\":19595:19698   */\n    tag_429:\n        /* \"#utility.yul\":19725:19726   */\n      0x01\n        /* \"#utility.yul\":19718:19723   */\n      dup3\n        /* \"#utility.yul\":19714:19727   */\n      add\n        /* \"#utility.yul\":19707:19727   */\n      swap1\n      pop\n        /* \"#utility.yul\":19500:19733   */\n      swap2\n      swap1\n      pop\n      jump\t// out\n        /* \"#utility.yul\":19739:19915   */\n    tag_242:\n        /* \"#utility.yul\":19879:19907   */\n      0x6c696272617269616e2070726976696c6564676573206f6e6c79000000000000\n        /* \"#utility.yul\":19875:19876   */\n      0x00\n        /* \"#utility.yul\":19867:19873   */\n      dup3\n        /* \"#utility.yul\":19863:19877   */\n      add\n        /* \"#utility.yul\":19856:19908   */\n      mstore\n        /* \"#utility.yul\":19739:19915   */\n      pop\n      jump\t// out\n        /* \"#utility.yul\":19921:20287   */\n    tag_243:\n        /* \"#utility.yul\":20063:20066   */\n      0x00\n        /* \"#utility.yul\":20084:20151   */\n      tag_433\n        /* \"#utility.yul\":20148:20150   */\n      0x1a\n        /* \"#utility.yul\":20143:20146   */\n      dup4\n        /* \"#utility.yul\":20084:20151   */\n      tag_196\n      jump\t// in\n    tag_433:\n        /* \"#utility.yul\":20077:20151   */\n      swap2\n      pop\n        /* \"#utility.yul\":20160:20253   */\n      tag_434\n        /* \"#utility.yul\":20249:20252   */\n      dup3\n        /* \"#utility.yul\":20160:20253   */\n      tag_242\n      jump\t// in\n    tag_434:\n        /* \"#utility.yul\":20278:20280   */\n      0x20\n        /* \"#utility.yul\":20273:20276   */\n      dup3\n        /* \"#utility.yul\":20269:20281   */\n      add\n        /* \"#utility.yul\":20262:20281   */\n      swap1\n      pop\n        /* \"#utility.yul\":19921:20287   */\n      swap2\n      swap1\n      pop\n      jump\t// out\n        /* \"#utility.yul\":20293:20712   */\n    tag_139:\n        /* \"#utility.yul\":20459:20463   */\n      0x00\n        /* \"#utility.yul\":20497:20499   */\n      0x20\n        /* \"#utility.yul\":20486:20495   */\n      dup3\n        /* \"#utility.yul\":20482:20500   */\n      add\n        /* \"#utility.yul\":20474:20500   */\n      swap1\n      pop\n        /* \"#utility.yul\":20546:20555   */\n      dup2\n        /* \"#utility.yul\":20540:20544   */\n      dup2\n        /* \"#utility.yul\":20536:20556   */\n      sub\n        /* \"#utility.yul\":20532:20533   */\n      0x00\n        /* \"#utility.yul\":20521:20530   */\n      dup4\n        /* \"#utility.yul\":20517:20534   */\n      add\n        /* \"#utility.yul\":20510:20557   */\n      mstore\n        /* \"#utility.yul\":20574:20705   */\n      tag_436\n        /* \"#utility.yul\":20700:20704   */\n      dup2\n        /* \"#utility.yul\":20574:20705   */\n      tag_243\n      jump\t// in\n    tag_436:\n        /* \"#utility.yul\":20566:20705   */\n      swap1\n      pop\n        /* \"#utility.yul\":20293:20712   */\n      swap2\n      swap1\n      pop\n      jump\t// out\n        /* \"#utility.yul\":20718:20885   */\n    tag_244:\n        /* \"#utility.yul\":20858:20877   */\n      0x426f6f6b206e6f742072657475726e6564000000000000000000000000000000\n        /* \"#utility.yul\":20854:20855   */\n      0x00\n        /* \"#utility.yul\":20846:20852   */\n      dup3\n        /* \"#utility.yul\":20842:20856   */\n      add\n        /* \"#utility.yul\":20835:20878   */\n      mstore\n        /* \"#utility.yul\":20718:20885   */\n      pop\n      jump\t// out\n        /* \"#utility.yul\":20891:21257   */\n    tag_245:\n        /* \"#utility.yul\":21033:21036   */\n      0x00\n        /* \"#utility.yul\":21054:21121   */\n      tag_439\n        /* \"#utility.yul\":21118:21120   */\n      0x11\n        /* \"#utility.yul\":21113:21116   */\n      dup4\n        /* \"#utility.yul\":21054:21121   */\n      tag_196\n      jump\t// in\n    tag_439:\n        /* \"#utility.yul\":21047:21121   */\n      swap2\n      pop\n        /* \"#utility.yul\":21130:21223   */\n      tag_440\n        /* \"#utility.yul\":21219:21222   */\n      dup3\n        /* \"#utility.yul\":21130:21223   */\n      tag_244\n      jump\t// in\n    tag_440:\n        /* \"#utility.yul\":21248:21250   */\n      0x20\n        /* \"#utility.yul\":21243:21246   */\n      dup3\n        /* \"#utility.yul\":21239:21251   */\n      add\n        /* \"#utility.yul\":21232:21251   */\n      swap1\n      pop\n        /* \"#utility.yul\":20891:21257   */\n      swap2\n      swap1\n      pop\n      jump\t// out\n        /* \"#utility.yul\":21263:21682   */\n    tag_142:\n        /* \"#utility.yul\":21429:21433   */\n      0x00\n        /* \"#utility.yul\":21467:21469   */\n      0x20\n        /* \"#utility.yul\":21456:21465   */\n      dup3\n        /* \"#utility.yul\":21452:21470   */\n      add\n        /* \"#utility.yul\":21444:21470   */\n      swap1\n      pop\n        /* \"#utility.yul\":21516:21525   */\n      dup2\n        /* \"#utility.yul\":21510:21514   */\n      dup2\n        /* \"#utility.yul\":21506:21526   */\n      sub\n        /* \"#utility.yul\":21502:21503   */\n      0x00\n        /* \"#utility.yul\":21491:21500   */\n      dup4\n        /* \"#utility.yul\":21487:21504   */\n      add\n        /* \"#utility.yul\":21480:21527   */\n      mstore\n        /* \"#utility.yul\":21544:21675   */\n      tag_442\n        /* \"#utility.yul\":21670:21674   */\n      dup2\n        /* \"#utility.yul\":21544:21675   */\n      tag_245\n      jump\t// in\n    tag_442:\n        /* \"#utility.yul\":21536:21675   */\n      swap1\n      pop\n        /* \"#utility.yul\":21263:21682   */\n      swap2\n      swap1\n      pop\n      jump\t// out\n        /* \"#utility.yul\":21688:21879   */\n    tag_147:\n        /* \"#utility.yul\":21728:21732   */\n      0x00\n        /* \"#utility.yul\":21748:21768   */\n      tag_444\n        /* \"#utility.yul\":21766:21767   */\n      dup3\n        /* \"#utility.yul\":21748:21768   */\n      tag_201\n      jump\t// in\n    tag_444:\n        /* \"#utility.yul\":21743:21768   */\n      swap2\n      pop\n        /* \"#utility.yul\":21782:21802   */\n      tag_445\n        /* \"#utility.yul\":21800:21801   */\n      dup4\n        /* \"#utility.yul\":21782:21802   */\n      tag_201\n      jump\t// in\n    tag_445:\n        /* \"#utility.yul\":21777:21802   */\n      swap3\n      pop\n        /* \"#utility.yul\":21821:21822   */\n      dup3\n        /* \"#utility.yul\":21818:21819   */\n      dup3\n        /* \"#utility.yul\":21815:21823   */\n      lt\n        /* \"#utility.yul\":21812:21846   */\n      iszero\n      tag_446\n      jumpi\n        /* \"#utility.yul\":21826:21844   */\n      tag_447\n      tag_237\n      jump\t// in\n    tag_447:\n        /* \"#utility.yul\":21812:21846   */\n    tag_446:\n        /* \"#utility.yul\":21871:21872   */\n      dup3\n        /* \"#utility.yul\":21868:21869   */\n      dup3\n        /* \"#utility.yul\":21864:21873   */\n      sub\n        /* \"#utility.yul\":21856:21873   */\n      swap1\n      pop\n        /* \"#utility.yul\":21688:21879   */\n      swap3\n      swap2\n      pop\n      pop\n      jump\t// out\n        /* \"#utility.yul\":21885:22065   */\n    tag_158:\n        /* \"#utility.yul\":21933:22010   */\n      0x4e487b7100000000000000000000000000000000000000000000000000000000\n        /* \"#utility.yul\":21930:21931   */\n      0x00\n        /* \"#utility.yul\":21923:22011   */\n      mstore\n        /* \"#utility.yul\":22030:22034   */\n      0x31\n        /* \"#utility.yul\":22027:22028   */\n      0x04\n        /* \"#utility.yul\":22020:22035   */\n      mstore\n        /* \"#utility.yul\":22054:22058   */\n      0x24\n        /* \"#utility.yul\":22051:22052   */\n      0x00\n        /* \"#utility.yul\":22044:22059   */\n      revert\n\n    auxdata: 0xa26469706673582212203684fb562eabffdbb2b8b6c813ddc6bbbfd703528e133d8bc870b9b02cc02bc664736f6c634300080a0033\n}\n","bytecode":{"linkReferences":{},"object":"608060405234801561001057600080fd5b506611c37937e08000600581905550611f7f8061002e6000396000f3fe60806040526004361061009c5760003560e01c80638ccca18a116100645780638ccca18a146101cb578063a9f0e7a4146101f6578063b049de5414610212578063b899d5651461023d578063d0e30db014610266578063dd3ced63146102915761009c565b80630941cb3d146100a15780631a2a9aea146100e2578063320f5c721461011f5780636a27a888146101605780636ea2f53c14610189575b600080fd5b3480156100ad57600080fd5b506100c860048036038101906100c39190611455565b6102ce565b6040516100d995949392919061155e565b60405180910390f35b3480156100ee57600080fd5b5061010960048036038101906101049190611455565b6103b9565b60405161011691906115b8565b60405180910390f35b34801561012b57600080fd5b50610146600480360381019061014191906115ff565b610455565b60405161015795949392919061155e565b60405180910390f35b34801561016c57600080fd5b5061018760048036038101906101829190611455565b610550565b005b34801561019557600080fd5b506101b060048036038101906101ab9190611455565b6107bc565b6040516101c29695949392919061162c565b60405180910390f35b3480156101d757600080fd5b506101e0610832565b6040516101ed919061183c565b60405180910390f35b610210600480360381019061020b9190611993565b6109a8565b005b34801561021e57600080fd5b50610227610e16565b60405161023491906115b8565b60405180910390f35b34801561024957600080fd5b50610264600480360381019061025f9190611a1b565b610e1c565b005b34801561027257600080fd5b5061027b611255565b60405161028891906115b8565b60405180910390f35b34801561029d57600080fd5b506102b860048036038101906102b39190611455565b61125b565b6040516102c591906115b8565b60405180910390f35b60016020528060005260406000206000915090508060000180546102f190611a9d565b80601f016020809104026020016040519081016040528092919081815260200182805461031d90611a9d565b801561036a5780601f1061033f5761010080835404028352916020019161036a565b820191906000526020600020905b81548152906001019060200180831161034d57829003601f168201915b5050505050908060010160009054906101000a900473ffffffffffffffffffffffffffffffffffffffff16908060020154908060030160009054906101000a900460ff16908060040154905085565b600080600460008473ffffffffffffffffffffffffffffffffffffffff1673ffffffffffffffffffffffffffffffffffffffff16815260200190815260200160002060010154905060028111610413576000915050610450565b6005811161042b5766038d7ea4c68000915050610450565b6007811161044357662386f26fc10000915050610450565b67016345785d8a00009150505b919050565b6002818154811061046557600080fd5b906000526020600020906005020160009150905080600001805461048890611a9d565b80601f01602080910402602001604051908101604052809291908181526020018280546104b490611a9d565b80156105015780601f106104d657610100808354040283529160200191610501565b820191906000526020600020905b8154815290600101906020018083116104e457829003601f168201915b5050505050908060010160009054906101000a900473ffffffffffffffffffffffffffffffffffffffff16908060020154908060030160009054906101000a900460ff16908060040154905085565b6000600160003373ffffffffffffffffffffffffffffffffffffffff1673ffffffffffffffffffffffffffffffffffffffff16815260200190815260200160002090503373ffffffffffffffffffffffffffffffffffffffff168160010160009054906101000a900473ffffffffffffffffffffffffffffffffffffffff1673ffffffffffffffffffffffffffffffffffffffff1614610625576040517f08c379a000000000000000000000000000000000000000000000000000000000815260040161061c90611b1b565b60405180910390fd5b8173ffffffffffffffffffffffffffffffffffffffff163373ffffffffffffffffffffffffffffffffffffffff1614610693576040517f08c379a000000000000000000000000000000000000000000000000000000000815260040161068a90611b87565b60405180910390fd5b8060030160009054906101000a900460ff16156106e5576040517f08c379a00000000000000000000000000000000000000000000000000000000081526004016106dc90611bf3565b60405180910390fd5b60018160030160006101000a81548160ff0219169083151502179055506001600282600401548154811061071c5761071b611c13565b5b906000526020600020906005020160030160006101000a81548160ff0219169083151502179055506000600460003373ffffffffffffffffffffffffffffffffffffffff1673ffffffffffffffffffffffffffffffffffffffff16815260200190815260200160002090506000816003018190555081600201544211156107b757600181600101546107ae9190611c71565b81600101819055505b505050565b60046020528060005260406000206000915090508060000160009054906101000a900473ffffffffffffffffffffffffffffffffffffffff16908060000160149054906101000a900460ff16908060010154908060020160009054906101000a900460ff16908060030154908060040154905086565b60606002805480602002602001604051908101604052809291908181526020016000905b8282101561099f57838290600052602060002090600502016040518060a001604052908160008201805461088990611a9d565b80601f01602080910402602001604051908101604052809291908181526020018280546108b590611a9d565b80156109025780601f106108d757610100808354040283529160200191610902565b820191906000526020600020905b8154815290600101906020018083116108e557829003601f168201915b505050505081526020016001820160009054906101000a900473ffffffffffffffffffffffffffffffffffffffff1673ffffffffffffffffffffffffffffffffffffffff1673ffffffffffffffffffffffffffffffffffffffff168152602001600282015481526020016003820160009054906101000a900460ff1615151515815260200160048201548152505081526020019060010190610856565b50505050905090565b6000600460003373ffffffffffffffffffffffffffffffffffffffff1673ffffffffffffffffffffffffffffffffffffffff16815260200190815260200160002090508060000160149054906101000a900460ff1615610a3d576040517f08c379a0000000000000000000000000000000000000000000000000000000008152600401610a3490611d39565b60405180910390fd5b610a46336103b9565b81600301819055508060030154600554610a609190611c71565b816004018190555080600401543373ffffffffffffffffffffffffffffffffffffffff163111610ac5576040517f08c379a0000000000000000000000000000000000000000000000000000000008152600401610abc90611da5565b60405180910390fd5b6000600160003373ffffffffffffffffffffffffffffffffffffffff1673ffffffffffffffffffffffffffffffffffffffff168152602001908152602001600020905083816000019080519060200190610b20929190611273565b50338160010160006101000a81548173ffffffffffffffffffffffffffffffffffffffff021916908373ffffffffffffffffffffffffffffffffffffffff1602179055504283610b709190611c71565b816002018190555060008160030160006101000a81548160ff021916908315150217905550600354816004018190555060028190806001815401808255809150506001900390600052602060002090600502016000909190919091506000820181600001908054610be090611a9d565b610beb9291906112f9565b506001820160009054906101000a900473ffffffffffffffffffffffffffffffffffffffff168160010160006101000a81548173ffffffffffffffffffffffffffffffffffffffff021916908373ffffffffffffffffffffffffffffffffffffffff160217905550600282015481600201556003820160009054906101000a900460ff168160030160006101000a81548160ff0219169083151502179055506004820154816004015550508160020160009054906101000a900460ff16610d0d5760018260020160006101000a81548160ff021916908315150217905550338260000160006101000a81548173ffffffffffffffffffffffffffffffffffffffff021916908373ffffffffffffffffffffffffffffffffffffffff1602179055505b6001600460003373ffffffffffffffffffffffffffffffffffffffff1673ffffffffffffffffffffffffffffffffffffffff16815260200190815260200160002060000160146101000a81548160ff02191690831515021790555081600401546000803373ffffffffffffffffffffffffffffffffffffffff1673ffffffffffffffffffffffffffffffffffffffff16815260200190815260200160002054610db69190611c71565b6000803373ffffffffffffffffffffffffffffffffffffffff1673ffffffffffffffffffffffffffffffffffffffff1681526020019081526020016000208190555060036000815480929190610e0b90611dc5565b919050555050505050565b60035481565b6000600160008373ffffffffffffffffffffffffffffffffffffffff1673ffffffffffffffffffffffffffffffffffffffff16815260200190815260200160002090508373ffffffffffffffffffffffffffffffffffffffff163373ffffffffffffffffffffffffffffffffffffffff1614610ecd576040517f08c379a0000000000000000000000000000000000000000000000000000000008152600401610ec490611e5a565b60405180910390fd5b8060030160009054906101000a900460ff16610f1e576040517f08c379a0000000000000000000000000000000000000000000000000000000008152600401610f1590611ec6565b60405180910390fd5b6000600460008473ffffffffffffffffffffffffffffffffffffffff1673ffffffffffffffffffffffffffffffffffffffff168152602001908152602001600020905083156111b85760008160000160146101000a81548160ff0219169083151502179055508273ffffffffffffffffffffffffffffffffffffffff166108fc6000808673ffffffffffffffffffffffffffffffffffffffff1673ffffffffffffffffffffffffffffffffffffffff168152602001908152602001600020549081150290604051600060405180830381858888f19350505050158015611008573d6000803e3d6000fd5b506002600160028054905061101d9190611ee6565b8154811061102e5761102d611c13565b5b9060005260206000209060050201600283600401548154811061105457611053611c13565b5b9060005260206000209060050201600082018160000190805461107690611a9d565b6110819291906112f9565b506001820160009054906101000a900473ffffffffffffffffffffffffffffffffffffffff168160010160006101000a81548173ffffffffffffffffffffffffffffffffffffffff021916908373ffffffffffffffffffffffffffffffffffffffff160217905550600282015481600201556003820160009054906101000a900460ff168160030160006101000a81548160ff02191690831515021790555060048201548160040155905050600280548061113f5761113e611f1a565b5b6001900381819060005260206000209060050201600080820160006111649190611386565b6001820160006101000a81549073ffffffffffffffffffffffffffffffffffffffff021916905560028201600090556003820160006101000a81549060ff021916905560048201600090555050905561124e565b60008260030160006101000a81548160ff021916908315150217905550600060028360040154815481106111ef576111ee611c13565b5b906000526020600020906005020160030160006101000a81548160ff021916908315150217905550600181600101546112289190611c71565b816001018190555060018160000160146101000a81548160ff0219169083151502179055505b5050505050565b60055481565b60006020528060005260406000206000915090505481565b82805461127f90611a9d565b90600052602060002090601f0160209004810192826112a157600085556112e8565b82601f106112ba57805160ff19168380011785556112e8565b828001600101855582156112e8579182015b828111156112e75782518255916020019190600101906112cc565b5b5090506112f591906113c6565b5090565b82805461130590611a9d565b90600052602060002090601f0160209004810192826113275760008555611375565b82601f106113385780548555611375565b8280016001018555821561137557600052602060002091601f016020900482015b82811115611374578254825591600101919060010190611359565b5b50905061138291906113c6565b5090565b50805461139290611a9d565b6000825580601f106113a457506113c3565b601f0160209004906000526020600020908101906113c291906113c6565b5b50565b5b808211156113df5760008160009055506001016113c7565b5090565b6000604051905090565b600080fd5b600080fd5b600073ffffffffffffffffffffffffffffffffffffffff82169050919050565b6000611422826113f7565b9050919050565b61143281611417565b811461143d57600080fd5b50565b60008135905061144f81611429565b92915050565b60006020828403121561146b5761146a6113ed565b5b600061147984828501611440565b91505092915050565b600081519050919050565b600082825260208201905092915050565b60005b838110156114bc5780820151818401526020810190506114a1565b838111156114cb576000848401525b50505050565b6000601f19601f8301169050919050565b60006114ed82611482565b6114f7818561148d565b935061150781856020860161149e565b611510816114d1565b840191505092915050565b61152481611417565b82525050565b6000819050919050565b61153d8161152a565b82525050565b60008115159050919050565b61155881611543565b82525050565b600060a082019050818103600083015261157881886114e2565b9050611587602083018761151b565b6115946040830186611534565b6115a1606083018561154f565b6115ae6080830184611534565b9695505050505050565b60006020820190506115cd6000830184611534565b92915050565b6115dc8161152a565b81146115e757600080fd5b50565b6000813590506115f9816115d3565b92915050565b600060208284031215611615576116146113ed565b5b6000611623848285016115ea565b91505092915050565b600060c082019050611641600083018961151b565b61164e602083018861154f565b61165b6040830187611534565b611668606083018661154f565b6116756080830185611534565b61168260a0830184611534565b979650505050505050565b600081519050919050565b600082825260208201905092915050565b6000819050602082019050919050565b600082825260208201905092915050565b60006116d582611482565b6116df81856116b9565b93506116ef81856020860161149e565b6116f8816114d1565b840191505092915050565b61170c81611417565b82525050565b61171b8161152a565b82525050565b61172a81611543565b82525050565b600060a083016000830151848203600086015261174d82826116ca565b91505060208301516117626020860182611703565b5060408301516117756040860182611712565b5060608301516117886060860182611721565b50608083015161179b6080860182611712565b508091505092915050565b60006117b28383611730565b905092915050565b6000602082019050919050565b60006117d28261168d565b6117dc8185611698565b9350836020820285016117ee856116a9565b8060005b8581101561182a578484038952815161180b85826117a6565b9450611816836117ba565b925060208a019950506001810190506117f2565b50829750879550505050505092915050565b6000602082019050818103600083015261185681846117c7565b905092915050565b600080fd5b600080fd5b7f4e487b7100000000000000000000000000000000000000000000000000000000600052604160045260246000fd5b6118a0826114d1565b810181811067ffffffffffffffff821117156118bf576118be611868565b5b80604052505050565b60006118d26113e3565b90506118de8282611897565b919050565b600067ffffffffffffffff8211156118fe576118fd611868565b5b611907826114d1565b9050602081019050919050565b82818337600083830152505050565b6000611936611931846118e3565b6118c8565b90508281526020810184848401111561195257611951611863565b5b61195d848285611914565b509392505050565b600082601f83011261197a5761197961185e565b5b813561198a848260208601611923565b91505092915050565b600080604083850312156119aa576119a96113ed565b5b600083013567ffffffffffffffff8111156119c8576119c76113f2565b5b6119d485828601611965565b92505060206119e5858286016115ea565b9150509250929050565b6119f881611543565b8114611a0357600080fd5b50565b600081359050611a15816119ef565b92915050565b600080600060608486031215611a3457611a336113ed565b5b6000611a4286828701611440565b9350506020611a5386828701611a06565b9250506040611a6486828701611440565b9150509250925092565b7f4e487b7100000000000000000000000000000000000000000000000000000000600052602260045260246000fd5b60006002820490506001821680611ab557607f821691505b60208210811415611ac957611ac8611a6e565b5b50919050565b7f596f7520646964206e6f7420626f72726f77207468697320626f6f6b00000000600082015250565b6000611b05601c8361148d565b9150611b1082611acf565b602082019050919050565b60006020820190508181036000830152611b3481611af8565b9050919050565b7f556e617574686f72697a65642061636365737300000000000000000000000000600082015250565b6000611b7160138361148d565b9150611b7c82611b3b565b602082019050919050565b60006020820190508181036000830152611ba081611b64565b9050919050565b7f426f6f6b2072657475726e656400000000000000000000000000000000000000600082015250565b6000611bdd600d8361148d565b9150611be882611ba7565b602082019050919050565b60006020820190508181036000830152611c0c81611bd0565b9050919050565b7f4e487b7100000000000000000000000000000000000000000000000000000000600052603260045260246000fd5b7f4e487b7100000000000000000000000000000000000000000000000000000000600052601160045260246000fd5b6000611c7c8261152a565b9150611c878361152a565b9250827fffffffffffffffffffffffffffffffffffffffffffffffffffffffffffffffff03821115611cbc57611cbb611c42565b5b828201905092915050565b7f53747564656e7420686173206f75747374616e64696e67207375626d6973736960008201527f6f6e730000000000000000000000000000000000000000000000000000000000602082015250565b6000611d2360238361148d565b9150611d2e82611cc7565b604082019050919050565b60006020820190508181036000830152611d5281611d16565b9050919050565b7f536f7272792c20496e73756666696369656e742046756e647300000000000000600082015250565b6000611d8f60198361148d565b9150611d9a82611d59565b602082019050919050565b60006020820190508181036000830152611dbe81611d82565b9050919050565b6000611dd08261152a565b91507fffffffffffffffffffffffffffffffffffffffffffffffffffffffffffffffff821415611e0357611e02611c42565b5b600182019050919050565b7f6c696272617269616e2070726976696c6564676573206f6e6c79000000000000600082015250565b6000611e44601a8361148d565b9150611e4f82611e0e565b602082019050919050565b60006020820190508181036000830152611e7381611e37565b9050919050565b7f426f6f6b206e6f742072657475726e6564000000000000000000000000000000600082015250565b6000611eb060118361148d565b9150611ebb82611e7a565b602082019050919050565b60006020820190508181036000830152611edf81611ea3565b9050919050565b6000611ef18261152a565b9150611efc8361152a565b925082821015611f0f57611f0e611c42565b5b828203905092915050565b7f4e487b7100000000000000000000000000000000000000000000000000000000600052603160045260246000fdfea26469706673582212203684fb562eabffdbb2b8b6c813ddc6bbbfd703528e133d8bc870b9b02cc02bc664736f6c634300080a0033","opcodes":"PUSH1 0x80 PUSH1 0x40 MSTORE CALLVALUE DUP1 ISZERO PUSH2 0x10 JUMPI PUSH1 0x0 DUP1 REVERT JUMPDEST POP PUSH7 0x11C37937E08000 PUSH1 0x5 DUP2 SWAP1 SSTORE POP PUSH2 0x1F7F DUP1 PUSH2 0x2E PUSH1 0x0 CODECOPY PUSH1 0x0 RETURN INVALID PUSH1 0x80 PUSH1 0x40 MSTORE PUSH1 0x4 CALLDATASIZE LT PUSH2 0x9C JUMPI PUSH1 0x0 CALLDATALOAD PUSH1 0xE0 SHR DUP1 PUSH4 0x8CCCA18A GT PUSH2 0x64 JUMPI DUP1 PUSH4 0x8CCCA18A EQ PUSH2 0x1CB JUMPI DUP1 PUSH4 0xA9F0E7A4 EQ PUSH2 0x1F6 JUMPI DUP1 PUSH4 0xB049DE54 EQ PUSH2 0x212 JUMPI DUP1 PUSH4 0xB899D565 EQ PUSH2 0x23D JUMPI DUP1 PUSH4 0xD0E30DB0 EQ PUSH2 0x266 JUMPI DUP1 PUSH4 0xDD3CED63 EQ PUSH2 0x291 JUMPI PUSH2 0x9C JUMP JUMPDEST DUP1 PUSH4 0x941CB3D EQ PUSH2 0xA1 JUMPI DUP1 PUSH4 0x1A2A9AEA EQ PUSH2 0xE2 JUMPI DUP1 PUSH4 0x320F5C72 EQ PUSH2 0x11F JUMPI DUP1 PUSH4 0x6A27A888 EQ PUSH2 0x160 JUMPI DUP1 PUSH4 0x6EA2F53C EQ PUSH2 0x189 JUMPI JUMPDEST PUSH1 0x0 DUP1 REVERT JUMPDEST CALLVALUE DUP1 ISZERO PUSH2 0xAD JUMPI PUSH1 0x0 DUP1 REVERT JUMPDEST POP PUSH2 0xC8 PUSH1 0x4 DUP1 CALLDATASIZE SUB DUP2 ADD SWAP1 PUSH2 0xC3 SWAP2 SWAP1 PUSH2 0x1455 JUMP JUMPDEST PUSH2 0x2CE JUMP JUMPDEST PUSH1 0x40 MLOAD PUSH2 0xD9 SWAP6 SWAP5 SWAP4 SWAP3 SWAP2 SWAP1 PUSH2 0x155E JUMP JUMPDEST PUSH1 0x40 MLOAD DUP1 SWAP2 SUB SWAP1 RETURN JUMPDEST CALLVALUE DUP1 ISZERO PUSH2 0xEE JUMPI PUSH1 0x0 DUP1 REVERT JUMPDEST POP PUSH2 0x109 PUSH1 0x4 DUP1 CALLDATASIZE SUB DUP2 ADD SWAP1 PUSH2 0x104 SWAP2 SWAP1 PUSH2 0x1455 JUMP JUMPDEST PUSH2 0x3B9 JUMP JUMPDEST PUSH1 0x40 MLOAD PUSH2 0x116 SWAP2 SWAP1 PUSH2 0x15B8 JUMP JUMPDEST PUSH1 0x40 MLOAD DUP1 SWAP2 SUB SWAP1 RETURN JUMPDEST CALLVALUE DUP1 ISZERO PUSH2 0x12B JUMPI PUSH1 0x0 DUP1 REVERT JUMPDEST POP PUSH2 0x146 PUSH1 0x4 DUP1 CALLDATASIZE SUB DUP2 ADD SWAP1 PUSH2 0x141 SWAP2 SWAP1 PUSH2 0x15FF JUMP JUMPDEST PUSH2 0x455 JUMP JUMPDEST PUSH1 0x40 MLOAD PUSH2 0x157 SWAP6 SWAP5 SWAP4 SWAP3 SWAP2 SWAP1 PUSH2 0x155E JUMP JUMPDEST PUSH1 0x40 MLOAD DUP1 SWAP2 SUB SWAP1 RETURN JUMPDEST CALLVALUE DUP1 ISZERO PUSH2 0x16C JUMPI PUSH1 0x0 DUP1 REVERT JUMPDEST POP PUSH2 0x187 PUSH1 0x4 DUP1 CALLDATASIZE SUB DUP2 ADD SWAP1 PUSH2 0x182 SWAP2 SWAP1 PUSH2 0x1455 JUMP JUMPDEST PUSH2 0x550 JUMP JUMPDEST STOP JUMPDEST CALLVALUE DUP1 ISZERO PUSH2 0x195 JUMPI PUSH1 0x0 DUP1 REVERT JUMPDEST POP PUSH2 0x1B0 PUSH1 0x4 DUP1 CALLDATASIZE SUB DUP2 ADD SWAP1 PUSH2 0x1AB SWAP2 SWAP1 PUSH2 0x1455 JUMP JUMPDEST PUSH2 0x7BC JUMP JUMPDEST PUSH1 0x40 MLOAD PUSH2 0x1C2 SWAP7 SWAP6 SWAP5 SWAP4 SWAP3 SWAP2 SWAP1 PUSH2 0x162C JUMP JUMPDEST PUSH1 0x40 MLOAD DUP1 SWAP2 SUB SWAP1 RETURN JUMPDEST CALLVALUE DUP1 ISZERO PUSH2 0x1D7 JUMPI PUSH1 0x0 DUP1 REVERT JUMPDEST POP PUSH2 0x1E0 PUSH2 0x832 JUMP JUMPDEST PUSH1 0x40 MLOAD PUSH2 0x1ED SWAP2 SWAP1 PUSH2 0x183C JUMP JUMPDEST PUSH1 0x40 MLOAD DUP1 SWAP2 SUB SWAP1 RETURN JUMPDEST PUSH2 0x210 PUSH1 0x4 DUP1 CALLDATASIZE SUB DUP2 ADD SWAP1 PUSH2 0x20B SWAP2 SWAP1 PUSH2 0x1993 JUMP JUMPDEST PUSH2 0x9A8 JUMP JUMPDEST STOP JUMPDEST CALLVALUE DUP1 ISZERO PUSH2 0x21E JUMPI PUSH1 0x0 DUP1 REVERT JUMPDEST POP PUSH2 0x227 PUSH2 0xE16 JUMP JUMPDEST PUSH1 0x40 MLOAD PUSH2 0x234 SWAP2 SWAP1 PUSH2 0x15B8 JUMP JUMPDEST PUSH1 0x40 MLOAD DUP1 SWAP2 SUB SWAP1 RETURN JUMPDEST CALLVALUE DUP1 ISZERO PUSH2 0x249 JUMPI PUSH1 0x0 DUP1 REVERT JUMPDEST POP PUSH2 0x264 PUSH1 0x4 DUP1 CALLDATASIZE SUB DUP2 ADD SWAP1 PUSH2 0x25F SWAP2 SWAP1 PUSH2 0x1A1B JUMP JUMPDEST PUSH2 0xE1C JUMP JUMPDEST STOP JUMPDEST CALLVALUE DUP1 ISZERO PUSH2 0x272 JUMPI PUSH1 0x0 DUP1 REVERT JUMPDEST POP PUSH2 0x27B PUSH2 0x1255 JUMP JUMPDEST PUSH1 0x40 MLOAD PUSH2 0x288 SWAP2 SWAP1 PUSH2 0x15B8 JUMP JUMPDEST PUSH1 0x40 MLOAD DUP1 SWAP2 SUB SWAP1 RETURN JUMPDEST CALLVALUE DUP1 ISZERO PUSH2 0x29D JUMPI PUSH1 0x0 DUP1 REVERT JUMPDEST POP PUSH2 0x2B8 PUSH1 0x4 DUP1 CALLDATASIZE SUB DUP2 ADD SWAP1 PUSH2 0x2B3 SWAP2 SWAP1 PUSH2 0x1455 JUMP JUMPDEST PUSH2 0x125B JUMP JUMPDEST PUSH1 0x40 MLOAD PUSH2 0x2C5 SWAP2 SWAP1 PUSH2 0x15B8 JUMP JUMPDEST PUSH1 0x40 MLOAD DUP1 SWAP2 SUB SWAP1 RETURN JUMPDEST PUSH1 0x1 PUSH1 0x20 MSTORE DUP1 PUSH1 0x0 MSTORE PUSH1 0x40 PUSH1 0x0 KECCAK256 PUSH1 0x0 SWAP2 POP SWAP1 POP DUP1 PUSH1 0x0 ADD DUP1 SLOAD PUSH2 0x2F1 SWAP1 PUSH2 0x1A9D JUMP JUMPDEST DUP1 PUSH1 0x1F ADD PUSH1 0x20 DUP1 SWAP2 DIV MUL PUSH1 0x20 ADD PUSH1 0x40 MLOAD SWAP1 DUP2 ADD PUSH1 0x40 MSTORE DUP1 SWAP3 SWAP2 SWAP1 DUP2 DUP2 MSTORE PUSH1 0x20 ADD DUP3 DUP1 SLOAD PUSH2 0x31D SWAP1 PUSH2 0x1A9D JUMP JUMPDEST DUP1 ISZERO PUSH2 0x36A JUMPI DUP1 PUSH1 0x1F LT PUSH2 0x33F JUMPI PUSH2 0x100 DUP1 DUP4 SLOAD DIV MUL DUP4 MSTORE SWAP2 PUSH1 0x20 ADD SWAP2 PUSH2 0x36A JUMP JUMPDEST DUP3 ADD SWAP2 SWAP1 PUSH1 0x0 MSTORE PUSH1 0x20 PUSH1 0x0 KECCAK256 SWAP1 JUMPDEST DUP2 SLOAD DUP2 MSTORE SWAP1 PUSH1 0x1 ADD SWAP1 PUSH1 0x20 ADD DUP1 DUP4 GT PUSH2 0x34D JUMPI DUP3 SWAP1 SUB PUSH1 0x1F AND DUP3 ADD SWAP2 JUMPDEST POP POP POP POP POP SWAP1 DUP1 PUSH1 0x1 ADD PUSH1 0x0 SWAP1 SLOAD SWAP1 PUSH2 0x100 EXP SWAP1 DIV PUSH20 0xFFFFFFFFFFFFFFFFFFFFFFFFFFFFFFFFFFFFFFFF AND SWAP1 DUP1 PUSH1 0x2 ADD SLOAD SWAP1 DUP1 PUSH1 0x3 ADD PUSH1 0x0 SWAP1 SLOAD SWAP1 PUSH2 0x100 EXP SWAP1 DIV PUSH1 0xFF AND SWAP1 DUP1 PUSH1 0x4 ADD SLOAD SWAP1 POP DUP6 JUMP JUMPDEST PUSH1 0x0 DUP1 PUSH1 0x4 PUSH1 0x0 DUP5 PUSH20 0xFFFFFFFFFFFFFFFFFFFFFFFFFFFFFFFFFFFFFFFF AND PUSH20 0xFFFFFFFFFFFFFFFFFFFFFFFFFFFFFFFFFFFFFFFF AND DUP2 MSTORE PUSH1 0x20 ADD SWAP1 DUP2 MSTORE PUSH1 0x20 ADD PUSH1 0x0 KECCAK256 PUSH1 0x1 ADD SLOAD SWAP1 POP PUSH1 0x2 DUP2 GT PUSH2 0x413 JUMPI PUSH1 0x0 SWAP2 POP POP PUSH2 0x450 JUMP JUMPDEST PUSH1 0x5 DUP2 GT PUSH2 0x42B JUMPI PUSH7 0x38D7EA4C68000 SWAP2 POP POP PUSH2 0x450 JUMP JUMPDEST PUSH1 0x7 DUP2 GT PUSH2 0x443 JUMPI PUSH7 0x2386F26FC10000 SWAP2 POP POP PUSH2 0x450 JUMP JUMPDEST PUSH8 0x16345785D8A0000 SWAP2 POP POP JUMPDEST SWAP2 SWAP1 POP JUMP JUMPDEST PUSH1 0x2 DUP2 DUP2 SLOAD DUP2 LT PUSH2 0x465 JUMPI PUSH1 0x0 DUP1 REVERT JUMPDEST SWAP1 PUSH1 0x0 MSTORE PUSH1 0x20 PUSH1 0x0 KECCAK256 SWAP1 PUSH1 0x5 MUL ADD PUSH1 0x0 SWAP2 POP SWAP1 POP DUP1 PUSH1 0x0 ADD DUP1 SLOAD PUSH2 0x488 SWAP1 PUSH2 0x1A9D JUMP JUMPDEST DUP1 PUSH1 0x1F ADD PUSH1 0x20 DUP1 SWAP2 DIV MUL PUSH1 0x20 ADD PUSH1 0x40 MLOAD SWAP1 DUP2 ADD PUSH1 0x40 MSTORE DUP1 SWAP3 SWAP2 SWAP1 DUP2 DUP2 MSTORE PUSH1 0x20 ADD DUP3 DUP1 SLOAD PUSH2 0x4B4 SWAP1 PUSH2 0x1A9D JUMP JUMPDEST DUP1 ISZERO PUSH2 0x501 JUMPI DUP1 PUSH1 0x1F LT PUSH2 0x4D6 JUMPI PUSH2 0x100 DUP1 DUP4 SLOAD DIV MUL DUP4 MSTORE SWAP2 PUSH1 0x20 ADD SWAP2 PUSH2 0x501 JUMP JUMPDEST DUP3 ADD SWAP2 SWAP1 PUSH1 0x0 MSTORE PUSH1 0x20 PUSH1 0x0 KECCAK256 SWAP1 JUMPDEST DUP2 SLOAD DUP2 MSTORE SWAP1 PUSH1 0x1 ADD SWAP1 PUSH1 0x20 ADD DUP1 DUP4 GT PUSH2 0x4E4 JUMPI DUP3 SWAP1 SUB PUSH1 0x1F AND DUP3 ADD SWAP2 JUMPDEST POP POP POP POP POP SWAP1 DUP1 PUSH1 0x1 ADD PUSH1 0x0 SWAP1 SLOAD SWAP1 PUSH2 0x100 EXP SWAP1 DIV PUSH20 0xFFFFFFFFFFFFFFFFFFFFFFFFFFFFFFFFFFFFFFFF AND SWAP1 DUP1 PUSH1 0x2 ADD SLOAD SWAP1 DUP1 PUSH1 0x3 ADD PUSH1 0x0 SWAP1 SLOAD SWAP1 PUSH2 0x100 EXP SWAP1 DIV PUSH1 0xFF AND SWAP1 DUP1 PUSH1 0x4 ADD SLOAD SWAP1 POP DUP6 JUMP JUMPDEST PUSH1 0x0 PUSH1 0x1 PUSH1 0x0 CALLER PUSH20 0xFFFFFFFFFFFFFFFFFFFFFFFFFFFFFFFFFFFFFFFF AND PUSH20 0xFFFFFFFFFFFFFFFFFFFFFFFFFFFFFFFFFFFFFFFF AND DUP2 MSTORE PUSH1 0x20 ADD SWAP1 DUP2 MSTORE PUSH1 0x20 ADD PUSH1 0x0 KECCAK256 SWAP1 POP CALLER PUSH20 0xFFFFFFFFFFFFFFFFFFFFFFFFFFFFFFFFFFFFFFFF AND DUP2 PUSH1 0x1 ADD PUSH1 0x0 SWAP1 SLOAD SWAP1 PUSH2 0x100 EXP SWAP1 DIV PUSH20 0xFFFFFFFFFFFFFFFFFFFFFFFFFFFFFFFFFFFFFFFF AND PUSH20 0xFFFFFFFFFFFFFFFFFFFFFFFFFFFFFFFFFFFFFFFF AND EQ PUSH2 0x625 JUMPI PUSH1 0x40 MLOAD PUSH32 0x8C379A000000000000000000000000000000000000000000000000000000000 DUP2 MSTORE PUSH1 0x4 ADD PUSH2 0x61C SWAP1 PUSH2 0x1B1B JUMP JUMPDEST PUSH1 0x40 MLOAD DUP1 SWAP2 SUB SWAP1 REVERT JUMPDEST DUP2 PUSH20 0xFFFFFFFFFFFFFFFFFFFFFFFFFFFFFFFFFFFFFFFF AND CALLER PUSH20 0xFFFFFFFFFFFFFFFFFFFFFFFFFFFFFFFFFFFFFFFF AND EQ PUSH2 0x693 JUMPI PUSH1 0x40 MLOAD PUSH32 0x8C379A000000000000000000000000000000000000000000000000000000000 DUP2 MSTORE PUSH1 0x4 ADD PUSH2 0x68A SWAP1 PUSH2 0x1B87 JUMP JUMPDEST PUSH1 0x40 MLOAD DUP1 SWAP2 SUB SWAP1 REVERT JUMPDEST DUP1 PUSH1 0x3 ADD PUSH1 0x0 SWAP1 SLOAD SWAP1 PUSH2 0x100 EXP SWAP1 DIV PUSH1 0xFF AND ISZERO PUSH2 0x6E5 JUMPI PUSH1 0x40 MLOAD PUSH32 0x8C379A000000000000000000000000000000000000000000000000000000000 DUP2 MSTORE PUSH1 0x4 ADD PUSH2 0x6DC SWAP1 PUSH2 0x1BF3 JUMP JUMPDEST PUSH1 0x40 MLOAD DUP1 SWAP2 SUB SWAP1 REVERT JUMPDEST PUSH1 0x1 DUP2 PUSH1 0x3 ADD PUSH1 0x0 PUSH2 0x100 EXP DUP2 SLOAD DUP2 PUSH1 0xFF MUL NOT AND SWAP1 DUP4 ISZERO ISZERO MUL OR SWAP1 SSTORE POP PUSH1 0x1 PUSH1 0x2 DUP3 PUSH1 0x4 ADD SLOAD DUP2 SLOAD DUP2 LT PUSH2 0x71C JUMPI PUSH2 0x71B PUSH2 0x1C13 JUMP JUMPDEST JUMPDEST SWAP1 PUSH1 0x0 MSTORE PUSH1 0x20 PUSH1 0x0 KECCAK256 SWAP1 PUSH1 0x5 MUL ADD PUSH1 0x3 ADD PUSH1 0x0 PUSH2 0x100 EXP DUP2 SLOAD DUP2 PUSH1 0xFF MUL NOT AND SWAP1 DUP4 ISZERO ISZERO MUL OR SWAP1 SSTORE POP PUSH1 0x0 PUSH1 0x4 PUSH1 0x0 CALLER PUSH20 0xFFFFFFFFFFFFFFFFFFFFFFFFFFFFFFFFFFFFFFFF AND PUSH20 0xFFFFFFFFFFFFFFFFFFFFFFFFFFFFFFFFFFFFFFFF AND DUP2 MSTORE PUSH1 0x20 ADD SWAP1 DUP2 MSTORE PUSH1 0x20 ADD PUSH1 0x0 KECCAK256 SWAP1 POP PUSH1 0x0 DUP2 PUSH1 0x3 ADD DUP2 SWAP1 SSTORE POP DUP2 PUSH1 0x2 ADD SLOAD TIMESTAMP GT ISZERO PUSH2 0x7B7 JUMPI PUSH1 0x1 DUP2 PUSH1 0x1 ADD SLOAD PUSH2 0x7AE SWAP2 SWAP1 PUSH2 0x1C71 JUMP JUMPDEST DUP2 PUSH1 0x1 ADD DUP2 SWAP1 SSTORE POP JUMPDEST POP POP POP JUMP JUMPDEST PUSH1 0x4 PUSH1 0x20 MSTORE DUP1 PUSH1 0x0 MSTORE PUSH1 0x40 PUSH1 0x0 KECCAK256 PUSH1 0x0 SWAP2 POP SWAP1 POP DUP1 PUSH1 0x0 ADD PUSH1 0x0 SWAP1 SLOAD SWAP1 PUSH2 0x100 EXP SWAP1 DIV PUSH20 0xFFFFFFFFFFFFFFFFFFFFFFFFFFFFFFFFFFFFFFFF AND SWAP1 DUP1 PUSH1 0x0 ADD PUSH1 0x14 SWAP1 SLOAD SWAP1 PUSH2 0x100 EXP SWAP1 DIV PUSH1 0xFF AND SWAP1 DUP1 PUSH1 0x1 ADD SLOAD SWAP1 DUP1 PUSH1 0x2 ADD PUSH1 0x0 SWAP1 SLOAD SWAP1 PUSH2 0x100 EXP SWAP1 DIV PUSH1 0xFF AND SWAP1 DUP1 PUSH1 0x3 ADD SLOAD SWAP1 DUP1 PUSH1 0x4 ADD SLOAD SWAP1 POP DUP7 JUMP JUMPDEST PUSH1 0x60 PUSH1 0x2 DUP1 SLOAD DUP1 PUSH1 0x20 MUL PUSH1 0x20 ADD PUSH1 0x40 MLOAD SWAP1 DUP2 ADD PUSH1 0x40 MSTORE DUP1 SWAP3 SWAP2 SWAP1 DUP2 DUP2 MSTORE PUSH1 0x20 ADD PUSH1 0x0 SWAP1 JUMPDEST DUP3 DUP3 LT ISZERO PUSH2 0x99F JUMPI DUP4 DUP3 SWAP1 PUSH1 0x0 MSTORE PUSH1 0x20 PUSH1 0x0 KECCAK256 SWAP1 PUSH1 0x5 MUL ADD PUSH1 0x40 MLOAD DUP1 PUSH1 0xA0 ADD PUSH1 0x40 MSTORE SWAP1 DUP2 PUSH1 0x0 DUP3 ADD DUP1 SLOAD PUSH2 0x889 SWAP1 PUSH2 0x1A9D JUMP JUMPDEST DUP1 PUSH1 0x1F ADD PUSH1 0x20 DUP1 SWAP2 DIV MUL PUSH1 0x20 ADD PUSH1 0x40 MLOAD SWAP1 DUP2 ADD PUSH1 0x40 MSTORE DUP1 SWAP3 SWAP2 SWAP1 DUP2 DUP2 MSTORE PUSH1 0x20 ADD DUP3 DUP1 SLOAD PUSH2 0x8B5 SWAP1 PUSH2 0x1A9D JUMP JUMPDEST DUP1 ISZERO PUSH2 0x902 JUMPI DUP1 PUSH1 0x1F LT PUSH2 0x8D7 JUMPI PUSH2 0x100 DUP1 DUP4 SLOAD DIV MUL DUP4 MSTORE SWAP2 PUSH1 0x20 ADD SWAP2 PUSH2 0x902 JUMP JUMPDEST DUP3 ADD SWAP2 SWAP1 PUSH1 0x0 MSTORE PUSH1 0x20 PUSH1 0x0 KECCAK256 SWAP1 JUMPDEST DUP2 SLOAD DUP2 MSTORE SWAP1 PUSH1 0x1 ADD SWAP1 PUSH1 0x20 ADD DUP1 DUP4 GT PUSH2 0x8E5 JUMPI DUP3 SWAP1 SUB PUSH1 0x1F AND DUP3 ADD SWAP2 JUMPDEST POP POP POP POP POP DUP2 MSTORE PUSH1 0x20 ADD PUSH1 0x1 DUP3 ADD PUSH1 0x0 SWAP1 SLOAD SWAP1 PUSH2 0x100 EXP SWAP1 DIV PUSH20 0xFFFFFFFFFFFFFFFFFFFFFFFFFFFFFFFFFFFFFFFF AND PUSH20 0xFFFFFFFFFFFFFFFFFFFFFFFFFFFFFFFFFFFFFFFF AND PUSH20 0xFFFFFFFFFFFFFFFFFFFFFFFFFFFFFFFFFFFFFFFF AND DUP2 MSTORE PUSH1 0x20 ADD PUSH1 0x2 DUP3 ADD SLOAD DUP2 MSTORE PUSH1 0x20 ADD PUSH1 0x3 DUP3 ADD PUSH1 0x0 SWAP1 SLOAD SWAP1 PUSH2 0x100 EXP SWAP1 DIV PUSH1 0xFF AND ISZERO ISZERO ISZERO ISZERO DUP2 MSTORE PUSH1 0x20 ADD PUSH1 0x4 DUP3 ADD SLOAD DUP2 MSTORE POP POP DUP2 MSTORE PUSH1 0x20 ADD SWAP1 PUSH1 0x1 ADD SWAP1 PUSH2 0x856 JUMP JUMPDEST POP POP POP POP SWAP1 POP SWAP1 JUMP JUMPDEST PUSH1 0x0 PUSH1 0x4 PUSH1 0x0 CALLER PUSH20 0xFFFFFFFFFFFFFFFFFFFFFFFFFFFFFFFFFFFFFFFF AND PUSH20 0xFFFFFFFFFFFFFFFFFFFFFFFFFFFFFFFFFFFFFFFF AND DUP2 MSTORE PUSH1 0x20 ADD SWAP1 DUP2 MSTORE PUSH1 0x20 ADD PUSH1 0x0 KECCAK256 SWAP1 POP DUP1 PUSH1 0x0 ADD PUSH1 0x14 SWAP1 SLOAD SWAP1 PUSH2 0x100 EXP SWAP1 DIV PUSH1 0xFF AND ISZERO PUSH2 0xA3D JUMPI PUSH1 0x40 MLOAD PUSH32 0x8C379A000000000000000000000000000000000000000000000000000000000 DUP2 MSTORE PUSH1 0x4 ADD PUSH2 0xA34 SWAP1 PUSH2 0x1D39 JUMP JUMPDEST PUSH1 0x40 MLOAD DUP1 SWAP2 SUB SWAP1 REVERT JUMPDEST PUSH2 0xA46 CALLER PUSH2 0x3B9 JUMP JUMPDEST DUP2 PUSH1 0x3 ADD DUP2 SWAP1 SSTORE POP DUP1 PUSH1 0x3 ADD SLOAD PUSH1 0x5 SLOAD PUSH2 0xA60 SWAP2 SWAP1 PUSH2 0x1C71 JUMP JUMPDEST DUP2 PUSH1 0x4 ADD DUP2 SWAP1 SSTORE POP DUP1 PUSH1 0x4 ADD SLOAD CALLER PUSH20 0xFFFFFFFFFFFFFFFFFFFFFFFFFFFFFFFFFFFFFFFF AND BALANCE GT PUSH2 0xAC5 JUMPI PUSH1 0x40 MLOAD PUSH32 0x8C379A000000000000000000000000000000000000000000000000000000000 DUP2 MSTORE PUSH1 0x4 ADD PUSH2 0xABC SWAP1 PUSH2 0x1DA5 JUMP JUMPDEST PUSH1 0x40 MLOAD DUP1 SWAP2 SUB SWAP1 REVERT JUMPDEST PUSH1 0x0 PUSH1 0x1 PUSH1 0x0 CALLER PUSH20 0xFFFFFFFFFFFFFFFFFFFFFFFFFFFFFFFFFFFFFFFF AND PUSH20 0xFFFFFFFFFFFFFFFFFFFFFFFFFFFFFFFFFFFFFFFF AND DUP2 MSTORE PUSH1 0x20 ADD SWAP1 DUP2 MSTORE PUSH1 0x20 ADD PUSH1 0x0 KECCAK256 SWAP1 POP DUP4 DUP2 PUSH1 0x0 ADD SWAP1 DUP1 MLOAD SWAP1 PUSH1 0x20 ADD SWAP1 PUSH2 0xB20 SWAP3 SWAP2 SWAP1 PUSH2 0x1273 JUMP JUMPDEST POP CALLER DUP2 PUSH1 0x1 ADD PUSH1 0x0 PUSH2 0x100 EXP DUP2 SLOAD DUP2 PUSH20 0xFFFFFFFFFFFFFFFFFFFFFFFFFFFFFFFFFFFFFFFF MUL NOT AND SWAP1 DUP4 PUSH20 0xFFFFFFFFFFFFFFFFFFFFFFFFFFFFFFFFFFFFFFFF AND MUL OR SWAP1 SSTORE POP TIMESTAMP DUP4 PUSH2 0xB70 SWAP2 SWAP1 PUSH2 0x1C71 JUMP JUMPDEST DUP2 PUSH1 0x2 ADD DUP2 SWAP1 SSTORE POP PUSH1 0x0 DUP2 PUSH1 0x3 ADD PUSH1 0x0 PUSH2 0x100 EXP DUP2 SLOAD DUP2 PUSH1 0xFF MUL NOT AND SWAP1 DUP4 ISZERO ISZERO MUL OR SWAP1 SSTORE POP PUSH1 0x3 SLOAD DUP2 PUSH1 0x4 ADD DUP2 SWAP1 SSTORE POP PUSH1 0x2 DUP2 SWAP1 DUP1 PUSH1 0x1 DUP2 SLOAD ADD DUP1 DUP3 SSTORE DUP1 SWAP2 POP POP PUSH1 0x1 SWAP1 SUB SWAP1 PUSH1 0x0 MSTORE PUSH1 0x20 PUSH1 0x0 KECCAK256 SWAP1 PUSH1 0x5 MUL ADD PUSH1 0x0 SWAP1 SWAP2 SWAP1 SWAP2 SWAP1 SWAP2 POP PUSH1 0x0 DUP3 ADD DUP2 PUSH1 0x0 ADD SWAP1 DUP1 SLOAD PUSH2 0xBE0 SWAP1 PUSH2 0x1A9D JUMP JUMPDEST PUSH2 0xBEB SWAP3 SWAP2 SWAP1 PUSH2 0x12F9 JUMP JUMPDEST POP PUSH1 0x1 DUP3 ADD PUSH1 0x0 SWAP1 SLOAD SWAP1 PUSH2 0x100 EXP SWAP1 DIV PUSH20 0xFFFFFFFFFFFFFFFFFFFFFFFFFFFFFFFFFFFFFFFF AND DUP2 PUSH1 0x1 ADD PUSH1 0x0 PUSH2 0x100 EXP DUP2 SLOAD DUP2 PUSH20 0xFFFFFFFFFFFFFFFFFFFFFFFFFFFFFFFFFFFFFFFF MUL NOT AND SWAP1 DUP4 PUSH20 0xFFFFFFFFFFFFFFFFFFFFFFFFFFFFFFFFFFFFFFFF AND MUL OR SWAP1 SSTORE POP PUSH1 0x2 DUP3 ADD SLOAD DUP2 PUSH1 0x2 ADD SSTORE PUSH1 0x3 DUP3 ADD PUSH1 0x0 SWAP1 SLOAD SWAP1 PUSH2 0x100 EXP SWAP1 DIV PUSH1 0xFF AND DUP2 PUSH1 0x3 ADD PUSH1 0x0 PUSH2 0x100 EXP DUP2 SLOAD DUP2 PUSH1 0xFF MUL NOT AND SWAP1 DUP4 ISZERO ISZERO MUL OR SWAP1 SSTORE POP PUSH1 0x4 DUP3 ADD SLOAD DUP2 PUSH1 0x4 ADD SSTORE POP POP DUP2 PUSH1 0x2 ADD PUSH1 0x0 SWAP1 SLOAD SWAP1 PUSH2 0x100 EXP SWAP1 DIV PUSH1 0xFF AND PUSH2 0xD0D JUMPI PUSH1 0x1 DUP3 PUSH1 0x2 ADD PUSH1 0x0 PUSH2 0x100 EXP DUP2 SLOAD DUP2 PUSH1 0xFF MUL NOT AND SWAP1 DUP4 ISZERO ISZERO MUL OR SWAP1 SSTORE POP CALLER DUP3 PUSH1 0x0 ADD PUSH1 0x0 PUSH2 0x100 EXP DUP2 SLOAD DUP2 PUSH20 0xFFFFFFFFFFFFFFFFFFFFFFFFFFFFFFFFFFFFFFFF MUL NOT AND SWAP1 DUP4 PUSH20 0xFFFFFFFFFFFFFFFFFFFFFFFFFFFFFFFFFFFFFFFF AND MUL OR SWAP1 SSTORE POP JUMPDEST PUSH1 0x1 PUSH1 0x4 PUSH1 0x0 CALLER PUSH20 0xFFFFFFFFFFFFFFFFFFFFFFFFFFFFFFFFFFFFFFFF AND PUSH20 0xFFFFFFFFFFFFFFFFFFFFFFFFFFFFFFFFFFFFFFFF AND DUP2 MSTORE PUSH1 0x20 ADD SWAP1 DUP2 MSTORE PUSH1 0x20 ADD PUSH1 0x0 KECCAK256 PUSH1 0x0 ADD PUSH1 0x14 PUSH2 0x100 EXP DUP2 SLOAD DUP2 PUSH1 0xFF MUL NOT AND SWAP1 DUP4 ISZERO ISZERO MUL OR SWAP1 SSTORE POP DUP2 PUSH1 0x4 ADD SLOAD PUSH1 0x0 DUP1 CALLER PUSH20 0xFFFFFFFFFFFFFFFFFFFFFFFFFFFFFFFFFFFFFFFF AND PUSH20 0xFFFFFFFFFFFFFFFFFFFFFFFFFFFFFFFFFFFFFFFF AND DUP2 MSTORE PUSH1 0x20 ADD SWAP1 DUP2 MSTORE PUSH1 0x20 ADD PUSH1 0x0 KECCAK256 SLOAD PUSH2 0xDB6 SWAP2 SWAP1 PUSH2 0x1C71 JUMP JUMPDEST PUSH1 0x0 DUP1 CALLER PUSH20 0xFFFFFFFFFFFFFFFFFFFFFFFFFFFFFFFFFFFFFFFF AND PUSH20 0xFFFFFFFFFFFFFFFFFFFFFFFFFFFFFFFFFFFFFFFF AND DUP2 MSTORE PUSH1 0x20 ADD SWAP1 DUP2 MSTORE PUSH1 0x20 ADD PUSH1 0x0 KECCAK256 DUP2 SWAP1 SSTORE POP PUSH1 0x3 PUSH1 0x0 DUP2 SLOAD DUP1 SWAP3 SWAP2 SWAP1 PUSH2 0xE0B SWAP1 PUSH2 0x1DC5 JUMP JUMPDEST SWAP2 SWAP1 POP SSTORE POP POP POP POP POP JUMP JUMPDEST PUSH1 0x3 SLOAD DUP2 JUMP JUMPDEST PUSH1 0x0 PUSH1 0x1 PUSH1 0x0 DUP4 PUSH20 0xFFFFFFFFFFFFFFFFFFFFFFFFFFFFFFFFFFFFFFFF AND PUSH20 0xFFFFFFFFFFFFFFFFFFFFFFFFFFFFFFFFFFFFFFFF AND DUP2 MSTORE PUSH1 0x20 ADD SWAP1 DUP2 MSTORE PUSH1 0x20 ADD PUSH1 0x0 KECCAK256 SWAP1 POP DUP4 PUSH20 0xFFFFFFFFFFFFFFFFFFFFFFFFFFFFFFFFFFFFFFFF AND CALLER PUSH20 0xFFFFFFFFFFFFFFFFFFFFFFFFFFFFFFFFFFFFFFFF AND EQ PUSH2 0xECD JUMPI PUSH1 0x40 MLOAD PUSH32 0x8C379A000000000000000000000000000000000000000000000000000000000 DUP2 MSTORE PUSH1 0x4 ADD PUSH2 0xEC4 SWAP1 PUSH2 0x1E5A JUMP JUMPDEST PUSH1 0x40 MLOAD DUP1 SWAP2 SUB SWAP1 REVERT JUMPDEST DUP1 PUSH1 0x3 ADD PUSH1 0x0 SWAP1 SLOAD SWAP1 PUSH2 0x100 EXP SWAP1 DIV PUSH1 0xFF AND PUSH2 0xF1E JUMPI PUSH1 0x40 MLOAD PUSH32 0x8C379A000000000000000000000000000000000000000000000000000000000 DUP2 MSTORE PUSH1 0x4 ADD PUSH2 0xF15 SWAP1 PUSH2 0x1EC6 JUMP JUMPDEST PUSH1 0x40 MLOAD DUP1 SWAP2 SUB SWAP1 REVERT JUMPDEST PUSH1 0x0 PUSH1 0x4 PUSH1 0x0 DUP5 PUSH20 0xFFFFFFFFFFFFFFFFFFFFFFFFFFFFFFFFFFFFFFFF AND PUSH20 0xFFFFFFFFFFFFFFFFFFFFFFFFFFFFFFFFFFFFFFFF AND DUP2 MSTORE PUSH1 0x20 ADD SWAP1 DUP2 MSTORE PUSH1 0x20 ADD PUSH1 0x0 KECCAK256 SWAP1 POP DUP4 ISZERO PUSH2 0x11B8 JUMPI PUSH1 0x0 DUP2 PUSH1 0x0 ADD PUSH1 0x14 PUSH2 0x100 EXP DUP2 SLOAD DUP2 PUSH1 0xFF MUL NOT AND SWAP1 DUP4 ISZERO ISZERO MUL OR SWAP1 SSTORE POP DUP3 PUSH20 0xFFFFFFFFFFFFFFFFFFFFFFFFFFFFFFFFFFFFFFFF AND PUSH2 0x8FC PUSH1 0x0 DUP1 DUP7 PUSH20 0xFFFFFFFFFFFFFFFFFFFFFFFFFFFFFFFFFFFFFFFF AND PUSH20 0xFFFFFFFFFFFFFFFFFFFFFFFFFFFFFFFFFFFFFFFF AND DUP2 MSTORE PUSH1 0x20 ADD SWAP1 DUP2 MSTORE PUSH1 0x20 ADD PUSH1 0x0 KECCAK256 SLOAD SWAP1 DUP2 ISZERO MUL SWAP1 PUSH1 0x40 MLOAD PUSH1 0x0 PUSH1 0x40 MLOAD DUP1 DUP4 SUB DUP2 DUP6 DUP9 DUP9 CALL SWAP4 POP POP POP POP ISZERO DUP1 ISZERO PUSH2 0x1008 JUMPI RETURNDATASIZE PUSH1 0x0 DUP1 RETURNDATACOPY RETURNDATASIZE PUSH1 0x0 REVERT JUMPDEST POP PUSH1 0x2 PUSH1 0x1 PUSH1 0x2 DUP1 SLOAD SWAP1 POP PUSH2 0x101D SWAP2 SWAP1 PUSH2 0x1EE6 JUMP JUMPDEST DUP2 SLOAD DUP2 LT PUSH2 0x102E JUMPI PUSH2 0x102D PUSH2 0x1C13 JUMP JUMPDEST JUMPDEST SWAP1 PUSH1 0x0 MSTORE PUSH1 0x20 PUSH1 0x0 KECCAK256 SWAP1 PUSH1 0x5 MUL ADD PUSH1 0x2 DUP4 PUSH1 0x4 ADD SLOAD DUP2 SLOAD DUP2 LT PUSH2 0x1054 JUMPI PUSH2 0x1053 PUSH2 0x1C13 JUMP JUMPDEST JUMPDEST SWAP1 PUSH1 0x0 MSTORE PUSH1 0x20 PUSH1 0x0 KECCAK256 SWAP1 PUSH1 0x5 MUL ADD PUSH1 0x0 DUP3 ADD DUP2 PUSH1 0x0 ADD SWAP1 DUP1 SLOAD PUSH2 0x1076 SWAP1 PUSH2 0x1A9D JUMP JUMPDEST PUSH2 0x1081 SWAP3 SWAP2 SWAP1 PUSH2 0x12F9 JUMP JUMPDEST POP PUSH1 0x1 DUP3 ADD PUSH1 0x0 SWAP1 SLOAD SWAP1 PUSH2 0x100 EXP SWAP1 DIV PUSH20 0xFFFFFFFFFFFFFFFFFFFFFFFFFFFFFFFFFFFFFFFF AND DUP2 PUSH1 0x1 ADD PUSH1 0x0 PUSH2 0x100 EXP DUP2 SLOAD DUP2 PUSH20 0xFFFFFFFFFFFFFFFFFFFFFFFFFFFFFFFFFFFFFFFF MUL NOT AND SWAP1 DUP4 PUSH20 0xFFFFFFFFFFFFFFFFFFFFFFFFFFFFFFFFFFFFFFFF AND MUL OR SWAP1 SSTORE POP PUSH1 0x2 DUP3 ADD SLOAD DUP2 PUSH1 0x2 ADD SSTORE PUSH1 0x3 DUP3 ADD PUSH1 0x0 SWAP1 SLOAD SWAP1 PUSH2 0x100 EXP SWAP1 DIV PUSH1 0xFF AND DUP2 PUSH1 0x3 ADD PUSH1 0x0 PUSH2 0x100 EXP DUP2 SLOAD DUP2 PUSH1 0xFF MUL NOT AND SWAP1 DUP4 ISZERO ISZERO MUL OR SWAP1 SSTORE POP PUSH1 0x4 DUP3 ADD SLOAD DUP2 PUSH1 0x4 ADD SSTORE SWAP1 POP POP PUSH1 0x2 DUP1 SLOAD DUP1 PUSH2 0x113F JUMPI PUSH2 0x113E PUSH2 0x1F1A JUMP JUMPDEST JUMPDEST PUSH1 0x1 SWAP1 SUB DUP2 DUP2 SWAP1 PUSH1 0x0 MSTORE PUSH1 0x20 PUSH1 0x0 KECCAK256 SWAP1 PUSH1 0x5 MUL ADD PUSH1 0x0 DUP1 DUP3 ADD PUSH1 0x0 PUSH2 0x1164 SWAP2 SWAP1 PUSH2 0x1386 JUMP JUMPDEST PUSH1 0x1 DUP3 ADD PUSH1 0x0 PUSH2 0x100 EXP DUP2 SLOAD SWAP1 PUSH20 0xFFFFFFFFFFFFFFFFFFFFFFFFFFFFFFFFFFFFFFFF MUL NOT AND SWAP1 SSTORE PUSH1 0x2 DUP3 ADD PUSH1 0x0 SWAP1 SSTORE PUSH1 0x3 DUP3 ADD PUSH1 0x0 PUSH2 0x100 EXP DUP2 SLOAD SWAP1 PUSH1 0xFF MUL NOT AND SWAP1 SSTORE PUSH1 0x4 DUP3 ADD PUSH1 0x0 SWAP1 SSTORE POP POP SWAP1 SSTORE PUSH2 0x124E JUMP JUMPDEST PUSH1 0x0 DUP3 PUSH1 0x3 ADD PUSH1 0x0 PUSH2 0x100 EXP DUP2 SLOAD DUP2 PUSH1 0xFF MUL NOT AND SWAP1 DUP4 ISZERO ISZERO MUL OR SWAP1 SSTORE POP PUSH1 0x0 PUSH1 0x2 DUP4 PUSH1 0x4 ADD SLOAD DUP2 SLOAD DUP2 LT PUSH2 0x11EF JUMPI PUSH2 0x11EE PUSH2 0x1C13 JUMP JUMPDEST JUMPDEST SWAP1 PUSH1 0x0 MSTORE PUSH1 0x20 PUSH1 0x0 KECCAK256 SWAP1 PUSH1 0x5 MUL ADD PUSH1 0x3 ADD PUSH1 0x0 PUSH2 0x100 EXP DUP2 SLOAD DUP2 PUSH1 0xFF MUL NOT AND SWAP1 DUP4 ISZERO ISZERO MUL OR SWAP1 SSTORE POP PUSH1 0x1 DUP2 PUSH1 0x1 ADD SLOAD PUSH2 0x1228 SWAP2 SWAP1 PUSH2 0x1C71 JUMP JUMPDEST DUP2 PUSH1 0x1 ADD DUP2 SWAP1 SSTORE POP PUSH1 0x1 DUP2 PUSH1 0x0 ADD PUSH1 0x14 PUSH2 0x100 EXP DUP2 SLOAD DUP2 PUSH1 0xFF MUL NOT AND SWAP1 DUP4 ISZERO ISZERO MUL OR SWAP1 SSTORE POP JUMPDEST POP POP POP POP POP JUMP JUMPDEST PUSH1 0x5 SLOAD DUP2 JUMP JUMPDEST PUSH1 0x0 PUSH1 0x20 MSTORE DUP1 PUSH1 0x0 MSTORE PUSH1 0x40 PUSH1 0x0 KECCAK256 PUSH1 0x0 SWAP2 POP SWAP1 POP SLOAD DUP2 JUMP JUMPDEST DUP3 DUP1 SLOAD PUSH2 0x127F SWAP1 PUSH2 0x1A9D JUMP JUMPDEST SWAP1 PUSH1 0x0 MSTORE PUSH1 0x20 PUSH1 0x0 KECCAK256 SWAP1 PUSH1 0x1F ADD PUSH1 0x20 SWAP1 DIV DUP2 ADD SWAP3 DUP3 PUSH2 0x12A1 JUMPI PUSH1 0x0 DUP6 SSTORE PUSH2 0x12E8 JUMP JUMPDEST DUP3 PUSH1 0x1F LT PUSH2 0x12BA JUMPI DUP1 MLOAD PUSH1 0xFF NOT AND DUP4 DUP1 ADD OR DUP6 SSTORE PUSH2 0x12E8 JUMP JUMPDEST DUP3 DUP1 ADD PUSH1 0x1 ADD DUP6 SSTORE DUP3 ISZERO PUSH2 0x12E8 JUMPI SWAP2 DUP3 ADD JUMPDEST DUP3 DUP2 GT ISZERO PUSH2 0x12E7 JUMPI DUP3 MLOAD DUP3 SSTORE SWAP2 PUSH1 0x20 ADD SWAP2 SWAP1 PUSH1 0x1 ADD SWAP1 PUSH2 0x12CC JUMP JUMPDEST JUMPDEST POP SWAP1 POP PUSH2 0x12F5 SWAP2 SWAP1 PUSH2 0x13C6 JUMP JUMPDEST POP SWAP1 JUMP JUMPDEST DUP3 DUP1 SLOAD PUSH2 0x1305 SWAP1 PUSH2 0x1A9D JUMP JUMPDEST SWAP1 PUSH1 0x0 MSTORE PUSH1 0x20 PUSH1 0x0 KECCAK256 SWAP1 PUSH1 0x1F ADD PUSH1 0x20 SWAP1 DIV DUP2 ADD SWAP3 DUP3 PUSH2 0x1327 JUMPI PUSH1 0x0 DUP6 SSTORE PUSH2 0x1375 JUMP JUMPDEST DUP3 PUSH1 0x1F LT PUSH2 0x1338 JUMPI DUP1 SLOAD DUP6 SSTORE PUSH2 0x1375 JUMP JUMPDEST DUP3 DUP1 ADD PUSH1 0x1 ADD DUP6 SSTORE DUP3 ISZERO PUSH2 0x1375 JUMPI PUSH1 0x0 MSTORE PUSH1 0x20 PUSH1 0x0 KECCAK256 SWAP2 PUSH1 0x1F ADD PUSH1 0x20 SWAP1 DIV DUP3 ADD JUMPDEST DUP3 DUP2 GT ISZERO PUSH2 0x1374 JUMPI DUP3 SLOAD DUP3 SSTORE SWAP2 PUSH1 0x1 ADD SWAP2 SWAP1 PUSH1 0x1 ADD SWAP1 PUSH2 0x1359 JUMP JUMPDEST JUMPDEST POP SWAP1 POP PUSH2 0x1382 SWAP2 SWAP1 PUSH2 0x13C6 JUMP JUMPDEST POP SWAP1 JUMP JUMPDEST POP DUP1 SLOAD PUSH2 0x1392 SWAP1 PUSH2 0x1A9D JUMP JUMPDEST PUSH1 0x0 DUP3 SSTORE DUP1 PUSH1 0x1F LT PUSH2 0x13A4 JUMPI POP PUSH2 0x13C3 JUMP JUMPDEST PUSH1 0x1F ADD PUSH1 0x20 SWAP1 DIV SWAP1 PUSH1 0x0 MSTORE PUSH1 0x20 PUSH1 0x0 KECCAK256 SWAP1 DUP2 ADD SWAP1 PUSH2 0x13C2 SWAP2 SWAP1 PUSH2 0x13C6 JUMP JUMPDEST JUMPDEST POP JUMP JUMPDEST JUMPDEST DUP1 DUP3 GT ISZERO PUSH2 0x13DF JUMPI PUSH1 0x0 DUP2 PUSH1 0x0 SWAP1 SSTORE POP PUSH1 0x1 ADD PUSH2 0x13C7 JUMP JUMPDEST POP SWAP1 JUMP JUMPDEST PUSH1 0x0 PUSH1 0x40 MLOAD SWAP1 POP SWAP1 JUMP JUMPDEST PUSH1 0x0 DUP1 REVERT JUMPDEST PUSH1 0x0 DUP1 REVERT JUMPDEST PUSH1 0x0 PUSH20 0xFFFFFFFFFFFFFFFFFFFFFFFFFFFFFFFFFFFFFFFF DUP3 AND SWAP1 POP SWAP2 SWAP1 POP JUMP JUMPDEST PUSH1 0x0 PUSH2 0x1422 DUP3 PUSH2 0x13F7 JUMP JUMPDEST SWAP1 POP SWAP2 SWAP1 POP JUMP JUMPDEST PUSH2 0x1432 DUP2 PUSH2 0x1417 JUMP JUMPDEST DUP2 EQ PUSH2 0x143D JUMPI PUSH1 0x0 DUP1 REVERT JUMPDEST POP JUMP JUMPDEST PUSH1 0x0 DUP2 CALLDATALOAD SWAP1 POP PUSH2 0x144F DUP2 PUSH2 0x1429 JUMP JUMPDEST SWAP3 SWAP2 POP POP JUMP JUMPDEST PUSH1 0x0 PUSH1 0x20 DUP3 DUP5 SUB SLT ISZERO PUSH2 0x146B JUMPI PUSH2 0x146A PUSH2 0x13ED JUMP JUMPDEST JUMPDEST PUSH1 0x0 PUSH2 0x1479 DUP5 DUP3 DUP6 ADD PUSH2 0x1440 JUMP JUMPDEST SWAP2 POP POP SWAP3 SWAP2 POP POP JUMP JUMPDEST PUSH1 0x0 DUP2 MLOAD SWAP1 POP SWAP2 SWAP1 POP JUMP JUMPDEST PUSH1 0x0 DUP3 DUP3 MSTORE PUSH1 0x20 DUP3 ADD SWAP1 POP SWAP3 SWAP2 POP POP JUMP JUMPDEST PUSH1 0x0 JUMPDEST DUP4 DUP2 LT ISZERO PUSH2 0x14BC JUMPI DUP1 DUP3 ADD MLOAD DUP2 DUP5 ADD MSTORE PUSH1 0x20 DUP2 ADD SWAP1 POP PUSH2 0x14A1 JUMP JUMPDEST DUP4 DUP2 GT ISZERO PUSH2 0x14CB JUMPI PUSH1 0x0 DUP5 DUP5 ADD MSTORE JUMPDEST POP POP POP POP JUMP JUMPDEST PUSH1 0x0 PUSH1 0x1F NOT PUSH1 0x1F DUP4 ADD AND SWAP1 POP SWAP2 SWAP1 POP JUMP JUMPDEST PUSH1 0x0 PUSH2 0x14ED DUP3 PUSH2 0x1482 JUMP JUMPDEST PUSH2 0x14F7 DUP2 DUP6 PUSH2 0x148D JUMP JUMPDEST SWAP4 POP PUSH2 0x1507 DUP2 DUP6 PUSH1 0x20 DUP7 ADD PUSH2 0x149E JUMP JUMPDEST PUSH2 0x1510 DUP2 PUSH2 0x14D1 JUMP JUMPDEST DUP5 ADD SWAP2 POP POP SWAP3 SWAP2 POP POP JUMP JUMPDEST PUSH2 0x1524 DUP2 PUSH2 0x1417 JUMP JUMPDEST DUP3 MSTORE POP POP JUMP JUMPDEST PUSH1 0x0 DUP2 SWAP1 POP SWAP2 SWAP1 POP JUMP JUMPDEST PUSH2 0x153D DUP2 PUSH2 0x152A JUMP JUMPDEST DUP3 MSTORE POP POP JUMP JUMPDEST PUSH1 0x0 DUP2 ISZERO ISZERO SWAP1 POP SWAP2 SWAP1 POP JUMP JUMPDEST PUSH2 0x1558 DUP2 PUSH2 0x1543 JUMP JUMPDEST DUP3 MSTORE POP POP JUMP JUMPDEST PUSH1 0x0 PUSH1 0xA0 DUP3 ADD SWAP1 POP DUP2 DUP2 SUB PUSH1 0x0 DUP4 ADD MSTORE PUSH2 0x1578 DUP2 DUP9 PUSH2 0x14E2 JUMP JUMPDEST SWAP1 POP PUSH2 0x1587 PUSH1 0x20 DUP4 ADD DUP8 PUSH2 0x151B JUMP JUMPDEST PUSH2 0x1594 PUSH1 0x40 DUP4 ADD DUP7 PUSH2 0x1534 JUMP JUMPDEST PUSH2 0x15A1 PUSH1 0x60 DUP4 ADD DUP6 PUSH2 0x154F JUMP JUMPDEST PUSH2 0x15AE PUSH1 0x80 DUP4 ADD DUP5 PUSH2 0x1534 JUMP JUMPDEST SWAP7 SWAP6 POP POP POP POP POP POP JUMP JUMPDEST PUSH1 0x0 PUSH1 0x20 DUP3 ADD SWAP1 POP PUSH2 0x15CD PUSH1 0x0 DUP4 ADD DUP5 PUSH2 0x1534 JUMP JUMPDEST SWAP3 SWAP2 POP POP JUMP JUMPDEST PUSH2 0x15DC DUP2 PUSH2 0x152A JUMP JUMPDEST DUP2 EQ PUSH2 0x15E7 JUMPI PUSH1 0x0 DUP1 REVERT JUMPDEST POP JUMP JUMPDEST PUSH1 0x0 DUP2 CALLDATALOAD SWAP1 POP PUSH2 0x15F9 DUP2 PUSH2 0x15D3 JUMP JUMPDEST SWAP3 SWAP2 POP POP JUMP JUMPDEST PUSH1 0x0 PUSH1 0x20 DUP3 DUP5 SUB SLT ISZERO PUSH2 0x1615 JUMPI PUSH2 0x1614 PUSH2 0x13ED JUMP JUMPDEST JUMPDEST PUSH1 0x0 PUSH2 0x1623 DUP5 DUP3 DUP6 ADD PUSH2 0x15EA JUMP JUMPDEST SWAP2 POP POP SWAP3 SWAP2 POP POP JUMP JUMPDEST PUSH1 0x0 PUSH1 0xC0 DUP3 ADD SWAP1 POP PUSH2 0x1641 PUSH1 0x0 DUP4 ADD DUP10 PUSH2 0x151B JUMP JUMPDEST PUSH2 0x164E PUSH1 0x20 DUP4 ADD DUP9 PUSH2 0x154F JUMP JUMPDEST PUSH2 0x165B PUSH1 0x40 DUP4 ADD DUP8 PUSH2 0x1534 JUMP JUMPDEST PUSH2 0x1668 PUSH1 0x60 DUP4 ADD DUP7 PUSH2 0x154F JUMP JUMPDEST PUSH2 0x1675 PUSH1 0x80 DUP4 ADD DUP6 PUSH2 0x1534 JUMP JUMPDEST PUSH2 0x1682 PUSH1 0xA0 DUP4 ADD DUP5 PUSH2 0x1534 JUMP JUMPDEST SWAP8 SWAP7 POP POP POP POP POP POP POP JUMP JUMPDEST PUSH1 0x0 DUP2 MLOAD SWAP1 POP SWAP2 SWAP1 POP JUMP JUMPDEST PUSH1 0x0 DUP3 DUP3 MSTORE PUSH1 0x20 DUP3 ADD SWAP1 POP SWAP3 SWAP2 POP POP JUMP JUMPDEST PUSH1 0x0 DUP2 SWAP1 POP PUSH1 0x20 DUP3 ADD SWAP1 POP SWAP2 SWAP1 POP JUMP JUMPDEST PUSH1 0x0 DUP3 DUP3 MSTORE PUSH1 0x20 DUP3 ADD SWAP1 POP SWAP3 SWAP2 POP POP JUMP JUMPDEST PUSH1 0x0 PUSH2 0x16D5 DUP3 PUSH2 0x1482 JUMP JUMPDEST PUSH2 0x16DF DUP2 DUP6 PUSH2 0x16B9 JUMP JUMPDEST SWAP4 POP PUSH2 0x16EF DUP2 DUP6 PUSH1 0x20 DUP7 ADD PUSH2 0x149E JUMP JUMPDEST PUSH2 0x16F8 DUP2 PUSH2 0x14D1 JUMP JUMPDEST DUP5 ADD SWAP2 POP POP SWAP3 SWAP2 POP POP JUMP JUMPDEST PUSH2 0x170C DUP2 PUSH2 0x1417 JUMP JUMPDEST DUP3 MSTORE POP POP JUMP JUMPDEST PUSH2 0x171B DUP2 PUSH2 0x152A JUMP JUMPDEST DUP3 MSTORE POP POP JUMP JUMPDEST PUSH2 0x172A DUP2 PUSH2 0x1543 JUMP JUMPDEST DUP3 MSTORE POP POP JUMP JUMPDEST PUSH1 0x0 PUSH1 0xA0 DUP4 ADD PUSH1 0x0 DUP4 ADD MLOAD DUP5 DUP3 SUB PUSH1 0x0 DUP7 ADD MSTORE PUSH2 0x174D DUP3 DUP3 PUSH2 0x16CA JUMP JUMPDEST SWAP2 POP POP PUSH1 0x20 DUP4 ADD MLOAD PUSH2 0x1762 PUSH1 0x20 DUP7 ADD DUP3 PUSH2 0x1703 JUMP JUMPDEST POP PUSH1 0x40 DUP4 ADD MLOAD PUSH2 0x1775 PUSH1 0x40 DUP7 ADD DUP3 PUSH2 0x1712 JUMP JUMPDEST POP PUSH1 0x60 DUP4 ADD MLOAD PUSH2 0x1788 PUSH1 0x60 DUP7 ADD DUP3 PUSH2 0x1721 JUMP JUMPDEST POP PUSH1 0x80 DUP4 ADD MLOAD PUSH2 0x179B PUSH1 0x80 DUP7 ADD DUP3 PUSH2 0x1712 JUMP JUMPDEST POP DUP1 SWAP2 POP POP SWAP3 SWAP2 POP POP JUMP JUMPDEST PUSH1 0x0 PUSH2 0x17B2 DUP4 DUP4 PUSH2 0x1730 JUMP JUMPDEST SWAP1 POP SWAP3 SWAP2 POP POP JUMP JUMPDEST PUSH1 0x0 PUSH1 0x20 DUP3 ADD SWAP1 POP SWAP2 SWAP1 POP JUMP JUMPDEST PUSH1 0x0 PUSH2 0x17D2 DUP3 PUSH2 0x168D JUMP JUMPDEST PUSH2 0x17DC DUP2 DUP6 PUSH2 0x1698 JUMP JUMPDEST SWAP4 POP DUP4 PUSH1 0x20 DUP3 MUL DUP6 ADD PUSH2 0x17EE DUP6 PUSH2 0x16A9 JUMP JUMPDEST DUP1 PUSH1 0x0 JUMPDEST DUP6 DUP2 LT ISZERO PUSH2 0x182A JUMPI DUP5 DUP5 SUB DUP10 MSTORE DUP2 MLOAD PUSH2 0x180B DUP6 DUP3 PUSH2 0x17A6 JUMP JUMPDEST SWAP5 POP PUSH2 0x1816 DUP4 PUSH2 0x17BA JUMP JUMPDEST SWAP3 POP PUSH1 0x20 DUP11 ADD SWAP10 POP POP PUSH1 0x1 DUP2 ADD SWAP1 POP PUSH2 0x17F2 JUMP JUMPDEST POP DUP3 SWAP8 POP DUP8 SWAP6 POP POP POP POP POP POP SWAP3 SWAP2 POP POP JUMP JUMPDEST PUSH1 0x0 PUSH1 0x20 DUP3 ADD SWAP1 POP DUP2 DUP2 SUB PUSH1 0x0 DUP4 ADD MSTORE PUSH2 0x1856 DUP2 DUP5 PUSH2 0x17C7 JUMP JUMPDEST SWAP1 POP SWAP3 SWAP2 POP POP JUMP JUMPDEST PUSH1 0x0 DUP1 REVERT JUMPDEST PUSH1 0x0 DUP1 REVERT JUMPDEST PUSH32 0x4E487B7100000000000000000000000000000000000000000000000000000000 PUSH1 0x0 MSTORE PUSH1 0x41 PUSH1 0x4 MSTORE PUSH1 0x24 PUSH1 0x0 REVERT JUMPDEST PUSH2 0x18A0 DUP3 PUSH2 0x14D1 JUMP JUMPDEST DUP2 ADD DUP2 DUP2 LT PUSH8 0xFFFFFFFFFFFFFFFF DUP3 GT OR ISZERO PUSH2 0x18BF JUMPI PUSH2 0x18BE PUSH2 0x1868 JUMP JUMPDEST JUMPDEST DUP1 PUSH1 0x40 MSTORE POP POP POP JUMP JUMPDEST PUSH1 0x0 PUSH2 0x18D2 PUSH2 0x13E3 JUMP JUMPDEST SWAP1 POP PUSH2 0x18DE DUP3 DUP3 PUSH2 0x1897 JUMP JUMPDEST SWAP2 SWAP1 POP JUMP JUMPDEST PUSH1 0x0 PUSH8 0xFFFFFFFFFFFFFFFF DUP3 GT ISZERO PUSH2 0x18FE JUMPI PUSH2 0x18FD PUSH2 0x1868 JUMP JUMPDEST JUMPDEST PUSH2 0x1907 DUP3 PUSH2 0x14D1 JUMP JUMPDEST SWAP1 POP PUSH1 0x20 DUP2 ADD SWAP1 POP SWAP2 SWAP1 POP JUMP JUMPDEST DUP3 DUP2 DUP4 CALLDATACOPY PUSH1 0x0 DUP4 DUP4 ADD MSTORE POP POP POP JUMP JUMPDEST PUSH1 0x0 PUSH2 0x1936 PUSH2 0x1931 DUP5 PUSH2 0x18E3 JUMP JUMPDEST PUSH2 0x18C8 JUMP JUMPDEST SWAP1 POP DUP3 DUP2 MSTORE PUSH1 0x20 DUP2 ADD DUP5 DUP5 DUP5 ADD GT ISZERO PUSH2 0x1952 JUMPI PUSH2 0x1951 PUSH2 0x1863 JUMP JUMPDEST JUMPDEST PUSH2 0x195D DUP5 DUP3 DUP6 PUSH2 0x1914 JUMP JUMPDEST POP SWAP4 SWAP3 POP POP POP JUMP JUMPDEST PUSH1 0x0 DUP3 PUSH1 0x1F DUP4 ADD SLT PUSH2 0x197A JUMPI PUSH2 0x1979 PUSH2 0x185E JUMP JUMPDEST JUMPDEST DUP2 CALLDATALOAD PUSH2 0x198A DUP5 DUP3 PUSH1 0x20 DUP7 ADD PUSH2 0x1923 JUMP JUMPDEST SWAP2 POP POP SWAP3 SWAP2 POP POP JUMP JUMPDEST PUSH1 0x0 DUP1 PUSH1 0x40 DUP4 DUP6 SUB SLT ISZERO PUSH2 0x19AA JUMPI PUSH2 0x19A9 PUSH2 0x13ED JUMP JUMPDEST JUMPDEST PUSH1 0x0 DUP4 ADD CALLDATALOAD PUSH8 0xFFFFFFFFFFFFFFFF DUP2 GT ISZERO PUSH2 0x19C8 JUMPI PUSH2 0x19C7 PUSH2 0x13F2 JUMP JUMPDEST JUMPDEST PUSH2 0x19D4 DUP6 DUP3 DUP7 ADD PUSH2 0x1965 JUMP JUMPDEST SWAP3 POP POP PUSH1 0x20 PUSH2 0x19E5 DUP6 DUP3 DUP7 ADD PUSH2 0x15EA JUMP JUMPDEST SWAP2 POP POP SWAP3 POP SWAP3 SWAP1 POP JUMP JUMPDEST PUSH2 0x19F8 DUP2 PUSH2 0x1543 JUMP JUMPDEST DUP2 EQ PUSH2 0x1A03 JUMPI PUSH1 0x0 DUP1 REVERT JUMPDEST POP JUMP JUMPDEST PUSH1 0x0 DUP2 CALLDATALOAD SWAP1 POP PUSH2 0x1A15 DUP2 PUSH2 0x19EF JUMP JUMPDEST SWAP3 SWAP2 POP POP JUMP JUMPDEST PUSH1 0x0 DUP1 PUSH1 0x0 PUSH1 0x60 DUP5 DUP7 SUB SLT ISZERO PUSH2 0x1A34 JUMPI PUSH2 0x1A33 PUSH2 0x13ED JUMP JUMPDEST JUMPDEST PUSH1 0x0 PUSH2 0x1A42 DUP7 DUP3 DUP8 ADD PUSH2 0x1440 JUMP JUMPDEST SWAP4 POP POP PUSH1 0x20 PUSH2 0x1A53 DUP7 DUP3 DUP8 ADD PUSH2 0x1A06 JUMP JUMPDEST SWAP3 POP POP PUSH1 0x40 PUSH2 0x1A64 DUP7 DUP3 DUP8 ADD PUSH2 0x1440 JUMP JUMPDEST SWAP2 POP POP SWAP3 POP SWAP3 POP SWAP3 JUMP JUMPDEST PUSH32 0x4E487B7100000000000000000000000000000000000000000000000000000000 PUSH1 0x0 MSTORE PUSH1 0x22 PUSH1 0x4 MSTORE PUSH1 0x24 PUSH1 0x0 REVERT JUMPDEST PUSH1 0x0 PUSH1 0x2 DUP3 DIV SWAP1 POP PUSH1 0x1 DUP3 AND DUP1 PUSH2 0x1AB5 JUMPI PUSH1 0x7F DUP3 AND SWAP2 POP JUMPDEST PUSH1 0x20 DUP3 LT DUP2 EQ ISZERO PUSH2 0x1AC9 JUMPI PUSH2 0x1AC8 PUSH2 0x1A6E JUMP JUMPDEST JUMPDEST POP SWAP2 SWAP1 POP JUMP JUMPDEST PUSH32 0x596F7520646964206E6F7420626F72726F77207468697320626F6F6B00000000 PUSH1 0x0 DUP3 ADD MSTORE POP JUMP JUMPDEST PUSH1 0x0 PUSH2 0x1B05 PUSH1 0x1C DUP4 PUSH2 0x148D JUMP JUMPDEST SWAP2 POP PUSH2 0x1B10 DUP3 PUSH2 0x1ACF JUMP JUMPDEST PUSH1 0x20 DUP3 ADD SWAP1 POP SWAP2 SWAP1 POP JUMP JUMPDEST PUSH1 0x0 PUSH1 0x20 DUP3 ADD SWAP1 POP DUP2 DUP2 SUB PUSH1 0x0 DUP4 ADD MSTORE PUSH2 0x1B34 DUP2 PUSH2 0x1AF8 JUMP JUMPDEST SWAP1 POP SWAP2 SWAP1 POP JUMP JUMPDEST PUSH32 0x556E617574686F72697A65642061636365737300000000000000000000000000 PUSH1 0x0 DUP3 ADD MSTORE POP JUMP JUMPDEST PUSH1 0x0 PUSH2 0x1B71 PUSH1 0x13 DUP4 PUSH2 0x148D JUMP JUMPDEST SWAP2 POP PUSH2 0x1B7C DUP3 PUSH2 0x1B3B JUMP JUMPDEST PUSH1 0x20 DUP3 ADD SWAP1 POP SWAP2 SWAP1 POP JUMP JUMPDEST PUSH1 0x0 PUSH1 0x20 DUP3 ADD SWAP1 POP DUP2 DUP2 SUB PUSH1 0x0 DUP4 ADD MSTORE PUSH2 0x1BA0 DUP2 PUSH2 0x1B64 JUMP JUMPDEST SWAP1 POP SWAP2 SWAP1 POP JUMP JUMPDEST PUSH32 0x426F6F6B2072657475726E656400000000000000000000000000000000000000 PUSH1 0x0 DUP3 ADD MSTORE POP JUMP JUMPDEST PUSH1 0x0 PUSH2 0x1BDD PUSH1 0xD DUP4 PUSH2 0x148D JUMP JUMPDEST SWAP2 POP PUSH2 0x1BE8 DUP3 PUSH2 0x1BA7 JUMP JUMPDEST PUSH1 0x20 DUP3 ADD SWAP1 POP SWAP2 SWAP1 POP JUMP JUMPDEST PUSH1 0x0 PUSH1 0x20 DUP3 ADD SWAP1 POP DUP2 DUP2 SUB PUSH1 0x0 DUP4 ADD MSTORE PUSH2 0x1C0C DUP2 PUSH2 0x1BD0 JUMP JUMPDEST SWAP1 POP SWAP2 SWAP1 POP JUMP JUMPDEST PUSH32 0x4E487B7100000000000000000000000000000000000000000000000000000000 PUSH1 0x0 MSTORE PUSH1 0x32 PUSH1 0x4 MSTORE PUSH1 0x24 PUSH1 0x0 REVERT JUMPDEST PUSH32 0x4E487B7100000000000000000000000000000000000000000000000000000000 PUSH1 0x0 MSTORE PUSH1 0x11 PUSH1 0x4 MSTORE PUSH1 0x24 PUSH1 0x0 REVERT JUMPDEST PUSH1 0x0 PUSH2 0x1C7C DUP3 PUSH2 0x152A JUMP JUMPDEST SWAP2 POP PUSH2 0x1C87 DUP4 PUSH2 0x152A JUMP JUMPDEST SWAP3 POP DUP3 PUSH32 0xFFFFFFFFFFFFFFFFFFFFFFFFFFFFFFFFFFFFFFFFFFFFFFFFFFFFFFFFFFFFFFFF SUB DUP3 GT ISZERO PUSH2 0x1CBC JUMPI PUSH2 0x1CBB PUSH2 0x1C42 JUMP JUMPDEST JUMPDEST DUP3 DUP3 ADD SWAP1 POP SWAP3 SWAP2 POP POP JUMP JUMPDEST PUSH32 0x53747564656E7420686173206F75747374616E64696E67207375626D69737369 PUSH1 0x0 DUP3 ADD MSTORE PUSH32 0x6F6E730000000000000000000000000000000000000000000000000000000000 PUSH1 0x20 DUP3 ADD MSTORE POP JUMP JUMPDEST PUSH1 0x0 PUSH2 0x1D23 PUSH1 0x23 DUP4 PUSH2 0x148D JUMP JUMPDEST SWAP2 POP PUSH2 0x1D2E DUP3 PUSH2 0x1CC7 JUMP JUMPDEST PUSH1 0x40 DUP3 ADD SWAP1 POP SWAP2 SWAP1 POP JUMP JUMPDEST PUSH1 0x0 PUSH1 0x20 DUP3 ADD SWAP1 POP DUP2 DUP2 SUB PUSH1 0x0 DUP4 ADD MSTORE PUSH2 0x1D52 DUP2 PUSH2 0x1D16 JUMP JUMPDEST SWAP1 POP SWAP2 SWAP1 POP JUMP JUMPDEST PUSH32 0x536F7272792C20496E73756666696369656E742046756E647300000000000000 PUSH1 0x0 DUP3 ADD MSTORE POP JUMP JUMPDEST PUSH1 0x0 PUSH2 0x1D8F PUSH1 0x19 DUP4 PUSH2 0x148D JUMP JUMPDEST SWAP2 POP PUSH2 0x1D9A DUP3 PUSH2 0x1D59 JUMP JUMPDEST PUSH1 0x20 DUP3 ADD SWAP1 POP SWAP2 SWAP1 POP JUMP JUMPDEST PUSH1 0x0 PUSH1 0x20 DUP3 ADD SWAP1 POP DUP2 DUP2 SUB PUSH1 0x0 DUP4 ADD MSTORE PUSH2 0x1DBE DUP2 PUSH2 0x1D82 JUMP JUMPDEST SWAP1 POP SWAP2 SWAP1 POP JUMP JUMPDEST PUSH1 0x0 PUSH2 0x1DD0 DUP3 PUSH2 0x152A JUMP JUMPDEST SWAP2 POP PUSH32 0xFFFFFFFFFFFFFFFFFFFFFFFFFFFFFFFFFFFFFFFFFFFFFFFFFFFFFFFFFFFFFFFF DUP3 EQ ISZERO PUSH2 0x1E03 JUMPI PUSH2 0x1E02 PUSH2 0x1C42 JUMP JUMPDEST JUMPDEST PUSH1 0x1 DUP3 ADD SWAP1 POP SWAP2 SWAP1 POP JUMP JUMPDEST PUSH32 0x6C696272617269616E2070726976696C6564676573206F6E6C79000000000000 PUSH1 0x0 DUP3 ADD MSTORE POP JUMP JUMPDEST PUSH1 0x0 PUSH2 0x1E44 PUSH1 0x1A DUP4 PUSH2 0x148D JUMP JUMPDEST SWAP2 POP PUSH2 0x1E4F DUP3 PUSH2 0x1E0E JUMP JUMPDEST PUSH1 0x20 DUP3 ADD SWAP1 POP SWAP2 SWAP1 POP JUMP JUMPDEST PUSH1 0x0 PUSH1 0x20 DUP3 ADD SWAP1 POP DUP2 DUP2 SUB PUSH1 0x0 DUP4 ADD MSTORE PUSH2 0x1E73 DUP2 PUSH2 0x1E37 JUMP JUMPDEST SWAP1 POP SWAP2 SWAP1 POP JUMP JUMPDEST PUSH32 0x426F6F6B206E6F742072657475726E6564000000000000000000000000000000 PUSH1 0x0 DUP3 ADD MSTORE POP JUMP JUMPDEST PUSH1 0x0 PUSH2 0x1EB0 PUSH1 0x11 DUP4 PUSH2 0x148D JUMP JUMPDEST SWAP2 POP PUSH2 0x1EBB DUP3 PUSH2 0x1E7A JUMP JUMPDEST PUSH1 0x20 DUP3 ADD SWAP1 POP SWAP2 SWAP1 POP JUMP JUMPDEST PUSH1 0x0 PUSH1 0x20 DUP3 ADD SWAP1 POP DUP2 DUP2 SUB PUSH1 0x0 DUP4 ADD MSTORE PUSH2 0x1EDF DUP2 PUSH2 0x1EA3 JUMP JUMPDEST SWAP1 POP SWAP2 SWAP1 POP JUMP JUMPDEST PUSH1 0x0 PUSH2 0x1EF1 DUP3 PUSH2 0x152A JUMP JUMPDEST SWAP2 POP PUSH2 0x1EFC DUP4 PUSH2 0x152A JUMP JUMPDEST SWAP3 POP DUP3 DUP3 LT ISZERO PUSH2 0x1F0F JUMPI PUSH2 0x1F0E PUSH2 0x1C42 JUMP JUMPDEST JUMPDEST DUP3 DUP3 SUB SWAP1 POP SWAP3 SWAP2 POP POP JUMP JUMPDEST PUSH32 0x4E487B7100000000000000000000000000000000000000000000000000000000 PUSH1 0x0 MSTORE PUSH1 0x31 PUSH1 0x4 MSTORE PUSH1 0x24 PUSH1 0x0 REVERT INVALID LOG2 PUSH5 0x6970667358 0x22 SLT KECCAK256 CALLDATASIZE DUP5 0xFB JUMP 0x2E 0xAB SELFDESTRUCT 0xDB 0xB2 0xB8 0xB6 0xC8 SGT 0xDD 0xC6 0xBB 0xBF 0xD7 SUB MSTORE DUP15 SGT RETURNDATASIZE DUP12 0xC8 PUSH17 0xB9B02CC02BC664736F6C634300080A0033 "},"gasEstimates":{"creation":{"codeDepositCost":"1612600","executionCost":"23801","totalCost":"1636401"},"external":{"bookIndex()":"2473","borrowBook(string,uint256)":"infinite","borrowed(address)":"infinite","borrowedBooks(uint256)":"infinite","checkLateReturnsCount(address)":"2963","deposit()":"2517","getBorrowedBooks()":"infinite","holdings(address)":"2924","registeredStudents(address)":"infinite","returnBook(address)":"infinite","validateReturn(address,bool,address)":"infinite"}},"methodIdentifiers":{"bookIndex()":"b049de54","borrowBook(string,uint256)":"a9f0e7a4","borrowed(address)":"0941cb3d","borrowedBooks(uint256)":"320f5c72","checkLateReturnsCount(address)":"1a2a9aea","deposit()":"d0e30db0","getBorrowedBooks()":"8ccca18a","holdings(address)":"dd3ced63","registeredStudents(address)":"6ea2f53c","returnBook(address)":"6a27a888","validateReturn(address,bool,address)":"b899d565"}},"storageLayout":{"storage":[{"astId":29,"contract":"library-system.sol:LibraryRecord","label":"holdings","offset":0,"slot":"0","type":"t_mapping(t_address,t_uint256)"},{"astId":34,"contract":"library-system.sol:LibraryRecord","label":"borrowed","offset":0,"slot":"1","type":"t_mapping(t_address,t_struct(Details)12_storage)"},{"astId":38,"contract":"library-system.sol:LibraryRecord","label":"borrowedBooks","offset":0,"slot":"2","type":"t_array(t_struct(Details)12_storage)dyn_storage"},{"astId":40,"contract":"library-system.sol:LibraryRecord","label":"bookIndex","offset":0,"slot":"3","type":"t_uint256"},{"astId":45,"contract":"library-system.sol:LibraryRecord","label":"registeredStudents","offset":0,"slot":"4","type":"t_mapping(t_address,t_struct(Student)25_storage)"},{"astId":47,"contract":"library-system.sol:LibraryRecord","label":"deposit","offset":0,"slot":"5","type":"t_uint256"}],"types":{"t_address":{"encoding":"inplace","label":"address","numberOfBytes":"20"},"t_array(t_struct(Details)12_storage)dyn_storage":{"base":"t_struct(Details)12_storage","encoding":"dynamic_array","label":"struct LibraryRecord.Details[]","numberOfBytes":"32"},"t_bool":{"encoding":"inplace","label":"bool","numberOfBytes":"1"},"t_mapping(t_address,t_struct(Details)12_storage)":{"encoding":"mapping","key":"t_address","label":"mapping(address => struct LibraryRecord.Details)","numberOfBytes":"32","value":"t_struct(Details)12_storage"},"t_mapping(t_address,t_struct(Student)25_storage)":{"encoding":"mapping","key":"t_address","label":"mapping(address => struct LibraryRecord.Student)","numberOfBytes":"32","value":"t_struct(Student)25_storage"},"t_mapping(t_address,t_uint256)":{"encoding":"mapping","key":"t_address","label":"mapping(address => uint256)","numberOfBytes":"32","value":"t_uint256"},"t_string_storage":{"encoding":"bytes","label":"string","numberOfBytes":"32"},"t_struct(Details)12_storage":{"encoding":"inplace","label":"struct LibraryRecord.Details","members":[{"astId":3,"contract":"library-system.sol:LibraryRecord","label":"title","offset":0,"slot":"0","type":"t_string_storage"},{"astId":5,"contract":"library-system.sol:LibraryRecord","label":"student","offset":0,"slot":"1","type":"t_address"},{"astId":7,"contract":"library-system.sol:LibraryRecord","label":"returnTime","offset":0,"slot":"2","type":"t_uint256"},{"astId":9,"contract":"library-system.sol:LibraryRecord","label":"returned","offset":0,"slot":"3","type":"t_bool"},{"astId":11,"contract":"library-system.sol:LibraryRecord","label":"bookIndex","offset":0,"slot":"4","type":"t_uint256"}],"numberOfBytes":"160"},"t_struct(Student)25_storage":{"encoding":"inplace","label":"struct LibraryRecord.Student","members":[{"astId":14,"contract":"library-system.sol:LibraryRecord","label":"student","offset":0,"slot":"0","type":"t_address"},{"astId":16,"contract":"library-system.sol:LibraryRecord","label":"outstanding","offset":20,"slot":"0","type":"t_bool"},{"astId":18,"contract":"library-system.sol:LibraryRecord","label":"lateReturns","offset":0,"slot":"1","type":"t_uint256"},{"astId":20,"contract":"library-system.sol:LibraryRecord","label":"registered","offset":0,"slot":"2","type":"t_bool"},{"astId":22,"contract":"library-system.sol:LibraryRecord","label":"lateFee","offset":0,"slot":"3","type":"t_uint256"},{"astId":24,"contract":"library-system.sol:LibraryRecord","label":"totalFees","offset":0,"slot":"4","type":"t_uint256"}],"numberOfBytes":"160"},"t_uint256":{"encoding":"inplace","label":"uint256","numberOfBytes":"32"}}},"userdoc":{"kind":"user","methods":{},"version":1}}